:020000040800F2
:100000003004002045010008A5250008A7250008A8
:10001000AB250008AF250008B3250008000000004C
:10002000000000000000000000000000B7250008EC
:10003000B925000800000000BB250008BD25000808
:100040005F0100085F0100085F0100085F01000810
:100050005F0100085F0100082F2600085F0100080B
:100060005F0100085F0100085F0100085F010008F0
:100070005F0100085F0100085F0100085F010008E0
:100080005F0100085F0100085F0100085F010008D0
:100090005F0100085F0100085F0100085F010008C0
:1000A0005F010008BF2500085F0100085F0100082C
:1000B0005F0100085F0100085F0100085F010008A0
:1000C0005F0100085F0100085F0100085F01000890
:1000D0005F0100085F0100085F0100085F01000880
:1000E0004D2600085F0100085F0100085F0100085D
:1000F0005F0100085F0100085F0100085F01000860
:100100005F0100085F0100085F0100085F0100084F
:100110005F0100085F0100085F0100085F0100083F
:100120005F0100085F0100085F0100085F0100082F
:10013000DFF80CD002F0ACFF004800471B25000898
:10014000300400200648804706480047FEE7FEE7E7
:10015000FEE7FEE7FEE7FEE7FEE7FEE7FEE7FEE777
:1001600047020008310100080CB500200190009002
:100170006C48006840F480306A49086000BF6948F4
:10018000006800F4003000900198401C0190009835
:1001900018B90198B0F5A06FF1D16248006800F479
:1001A000003010B10120009001E000200090009884
:1001B000012843D15C48006840F010005A490860AB
:1001C0000846006820F0030008600846006840F018
:1001D0000200086053484068524948600846406839
:1001E00048600846406840F48060486008464068BF
:1001F00020F47C1048600846406840F4E8104860ED
:100200000846006840F08070086000BF45480068FC
:1002100000F000700028F9D04248406820F0030048
:10022000404948600846406840F00200486000BF0E
:100230003C48406800F00C000828F9D10CBD10B50E
:10024000FFF792FF10BD10B53648006840F001007E
:1002500034490860084640683449084031494860DC
:1002600008460068324908402E4908600846006880
:1002700020F4802008600846406820F4FE004860B2
:100280004FF41F008860FFF7DAFF4FF00060294944
:10029000086010BD10B5002100200022214B5B68D2
:1002A00003F00C0121B1042906D0082928D107E068
:1002B000214B224C236027E01F4B204C236023E07E
:1002C000184B5B6803F47010164B5B6803F48032C4
:1002D000022303EB904022B9194B4343174C236090
:1002E0000DE0104B5B6803F4003323B1144B434320
:1002F000124C236003E0104B4343104C236003E097
:100300000D4B0E4C236000BF00BF064B5B68C3F370
:1003100003130C4CE15C094B1B68CB40074C23607A
:1003200010BD000000100240002002400000FFF855
:10033000FFFFF6FE08ED00E000127A00000000204A
:1003400000093D000400002031490143314A116099
:10035000704770B5002100230F22C47804B32D4CE0
:10036000246804F4E064C4F5E064210AC1F10403E4
:10037000CA40447804FA03F1847814402143090107
:10038000254C0678A155047804F01F050124AC40E3
:1003900005786D11AD0005F1E025C5F8004109E0D3
:1003A000047804F01F050124AC401C4D067876113A
:1003B00045F8264070BD1A4A0A400243154B1B1FE0
:1003C0001A60704739B1134A121D12680243114B6B
:1003D0001B1D1A6006E00F4A121D126882430D4B66
:1003E0001B1D1A607047042808D14FF0E0210969ED
:1003F00041F004014FF0E022116107E04FF0E021ED
:10040000096921F004014FF0E022116170470000FA
:100410000000FA050CED00E000E400E080E100E0FF
:1004200080FFFF1F10B50446FA48844208D101211D
:10043000401500F00DFF0021601500F009FF17E0E6
:10044000F548844208D10121001500F001FF002188
:10045000201500F0FDFE0BE0F048844208D1012198
:10046000C80300F0F5FE00214FF4004000F0F0FE5C
:1004700010BD30B50246002000235068E84C2040F3
:100480000D790C6844EA0524204350609068E54CDF
:100490002040D1E902542C434D7944EA45042043DD
:1004A0009060D06A20F470000C7C641EE4B2234398
:1004B00040EA0350D06230BD0021016001714171FA
:1004C0008160C16001210174704721B1826842F0EE
:1004D0000102826003E0826822F0010282607047BC
:1004E00021B1826842F48072826003E0826822F463
:1004F00080728260704710B50023CBB21AB1446895
:100500001C43446002E044689C43446010BD816821
:1005100041F0080181607047014600208A6802F0BE
:1005200008020AB1012000E000207047816841F014
:10053000040181607047014600208A6802F00402CD
:100540000AB1012000E00020704721B1826842F426
:10055000A002826003E0826822F4A00282607047F9
:10056000014600208A6802F480020AB1012000E0FE
:100570000020704710B50A4600210023416821F48D
:100580006041531E41EA4331416010BD21B14268D0
:1005900042F40062426003E0426822F4006242607A
:1005A0007047F0B504460D4600200021092D11DDED
:1005B000E068A5F10A0606EB4607072606FA07F1EA
:1005C0008843A5F10A0606EB460603FA06F108433E
:1005D000E0600CE0206905EB4507072606FA07F105
:1005E000884305EB450603FA06F108432061072A14
:1005F0000FDA606B561E06EB86071F2606FA07F118
:100600008843561E06EB860605FA06F1084360632A
:1006100022E00D2A0FDA206BD61F06EB86071F2675
:1006200006FA07F18843D61F06EB860605FA06F19F
:100630000843206310E0E06AA2F10D0606EB86078E
:100640001F2606FA07F18843A2F10D0606EB86067F
:1006500005FA06F10843E062F0BD21B1826842F478
:100660008012826003E0826822F480128260704708
:100670000146C86C80B2704766484C3000687047CD
:1006800021B1426842F48062426003E0426822F491
:1006900080624260704721B1426842F480524260F9
:1006A00003E0426822F48052426070470A4600210B
:1006B000816821F4E04111438160704721B1826873
:1006C00042F40042826003E0826822F400428260C9
:1006D000704721B1826842F40212826003E08268AE
:1006E00022F4021282607047014600208A6802F4F8
:1006F00000120AB1012000E000207047F0B5044666
:100700001546002000220026092911DDE068A1F12C
:100710000A0707EB470C072707FA0CF29043A1F1F1
:100720000A0707EB470703FA07F21043E0600CE003
:10073000206901EB410C072707FA0CF2904301EB0B
:10074000410703FA07F210432061A06BC0F3015682
:10075000EF1C06F1010CA7EB0C0707EB870C1F271A
:1007600007FA0CF29043EF1C06F1010CA7EB0C0703
:1007700007EB870701FA07F21043A063F0BD10B53D
:100780000A4600210023816B21F44011531E41EAE7
:100790000351816310BD08B5002300930090009BB6
:1007A0000B440093009B1A6008BD08B50246002068
:1007B0000090009201F12800009B184400900098DE
:1007C000006880B208BD0A4600214168164B1940F6
:1007D0001143416070474162826270470A460021BE
:1007E000416821F01F0111434160704740B1094940
:1007F0000831096841F40001064A0832116007E037
:1008000004490831096821F40001024A08321160E4
:10081000704700000024014000280140003C0140D6
:10082000FFFEF0FFFDF7F1FFFFFD3FFF0246002056
:1008300013680B400BB1012000E000207047CA4351
:100840000260704770B502460020002300240B129E
:100850005568CEB205EA060415681D4015B10CB105
:10086000012000E0002070BD00220A12D343036083
:100870007047000001684FF6FE72114001600021D0
:10088000016041608160C1608D49884208D18C4916
:100890000839496841F00F01894A083A51608AE0F5
:1008A00087491431884208D185490839496841F09F
:1008B000F001834A083A51607DE08149283188423D
:1008C00008D17F490839496841F470617C4A083A87
:1008D000516070E07A493C31884208D17849083942
:1008E000496841F47041764A083A516063E07449BE
:1008F0005031884208D172490839496841F4702161
:100900006F4A083A516056E06D496431884208D117
:100910006B490839496841F47001694A083A5160E5
:1009200049E067497831884208D165490839496802
:1009300041F07061624A083A51603CE06149884286
:1009400006D1011F096841F00F01021F116032E05A
:100950005C491431884208D15A49091F096841F09D
:10096000F001584A121F116025E05649283188428B
:1009700008D15449091F096841F47061514A121F96
:10098000116018E04F493C31884208D14D49091F98
:10099000096841F470414B4A121F11600BE049494C
:1009A0005031884207D14749091F096841F4702135
:1009B000444A121F1160704710B50022026847F6C2
:1009C000F0739A430C6A8B6823430C6923434C6988
:1009D00023438C692343CC6923434C6A23438C6AA9
:1009E00023431A430260CB6843600B6883604B6803
:1009F000C36010BD0021016041608160C160016180
:100A000041618161C161016241628162704721B1CE
:100A1000026842F00102026004E002684FF6FE73D1
:100A20001A40026070471AB103680B43036002E08A
:100A300003688B4303607047416070470146486814
:100A400080B2704701460020002201F080531BB1A4
:100A50001C4B083B1A6802E0194B083B1A6802EA73
:100A600001030BB1012000E00020704700F080512D
:100A700019B11449091F086002E01149083948609A
:100A8000704701460020002201F080531BB10D4B3E
:100A9000083B1A6802E00A4B083B1A6802EA0103A5
:100AA0000BB1012000E00020704700F0805119B127
:100AB0000449091F086002E001490839486070478D
:100AC0000800024008040240002044490860091D53
:100AD0000860091D0860091D086041483F4914313C
:100AE0000860704700213D498279002A3AD00A46C1
:100AF000126803689A430B461A600A1D126803685D
:100B00009A430B1D1A60027911440A6803681A435C
:100B10000A60324A0832126803689A432F4B08333E
:100B20001A601A1D126803689A432C4B0C331A6022
:100B30004279102A0ED11A1F126803681A43274BF4
:100B400008331A601A1D126803681A43234B0C33CA
:100B50001A600DE02149427911440A6803681A437A
:100B60000A6005E0027911440A6803689A430A6042
:100B700070470021016001710C21417100218171D8
:100B800070471649103109680143144A1032116048
:100B9000704701460020114A143212680A400AB117
:100BA000012000E0002070470C49143108607047B4
:100BB000014600200022094B1B6803EA0102074B93
:100BC00014331B680B4013B10AB1012000E0002070
:100BD000704702491431086070470000000401406A
:100BE000FFFF0F0010B50446CC48844208D1012114
:100BF000042000F02DFB0021042000F029FB46E03A
:100C0000C748844208D10121082000F021FB0021BF
:100C1000082000F01DFB3AE0C248844208D10121BF
:100C2000102000F015FB0021102000F011FB2EE039
:100C3000BD48844208D10121202000F009FB002199
:100C4000202000F005FB22E0B848844208D10121B1
:100C5000402000F0FDFA0021402000F0F9FA16E0F3
:100C6000B348844208D10121802000F0F1FA00212C
:100C7000802000F0EDFA0AE0AE48844207D101215D
:100C8000801500F0E5FA0021A01500F0E1FA10BD92
:100C900010B50121084600F0DBFA0021012000F028
:100CA000D7FA10BD2DE9F0410246002500260020AC
:100CB00000230024002791F803C00CF00F0591F8E1
:100CC00003C00CF0100CBCF1000F03D091F802C06F
:100CD0004CEA050591F800C0BCF1000F31D0146852
:100CE00000202BE04FF0010C0CFA00F3B1F800C02B
:100CF0000CEA03069E4220D183004FF00F0C0CFA41
:100D000003F7BC4305FA03FC4CEA040491F803C062
:100D1000BCF1280F06D14FF0010C0CFA00FCC2F810
:100D200014C00AE091F803C0BCF1480F05D14FF0A0
:100D3000010C0CFA00FCC2F810C0401C0828D1D3EA
:100D40001460B1F800C0BCF1FF0F34DD546800201E
:100D50002EE000F1080C4FF0010808FA0CF3B1F88E
:100D600000C00CEA03069E4221D183004FF00F0C15
:100D70000CFA03F7BC4305FA03FC4CEA040491F8AF
:100D800003C0BCF1280F05D100F1080C08FA0CF8DB
:100D9000C2F8148091F803C0BCF1480F07D100F1EC
:100DA000080C4FF0010808FA0CF8C2F81080401C3B
:100DB0000828CED35460BDE8F0814FF6FF71018062
:100DC000022181700421C17070470246002093689F
:100DD0000B400BB1012000E00020704701468868FD
:100DE00080B2704702460020D3680B400BB101204F
:100DF00000E0002070470146C86880B2704701617A
:100E00007047416170470AB1016100E0416170477C
:100E1000C16070474FF480320A4382618161826110
:100E200082698269704702460020434B18684FF67A
:100E30008073184040EA021008433F4B1860704727
:100E40003E49C8617047F0B50A46002300240021DE
:100E5000002500F00046B6F1004F02D1364EF16990
:100E600001E0354E7168C0F3034583B200F44016CB
:100E7000B6F5401F08D121F070612F4E766826F03C
:100E800070662D4F7E6012E000F48016B6F5801F6C
:100E900006D1032606FA05F4A14341F0706106E08D
:100EA000460D360103FA06F6B14341F0706122B1F6
:100EB000460D360103FA06F6314300F00046B6F15E
:100EC000004F02D11C4EF16101E01B4E7160F0BD7C
:100ED00030B500228B071C0F0F2303FA04F2164BC8
:100EE00008338C1053F824309343134C08348D107E
:100EF00044F8253023468C1053F824308C07240FF7
:100F000000FA04F423430C4C08348D1044F82530C7
:100F100030BD0A49DC31086070470000000801401C
:100F2000000C014000100140001401400018014075
:100F3000001C014000200140000001400000204250
:100F4000DF48006840F00100DD490860084640685D
:100F5000DC490840DA49486008460068DA49084038
:100F6000D74908600846006820F4802008600846D9
:100F7000406820F4FE0048604FF41F00886070470E
:100F8000CF49096821F48031CD4A116011460968C2
:100F900021F480211160B0F5803F03D0B0F5802F9F
:100FA0000ED106E0C649096841F48031C44A116097
:100FB00007E0C349096841F4A021C14A116000E07B
:100FC00000BF00BF704710B501460022002300207B
:100FD0004A11012A02D1BA4C236806E0022A02D142
:100FE000B74C236A01E0B64C636A01F01F0201248A
:100FF00094401C400CB1012000E0002010BD38B529
:10100000002000900024002500BF3120FFF7DBFF07
:1010100005460098401C00900098B0F5A06F01D0E4
:10102000002DF2D03120FFF7CEFF08B1012400E0FF
:101030000024204638BD01460020A14A106820F057
:10104000F80040EAC10010607047A049086070478E
:10105000024600209A4B586820F47C1042EA0103B3
:101060001843974B58607047984908667047014687
:101070000020934A506820F00300084350607047F6
:101080008F48406800F00C007047014600208C4AF1
:10109000506820F0F000084350607047014600207F
:1010A000874A506820F4E06008435060704701466A
:1010B0000020834A506820F4605040EAC10050602C
:1010C000704729B17E4A527A02437D4B5A7204E03E
:1010D0007B4A527A82437A4B5A7270477B49D831A5
:1010E0000860704701460020754A506820F440406F
:1010F0000843506070470021714A20321170704AD5
:1011000082F82010012802D004280AD104E001212D
:101110006B4A2032117005E00521694A20321170B6
:1011200000E000BF00BF704769490860704764492C
:10113000096A0143624A116270476549443908608F
:10114000704730B500210022002400235C4D6D68FB
:1011500005F00C0121B1042905D0082923D105E0AF
:101160005C4D056022E05B4D05601FE0544D6D68ED
:1011700005F47012524D6D6805F48034022505EBBC
:1011800092421CB9544D554305600BE04C4D6D68BF
:1011900005F400351DB1504D5543056002E04D4D3D
:1011A0005543056002E04B4D056000BF00BF444D54
:1011B0006D6805F0F0010909484D6B5C0568DD407C
:1011C00045603F4D6D6805F4E061090A434D6B5C75
:1011D0004568DD4085603A4D6D6805F46051C90A87
:1011E0003E4D6B5C4568DD40C560354D6D6805F46E
:1011F0004041890B3A4D6B5CC568B5FBF3F5056161
:1012000030BD29B12E4A526902432D4B5A6104E088
:101210002B4A526982432A4B5A61704729B1284AA6
:1012200092690243264B9A6104E0254A92698243FF
:10123000234B9A61704729B1214AD2690243204B5E
:10124000DA6104E01E4AD26982431D4BDA617047BD
:1012500029B11B4AD2680243194BDA6004E0184AEC
:10126000D2688243164BDA60704729B1144A12697A
:101270000243134B1A6104E0114A12698243104B76
:101280001A61704712494039086070470F49C864B5
:1012900070470B49C87170470948406A40F0807038
:1012A00007494862704701460020054A92680A4093
:1012B0000AB1012000E000207047014988727047A0
:1012C000001002400000FFF8FFFFF6FE000042425F
:1012D0008004424200127A0000093D001400002000
:1012E0002400002010B50446FE48844208D10121A4
:1012F000C014FFF7ADFF0021E014FFF7A9FFC4E021
:10130000B4F1804F08D101210846FFF7AEFF00215C
:101310000120FFF7AAFFB8E0F348844208D1012179
:101320000220FFF7A2FF00210220FFF79EFFACE0A2
:10133000EE48844208D101210420FFF796FF0021E6
:101340000420FFF792FFA0E0E948844208D1012180
:101350000820FFF78AFF00210820FFF786FF94E0AE
:10136000E448844208D101211020FFF77EFF0021CC
:101370001020FFF77AFF88E0DF48844208D101217E
:101380002020FFF772FF00212020FFF76EFF7CE096
:10139000DA48844208D101214014FFF759FF0021A7
:1013A0006014FFF755FF70E0D548844209D1012150
:1013B000C804FFF74DFF00214FF40020FFF748FF5E
:1013C00063E0D048844209D101210805FFF740FFBE
:1013D00000214FF48010FFF73BFF56E0CA488442DB
:1013E00009D101214805FFF733FF00214FF4001018
:1013F000FFF72EFF49E0C548844208D10121402073
:10140000FFF733FF00214020FFF72FFF3DE0C048EA
:10141000844208D101218020FFF727FF002180208E
:10142000FFF723FF31E0BB48844208D1012180153A
:10143000FFF71BFF0021A015FFF717FF25E0B648B7
:10144000844209D101210804FFF702FF00214FF473
:101450008030FFF7FDFE18E0B048844209D1012139
:101460004804FFF7F5FE00214FF40030FFF7F0FECF
:101470000BE0AB48844208D101218804FFF7E8FE65
:1014800000214FF48020FFF7E3FE10BD0022028808
:10149000944B98420ED0994B98420BD0B0F1804FAC
:1014A00008D0914B984205D0904B984202D0904B77
:1014B000984204D14FF68F731A404B881A438D4BD4
:1014C000984207D08C4B984204D04FF6FF431A4005
:1014D000CB881A4302808B8883850B880385814BD8
:1014E00098420BD0854B984208D08B4B984205D040
:1014F0008A4B984202D08A4B984201D10B7A0386DC
:1015000001238382704770B5002400220023058CDC
:101510004FF6FE7635400584028C8388048B4FF6A7
:101520008F752C40B51E2C400D882C43751E2A400B
:101530000D892A434D882A436A4DA8420BD06F4D2E
:10154000A84208D0744DA84205D0744DA84202D0DC
:10155000734DA84213D14FF6F7752A404D892A439F
:101560004FF6FB752A408D882A434FF6FF652B40C6
:101570004FF6FF552B408D892B43CD892B4383801C
:101580000483CD888586028470BD70B50024002256
:101590000023058C4FF6EF7635400584028C838856
:1015A000048B48F6FF752C404FF6FF452C400D8804
:1015B0004FF6FF7606EA05252C434FF6DF752A40E5
:1015C0000D8906EA05152A434D8806EA05152A43C2
:1015D000444DA84202D0494DA8421DD14FF67F7517
:1015E0002A404D894FF6FF7606EA05152A434FF645
:1015F000BF752A408D8806EA05152A434FF6FF3548
:101600002B404FF2FF752B408D8906EA85052B4351
:10161000CD8906EA85052B4383800483CD88058721
:10162000028470BD70B5002400220023058C4FF6A3
:10163000FF6635400584028C8388848B4FF68F7556
:101640002C404FF6FC752C400D882C434FF6FF556F
:101650002A400D894FF6FF7606EA05252A434D8874
:1016600006EA05252A431F4DA84202D0234DA84271
:101670001DD14FF2FF752A404D894FF6FF7606EADD
:1016800005252A434FF6FF352A408D8806EA0525B1
:101690002A434EF6FF752B404DF6FF752B408D8982
:1016A00006EA05152B43CD8906EA05152B438380F1
:1016B0008483CD888587028470BD70B500220023A5
:1016C0000024058C4EF6FF7635400584038C848813
:1016D000828B48F6FF752A404FF6FF452A400D8859
:1016E00020E00000002C0140000400400008004001
:1016F000000C004000100040001400400034014085
:10170000004C0140005001400054014000180040CE
:10171000001C004000200040004001400044014007
:10172000004801404FF6FF7606EA05252A434DF6AC
:10173000FF752B400D8906EA05352B434D8806EAD7
:1017400005352B43FA4DA84202D0FA4DA84208D1E4
:101750004BF6FF752C408D894FF6FF7606EA85150E
:101760002C4384808283CD88A0F84050038470BDD0
:10177000828B4FF2FF331A408283828B4FF6FF73C6
:1017800003EA01231A4382837047F0B50C461546DD
:10179000002200210026078C4EF6FF7C07EA0C078A
:1017A0000784828B018C4FF6FF7707EA043640F6F8
:1017B000FF473A404FF6FF7707EA05273A434FF6CF
:1017C000FF7707EA03373A43D94FB8420ED0D94FD3
:1017D000B8420BD0B0F1804F08D0D74FB84205D0F7
:1017E000D64FB84202D0D64FB84206D14DF6FF7759
:1017F000394046F48057394305E047F6FF573940F2
:1018000044F48057394382830184F0BD828B4FF6C4
:10181000F3731A408283828B0A4382837047F0B548
:101820000C461546002200210026078C4FF6FF6C5F
:1018300007EA0C070784828B018C4FF6FF7707EAD3
:1018400004264FF60C773A404FF6FF7707EA031766
:101850002F433A43B64FB8420ED0B64FB8420BD0E2
:10186000B0F1804F08D0B44FB84205D0B34FB84262
:1018700002D0B34FB84206D14FF6FF57394046F475
:101880008077394305E04FF2FF57394044F48077C1
:10189000394382830184F0BD028B4FF2FF331A403B
:1018A0000283028B4FF6FF7303EA01231A4302837C
:1018B0007047F0B50C461546002200210026078C23
:1018C0004FF6EF7C07EA0C070784028B018C4FF67A
:1018D000FF7707EA041640F6FF473A404FF6FF77D6
:1018E00007EA03373A434FF6FF7707EA05273A43FB
:1018F0008F4FB8420ED08F4FB8420BD0B0F1804F0F
:1019000008D08D4FB84205D08C4FB84202D08C4FD2
:10191000B84206D14FF6DF77394046F01007394319
:1019200005E04FF65F77394044F0100739430283F2
:101930000184F0BD028B4FF6F3731A400283028BD1
:101940000A4302837047F0B50C4615460022002179
:10195000068C4FF6FE773E400684028B018C4FF6D4
:101960000C7632407E1C06EA03162E433243704E3C
:10197000B0420ED06F4EB0420BD0B0F1804F08D0C5
:101980006D4EB04205D06D4EB04202D06C4EB042AA
:1019900006D14FF6FD76314044F00106314305E0B3
:1019A0004FF6F576314044F001063143028301845D
:1019B000F0BD70B505460C465D4885420ED05D48C9
:1019C00085420BD0B5F1804F08D05B48854205D0E9
:1019D0005A48854202D05A48854200D100E000BFF3
:1019E000208850B92389A28861882846FFF7ABFF79
:1019F000E1882846FFF79EFF25E0208804280AD1C9
:101A00002389A28861882846FFF753FFE18828468A
:101A1000FFF742FF17E0208808280AD12389A2880F
:101A200061882846FFF7FBFEE1882846FFF7EEFEB7
:101A300009E02389A28861882846FFF7A6FEE1888D
:101A40002846FFF795FE70BD2DE9F04105460C468E
:101A500000260127608808B9022600E00026A08839
:101A6000012801D1022700E001272088A0B923899D
:101A7000A28861882846FFF766FFE1882846FFF7BD
:101A800059FF23893A4631462846FFF712FFE1887D
:101A90002846FFF701FF13E02389A28861882846C2
:101AA000FFF707FFE1882846FFF7F6FE23893A464D
:101AB00031462846FFF747FFE1882846FFF73AFFFF
:101AC000BDE8F0810A884B881A438B881A43CB887B
:101AD0001A430B891A434B891A438B891A43A0F87E
:101AE000442070474FF6FF71818000210180C18042
:101AF0004180017270470021018041808180C18056
:101B0000018141818181C181704700210180418033
:101B1000012181800021C180018170470021018065
:101B200041808180C18001814181818170470000B5
:101B3000002C014000340140000400400008004037
:101B4000000C004021B1028842F00102028004E052
:101B500002884FF6FE731A400280704731B1B0F828
:101B6000442042F40042A0F8442005E0B0F84420AC
:101B7000C2F30E02A0F8442070471AB183890B43C8
:101B8000838102E083898B43838170478182704720
:101B900041EA0203A0F8483070471AB183890B4329
:101BA000838102E083898B438381704701894FF6EB
:101BB000F8721140018170470A46002101894FF6F1
:101BC0008F73194011430181704730B504460D46AB
:101BD00029462046FFF7F0FF208940F007002081CA
:101BE00030BD2DE9F04104460D4616461F46602DD6
:101BF00006D13B46012231462046FFF75AFE05E05A
:101C00003B46012231462046FFF79DFE29462046ED
:101C1000FFF7D2FF208940F007002081BDE8F08166
:101C200030B50C4600210189C9B24FF6FF7505EAAF
:101C30000325154325432943018130BD2DE9F0419A
:101C400005460E4617469846002443463A46314616
:101C50002846FFF7E5FF2C894FF6F870044044F062
:101C600007044FF68F70044044F070042C81BDE8E7
:101C7000F081F0B504460D4616461F463B463246F7
:101C800029462046FFF7CCFF208940F48040208180
:101C9000F0BD0185828270470A46002101884FF617
:101CA0008F731940114301807047F0B50C461546FB
:101CB0001E460021002200230189028B038C4FF66F
:101CC000F877394021434FF6FC473A4040F201177C
:101CD0003A434FF6DD773B404FF6FF7707EA0617AA
:101CE0002F433B43018102830384F0BD0A46002158
:101CF000018B4FF68F7319401143018370470A46D9
:101D00000021018B48F6FF7319404FF6FF7303EA79
:101D100002231943018370470A460021818B4FF645
:101D20008F7319401143818370470A460021818BCC
:101D300048F6FF7319404FF6FF7303EA0223194375
:101D40008183704721B1028842F08002028004E062
:101D500002884FF67F731A400280704721B1828853
:101D600042F00402828004E082884FF6FB731A403E
:101D70008280704721B1828842F00802828004E0AC
:101D800082884FF6F7731A408280704721B18288AB
:101D900042F00102828004E082884FF6FE731A400E
:101DA000828070470A460021018B4FF6F773194075
:101DB0001143018370470A460021018B4FF2FF73E4
:101DC00019404FF6FF7303EA02231943018370475A
:101DD0000A460021818B4FF6F77319401143818326
:101DE00070470A460021818B4FF2FF7319404FF66E
:101DF000FF7303EA02231943818370470A460021D7
:101E0000018B4FF6FB7319401143018370470A465B
:101E10000021018B4FF6FF3319404FF6FF7303EAA1
:101E200002231943018370470A460021818B4FF634
:101E3000FB7319401143818370470A460021818B4F
:101E40004FF6FF3319404FF6FF7303EA022319439D
:101E5000818370470A460021018B4FF67F7319403A
:101E60001143018370470A460021018BC1F30E0123
:101E70004FF6FF7303EA02231943018370470A46B2
:101E80000021818B4FF67F73194011438183704786
:101E90000A460021818BC1F30E014FF6FF7303EA5E
:101EA00002231943818370470A460021018C4FF6B3
:101EB000FD7319401143018470470A460021018CCB
:101EC0004FF6F77319401143018470470A46002109
:101ED000018C4FF6DF7319404FF6FF7303EA0213CC
:101EE0001943018470470A460021018C4FF67F7325
:101EF00019404FF6FF7303EA021319430184704738
:101F00000A460021018C4FF6FF5319404FF6FF732C
:101F100003EA02231943018470470A460021018C19
:101F20004FF2FF7319404FF6FF7303EA0223194380
:101F3000018470470A460021018C4DF6FF73194059
:101F40004FF6FF7303EA023319430184704730B53B
:101F5000002301248C40A3B2048C9C430484048C91
:101F600002FA01F5ADB22C43048430BD30B5002334
:101F700004248C40A3B2048C9C430484048C02FA95
:101F800001F5ADB22C43048430BD70B5034600208A
:101F900000241846183001258D40ACB21D8CA54395
:101FA0001D8409B1082909D100EB6100056825F0FD
:101FB000700505600568154305600EE00D1FC5F34B
:101FC0004E052844056825F4E045056005684FF690
:101FD000FF7606EA02263543056070BD21B102880E
:101FE00042F00202028004E002884FF6FD731A40BC
:101FF0000280704721B1028842F00402028004E0AE
:1020000002884FF6FB731A400280704721B1828824
:1020100042F08002828004E082884FF67F731A408B
:102020008280704702884FF6F7731A400280028858
:102030000A430280704782884FF68F731A4082806D
:1020400082880A438280704702894FF6F8731A40EB
:10205000028102890A430281704702894FF67F7329
:102060001A40028102890A430281704781847047C5
:1020700081857047818670470187704781877047E7
:10208000A0F84010704702884FF6FF431A400280C4
:1020900002880A43028070470146888E70470146D5
:1020A000088F70470146888F70470146B1F840009D
:1020B00070470146888C70470146088D704702467C
:1020C0000020138A0B400BB1012000E00020704774
:1020D000CA430282704730B5024600200023002424
:1020E000158A05EA0103958905EA010413B10CB1CB
:1020F000012000E0002030BDCA430282704700008A
:1021000010B50446FB48844209D101218803FFF73A
:102110009FF800214FF48040FFF79AF832E0F6482C
:10212000844209D101214804FFF79FF800214FF4B0
:102130000030FFF79AF825E0F048844209D10121E8
:102140008804FFF792F800214FF48020FFF78DF804
:1021500018E0EB48844209D10121C804FFF785F853
:1021600000214FF40020FFF780F80BE0E54884429F
:1021700008D101210805FFF778F800214FF48010FD
:10218000FFF773F810BD2DE9F04786B005460E46FF
:102190000024A24600BFA1460027B08900B100BFBD
:1021A0002F462C8A4CF6FF700440F08804432C82A2
:1021B000AC894EF6F3100440B08831890843718928
:1021C00008430443AC81AC8A4FF6FF400440B08919
:1021D0000443AC8201A8FEF7B4FFC648874202D18F
:1021E000DDF810A001E0DDF80CA0A88900F40040A3
:1021F00040B10AEBCA0000EB0A1031684900B0FB9D
:10220000F1F807E00AEBCA0000EB0A103168890018
:10221000B0FBF1F86420B8FBF0F004012009642160
:1022200001FB1089A88900F4004040B1322000EB86
:10223000C900B0FBF1F000F00700044308E03220D1
:1022400000EB09106421B0FBF1F000F00F00044333
:102250002C8106B0BDE8F0874FF4165101600021D3
:102260008180C18001810C214181002181817047E1
:1022700010B502460020108A4FF2FF0318400B8869
:102280004C8823438C882343CC88234318431082F3
:1022900010BD0021018041808180C180704721B143
:1022A000828942F40052828104E082894DF6FF73F4
:1022B0001A4082817047F0B50346002400260025AD
:1022C000002040F66A17B94200D100BF1846C1F39A
:1022D000421401F01F06012707FA06F5012C01D16F
:1022E0000C3004E0022C01D1103000E014301AB19F
:1022F00007682F43076002E00768AF430760F0BD3F
:102300001AB1838A0B43838202E0838A8B438382E0
:102310007047028A4FF6F0731A400282028A0A431B
:102320000282704782894FF2FF731A40828182894C
:102330000A438281704721B1828942F00202828180
:1023400004E082894FF6FD731A4082817047028A49
:102350004FF6DF731A400282028A0A4302827047F4
:1023600021B1028A42F48042028204E0028A4BF6E2
:10237000FF731A4002827047C1F3080282807047DF
:1023800001468888C0F308007047818941F0010147
:1023900081817047028BD2B20283028B42EA012212
:1023A00002837047028B02F47F420283028B0A434E
:1023B0000283704721B1828A42F02002828204E0C7
:1023C000828A4FF6DF731A408282704721B1828A77
:1023D00042F01002828204E0828A4FF6EF731A40C4
:1023E0008282704721B1828A42F00802828204E030
:1023F000828A4FF6F7731A408282704721B1828930
:1024000042F40042828103E08289C2F30E0282819B
:10241000704721B1828A42F40062828204E0828A9B
:102420004FF2FF731A4082827047828A4FF6FB7325
:102430001A408282828A0A438282704721B1828A4C
:1024400042F00202828204E0828A4FF6FD731A4053
:102450008282704702460020B1F5007F00D100BFA4
:1024600013880B400BB1012000E00020704701F4FD
:102470000072B2F5007F00D100BFCA4302807047EE
:1024800070B50246002400230025002040F66A169D
:10249000B14200D100BFC1F3421501F01F03012674
:1024A00006FA03F3012D02D19689334006E0022D8E
:1024B00002D1168A334001E0968A33400C1201267D
:1024C00006FA04F41688344013B10CB1012000E080
:1024D000002070BD10B50022002340F66A14A1420E
:1024E00000D100BF0A1201249440A3B2DC4304804F
:1024F00010BD00000038014000440040004800408A
:10250000004C00400050004001B502E00098401E21
:10251000009000980028F9D108BD08B500F080FBB4
:1025200000F0E6FA00F057FB00F0D5FA00F049F9A8
:1025300000F025F9174C4FF000094FF0320A27E060
:102540001548008800F0C3FC4FF08B41009000F06C
:1025500005FC834600F0D9FC07464FF066320F4B6E
:1025600000F03AFC054600F0E3FC0D49086008461F
:102570000168204600F0ECFB8146504600F09EFCCE
:102580000646494600F092FB054600F0A5FC82464F
:10259000D6E70000000040402E00002066660A409A
:1025A00028000020704700BFFEE700BFFEE700BF25
:1025B000FEE700BFFEE7704770477047704710B5F1
:1025C00001212A48FFF787FD80B329480088652844
:1025D00015DA2848264A128830F812102348FFF7E7
:1025E00049FD2448224A128830F812101F48FFF78C
:1025F00043FD1F480088401C1D49088012E0002050
:102600001B4908801B480A46128830F812101748E8
:10261000FFF730FD1748164A128830F81210134899
:10262000FFF72AFD01211148FFF766FD10BD10B527
:102630000120FEF7BDFA40B10F48006880F020008D
:102640000D4908600120FEF7C4FA10BD10B54FF423
:102650000050FEF7ADFA40B10748006880F0010075
:10266000054908604814FEF7B4FA10BD002C01407B
:102670002C000020103100080C0C014008B501218D
:102680001020FEF7CBFD0220ADF8000000208DF8F1
:10269000030069463D48FEF705FB08BD00B591B053
:1026A00001210846FEF7ADFD01214802FEF7B6FD07
:1026B0003748FEF7DFF83748069037480790002084
:1026C00008900120099000200A900B904FF4807030
:1026D0000C9080000D9020200E9000020F900020A2
:1026E000109006A92A48FEF767F901212848FEF74D
:1026F0008EF9002001908DF8080001208DF8090066
:102700004FF4602003900020049001208DF8140005
:1027100001A920484C38FDF7ACFE4FF44040FEF7CD
:10272000E1FC052301220B211A484C38FDF739FF43
:10273000012118484C38FDF7D3FE012115484C38CB
:10274000FDF7C3FE13484C38FDF7E1FE00BF11480A
:102750004C38FDF7E1FE0028F9D10E484C38FDF762
:10276000E5FE00BF0B484C38FDF7E5FE0028F9D127
:10277000012108484C38FDF7E8FE11B000BD10B546
:10278000FFF77CFFFFF78AFF10BD0000001001403B
:10279000080002404C2401402E00002008B54FF4F0
:1027A000A060FDF7D1FD26208DF8000001208DF8F6
:1027B00001008DF802008DF803006846FDF7C9FDA1
:1027C00008BD00B585B001210420FEF727FD0121D9
:1027D0004804FEF730FD0420ADF8100018208DF8F5
:1027E000130003208DF8120004A95248FEF75AFA8C
:1027F0000820ADF8100004208DF8130004A94D48FE
:10280000FEF750FA4FF4E13000900020ADF80400DC
:10281000ADF80600ADF80800ADF80C000C20ADF8DE
:102820000A0069464448FFF7AEFCFFF7B7FF0122F4
:1028300040F225514048FFF73EFD01213E48FFF799
:102840002EFD05B000BD70B504460D462946204654
:10285000FFF792FD00BF80212046FFF7FBFD002817
:10286000F9D070BD2DE9F04107460D46164600240B
:1028700005E0295D3846FFF7E6FF601CC4B2B442AC
:10288000F7DB00BF40213846FFF7E4FD0028F9D010
:10289000BDE8F08170B506460C46002500BF615DBD
:1028A0003046FFF7D0FF6D1C605D0028F7D100BFF8
:1028B00040213046FFF7CEFD0028F9D070BD2DE94C
:1028C000F04105460C46260AE7B231462846FFF796
:1028D00053FD00BF80212846FFF7BCFD0028F9D03A
:1028E00039462846FFF748FD00BF80212846FFF7FC
:1028F000B1FD0028F9D0BDE8F08170B504460D4661
:10290000E1B20D48FFF738FD00BF80210A48FFF70C
:10291000A1FD0028F9D0204670BD10B5044600BFC7
:1029200020210548FFF796FD0028F9D00248FFF75F
:1029300027FD10BD000801400044004008B50121FA
:102940000420FEF76BFC4FF48070ADF800001820F7
:102950008DF8030003208DF8020069466148FEF7F8
:10296000A1F94FF40070ADF8000069465D48FEF72C
:1029700099F901210820FEF751FC4FF40050ADF801
:10298000000018208DF8030003208DF8020069462E
:102990005548FEF787F94FF48040ADF800006946CE
:1029A0005148FEF77FF901210820FEF737FC4FF46C
:1029B0008050ADF8000018208DF8030003208DF83A
:1029C000020069464848FEF76DF94FF480514648C9
:1029D000FEF717FA08BD08B54FF4C060FDF7B4FC68
:1029E00019208DF8000001208DF801008DF80200FB
:1029F0008DF803006846FDF7ACFC08BD00B58BB050
:102A00000121C802FEF70AFC40F2FF30ADF82400B5
:102A10000D20ADF820000020ADF82600ADF8220012
:102A20008DF8280008A93148FEF730FD6020ADF888
:102A300010000120ADF812000420ADF814004FF48E
:102A40007A70ADF816000020ADF81800ADF81A0045
:102A50004FF48070ADF81C000020ADF81E0004A9F2
:102A60002248FEF750FD08212048FFF79BF904A9F2
:102A70001E48FEF78AFD08211C48FFF79CF94FF419
:102A80000060ADF800004010ADF802008010ADF815
:102A900004000B20ADF806004FF48050ADF808009C
:102AA0004000ADF80A004000ADF80C0069460F4840
:102AB000FFF708F801210D48FFF744F801210B4802
:102AC000FFF74CF8012211460848FFF756F8FFF7C8
:102AD00082FF0BB000BD10B5FFF730FFFFF78EFF90
:102AE00010BD000000080140000C0140002C014016
:102AF00008B501210820FEF791FB2020ADF8000069
:102B000010208DF8030003208DF8020069460F485D
:102B1000FEF7C8F80120ADF8000069460B48FEF743
:102B2000C1F80220ADF8000069460848FEF7BAF87F
:102B300020210648FEF763F901210448FEF75FF9FA
:102B400002210248FEF75BF908BD0000000C0140BD
:102B500008B501210420FEF761FB4020ADF800001C
:102B600018208DF8030003208DF8020069461D48E7
:102B7000FEF798F808BD00B587B001210220FEF7E6
:102B80005AFB6320ADF81400ADF810000020ADF83A
:102B90001600ADF812008DF8180004A91248FEF7CF
:102BA00075FC6020ADF800000120ADF802000020A7
:102BB000ADF808003220ADF8060069460A48FEF775
:102BC000A2FC08210848FFF7EDF801210648FEF7AE
:102BD000B9FF07B000BD10B5FFF7BAFFFFF7CBFF95
:102BE00010BD0000000801400004004008B54FF48B
:102BF000C060FDF7A9FB06208DF8000000208DF8CD
:102C0000010001208DF802008DF803006846FDF7F1
:102C1000A0FB28208DF800006846FDF79AFB08BD50
:102C20000EB501210520FEF7F9FAFFF7DFFF0120BD
:102C3000ADF8080004208DF80B0002A91948FEF732
:102C400031F800210846FEF743F9012000900020EA
:102C50008DF8040008208DF8050001208DF806008D
:102C60006846FDF73FFF4FF40050ADF80800042020
:102C70008DF80B0002A90C48FEF714F80D21022074
:102C8000FEF726F94FF40050009000208DF8040064
:102C90000C208DF8050001208DF806006846FDF730
:102CA00021FF0EBD0008014000100140F0B480EA91
:102CB0000102D40F4200B2EB410F02D20246084695
:102CC00011464A0042D0C30DDDB2C1F3C752AD1A5E
:102CD000202D35DAC1F3160141F4000204B152424D
:102CE000C5F1200602FA06F12A411044B3EBD05F89
:102CF00023D0C4B1012DA0EBC35009DCF0BC4FF0D0
:102D0000004202EAC352DBB200F5000000F035B920
:102D1000400000F1807000EBC350A0F1807040EAE9
:102D2000D170490009E0490841EAC071A0EBC350E5
:102D300000F50000400800EBC350F0BC00F014B9EF
:102D40006142012202EB4101001BF6E7F0BC704733
:102D500081F00041AAE780F00040A7E730B480EAA4
:102D6000010202F0004530F0004221F0004013D093
:102D700090B1C30DD40DC2F31601C0F31600E41ACE
:102D800041F4000140F400027D34914201D3641CFF
:102D900000E04900002C02DA30BC002070474FF4FC
:102DA00000000023914201D3891A034340084FEAEF
:102DB0004101F7D151B1914202D14FF0004105E0FC
:102DC00002D24FF0010101E06FF0010103EBC450AA
:102DD000284430BC00F0C8B82DE9FE4F81EA030456
:102DE00004F0004421F0004100944FF0000B23F068
:102DF000004350EA01045ED052EA03045BD0C3F3FF
:102E00000A54C1F30A552C44A4F2F3340194A0FBF4
:102E10000254C1F3130141F48011C3F3130343F4CB
:102E2000801301FB024400FB034E840A970A44EA24
:102E3000815447EA8357A4FB076802958D0A05FB76
:102E400007854FEA932C04FB0C542705029D4FEA9B
:102E5000065847EA1637B5EB08056EEB070C870EE8
:102E6000920E47EA811742EA8312A7FB0201B6EBF2
:102E70000B0164EB00042B0D43EA0C335E1844EBAA
:102E80001C50DA465146E7FB0201C5F313044FEA32
:102E90000B3343EA14534FEA0432019C43EA06031E
:102EA000A4F10C040294009CCDE900B400F0A2F857
:102EB00003B0BDE8F08F00200146F9E7C10F80EABA
:102EC000E0700844CA079623002100F056B8962304
:102ED0000022114600F051B800F0004220F00040FE
:102EE000C10DC0F3160040F400007F2901DA002074
:102EF0007047962903DCC1F19601C84001E096397C
:102F00008840002AF4D04042704700F0004230F080
:102F100000400AD0C10D01F56071C0F3160042EA0D
:102F20000151C20840071143704700200146704715
:102F300001F0004330B421F0004150EA010206D014
:102F40000A0DA2F56072C1F31301002A02DC30BC45
:102F500000207047440F44EAC104C100E01830BCAF
:102F600000EBC250AFF300800029A8BF7047401C9F
:102F7000490008BF20F00100704710B4B0FA80FC8F
:102F800000FA0CF050EA010404BF10BC704749B1CC
:102F9000CCF1200421FA04F411FA0CF118BF01213C
:102FA00021430843A3EB0C01CB1D4FEA00614FEA1C
:102FB000102042BF002010BC704700EBC3501044EB
:102FC0000029A4BF10BC7047401C490008BF20F076
:102FD000010010BC704710B5141E73F1000408DA2C
:102FE000401C41F1000192185B411A4301D120F0CD
:102FF000010010BD2DE9F04D92469B4611B1B1FA8A
:1030000081F202E0B0FA80F22032904600F052F8ED
:1030100004460F4640EA0A0041EA0B0153465A466D
:10302000084313D0114653EA010019D0C8F14002F9
:10303000504600F04EF805460E4650465946424668
:1030400000F038F8084305D0012004E02046394656
:10305000BDE8F08D0020054346EAE0762C43374377
:103060000A986305E40AA0EB08000022FD0A44EA7E
:1030700047540A3002D500200146E9E7010510193E
:103080006941DDE9084500196941BDE8F04DA2E755
:10309000064C074D06E0E06840F0010394E80700A5
:1030A00098471034AC42F6D3FDF746F8D831000803
:1030B000F8310008202A04DB203A00FA02F100204F
:1030C00070479140C2F1200320FA03F31943904066
:1030D0007047202A04DB203A21FA02F000217047D1
:1030E00021FA02F3D040C2F1200291400843194670
:1030F000704702E008C8121F08C1002AFAD17047C1
:103100007047002001E001C1121F002AFBD1704767
:1031100000002100410062008200A300C300E30020
:103120000201220141015F017E019C01B901D70129
:10313000F3010F022B02460260027A029302AC02F4
:10314000C402DB02F10207031C03300343035503EF
:103150006703770387039603A403B103BD03C80382
:10316000D203DB03E303EB03F103F603FA03FD03EE
:10317000FF0300040004FF03FD03FA03F603F10359
:10318000EB03E303DB03D203C803BD03B103A403D2
:1031900096038703770367035503430330031C0338
:1031A0000703F102DB02C402AC0293027A0260025E
:1031B00046022B020F02F301D701B9019C017E01E7
:1031C0005F01410122010201E300C300A30082006C
:1031D0006200410021000000F831000800000020DA
:1031E00030000000F23000082832000830000020D3
:1031F000000400000231000800A24A0400000000A0
:103200000000000001020304060708090000000096
:103210000102030401020304060708090204060868
:083220000000000000000000A6
:0400000508000131BD
:00000001FF
