:020000040800F2
:1000000080310020C1020008312C0008ED2A0008D0
:100010002D2C0008391C0008474D00080000000086
:10002000000000000000000000000000C33E0008C7
:10003000871E000800000000430300088533000805
:10004000DB020008DB020008DB020008DB0200081C
:10005000DB020008DB020008DB020008DB0200080C
:10006000DB020008A9240008DB020008DB0200080C
:10007000DB020008DB020008DB020008811C00082C
:10008000DB020008DB020008DB020008DB020008DC
:10009000DB020008DB020008DB020008DB020008CC
:1000A000DB020008DB020008DB020008DB020008BC
:1000B00031400008DB02000879400008DB0200083C
:1000C000DB020008DB020008DB020008DB0200089C
:1000D000DB020008C54A0008F14B0008DB020008FB
:1000E0006D240008DB020008DB020008DB020008C8
:1000F000DB020008DB020008DB020008DB0200086C
:10010000DB020008DB020008DB020008DB0200085B
:10011000DB020008DB020008DB020008DB0200084B
:10012000DB020008DB020008DB020008DB0200083B
:1001300000F002F800F0B4F80AA090E8000C824445
:100140008344AAF10107DA4501D100F0A9F8AFF222
:10015000090EBAE80F0013F0010F18BFFB1A43F0A5
:100160000103184798730000B873000010F8013BB2
:100170000A4413F0030408BF10F8014B1D1108BF17
:1001800010F8015B641E05D010F8016B641E01F8C5
:10019000016BF9D1002D15D010F8014B03F00C03C1
:1001A0000C2BA1EB04040ABF10F8013BA4EB831451
:1001B000A4EB032405F1010314F8016B5B1E01F8A5
:1001C000016BF9D5914238BF10F8013BD1D370478C
:1001D0000023002400250026103A28BF78C1FBD850
:1001E000520728BF30C148BF0B6070476E2900F02E
:1001F0008D81702900F0CF82662906F0E88165299B
:1002000006F0E581672906F0E2816129AFF30080FD
:1002100003681B0A28BF41F08001692900F03A8178
:10022000642900F03781752900F034816F2900F0CE
:100230005C82782900F09B82E92900F0F781E429AB
:1002400000F0F481F52900F0F181EF2900F05982E6
:10025000F82900F09A820368DB0928BF41F0800189
:10026000632900F01E86732900F02386E32900F03D
:100270002E86F32900F03386002070471FB500F06A
:100280007FFE04000020002105F07AF9401C606028
:100290000020002105F05EF9E0601FBD10B510BD23
:1002A00000F041FE1146FFF7E9FF05F09BF800F072
:1002B0001DFF03B4FFF7F2FF03BC00F065FF000071
:1002C0000948804709480047FEE7FEE7FEE7FEE7EA
:1002D000FEE7FEE7FEE7FEE7FEE7FEE70448054926
:1002E000054A064B70470000D13F00083101000865
:1002F000802B002080310020802E0020802E0020C6
:10030000EFF3108072B6704780F3108870471D4875
:100310004FF6FF710170002080F309881A4801210F
:1003200001701A484FF08051016062B6FEE717482D
:100330004FF080510160704714484FF080510160C8
:10034000704772B6EFF3098028B1203880E8F00FCB
:100350000F490968086000B50E4880475DF804EB56
:100360000D480E490A78027009480D490A68026072
:10037000106890E8F00F203080F309884EF0040EEA
:1003800062B6704720ED00E0A704002004ED00E015
:10039000B0040020B93100089F040020A004002010
:1003A000B80400201CB50C46064B7B4469460090FF
:1003B000204600F0C4F804460020694600F0D2F858
:1003C00020461CBDB701000070477047704770B5EC
:1003D000044685690068C10601D5302600E0202664
:1003E000C00707D070BDD4E9012130469047206A8C
:1003F000401C20626D1EF6D570BD70B5044685693F
:100400000078C00707D170BDD4E9012120209047B2
:10041000206A401C20626D1EF6D570BD09684A0531
:1004200001D540B27047C905FCD500B270470968D4
:100430004A0501D5C0B27047C905FCD580B27047E6
:1004400070B50C460546012A05D02878800600D5EF
:10045000EA69002302E0012305E05B1C934202D21B
:10046000E05C0028F9D1A869E618C01AA861286ADA
:10047000184428622846FFF7AAFF04E0D5E90121C5
:1004800014F8010B9047B442F8D32846FFF7B5FFA4
:1004900070BD00002DE9F041064600241068752962
:1004A000314616A510D0FFF7B9FF002802DA404206
:1004B00013A507E031688A0701D512A502E04907B4
:1004C00004D511A5012401E0FFF7B1FF00210A22A4
:1004D00006F1240709E0B0FBF2FCB0FBF2F302FBEB
:1004E0001C00303078541846491C0028F3D12346AC
:1004F0002A463046BDE8F04100F061BA0000000035
:100500002D0000002B000000200000001168026890
:10051000006A530501D508700AE0D30501D50880AB
:1005200006E0130603D5C217C1E9000200E0086027
:100530000120704701694A1C02610878704700B5C4
:100540008FB0CDE901310021059105497944CDE90C
:1005500003101146684600F029F90FB000BD0000F5
:10056000E5FFFFFF0A6802F8010B0A607047000010
:100570002DE9FF5F15468A460446DFF8AC80F84453
:100580000027D8E900103E46CDE9001010E03AF807
:1005900016106A4602A800F0A6FC411C07D021787C
:1005A000890603D5E269391891420DD80744761CB3
:1005B0002078800602D5E069B84205DDAE42E6DB70
:1005C0003AF816000028E2D1A069C01BA0612046BD
:1005D000FFF7FDFED8E90010CDE90010002017E07C
:1005E0003AF818106A4602A800F07DFCB0F1FF3F0F
:1005F00081460BD000250DF1080B05E0D4E901215F
:100600001BF8050090476D1C4D45F7D308F101001C
:10061000B0428046E4DB206A384420622046FFF77F
:10062000ECFEBDE8FF9F0000A26E00002DE9F04146
:100630008046D21D22F007020025D2E90002F529EA
:1006400015A614D0011E72F1000106DA0023D0EBCA
:10065000030063EB020211A608E0D8F800108B0734
:1006600001D50FA602E0490701D50EA601251146C6
:10067000002408F1240704E000F05CF930323A5518
:10068000641C50EA0102F7D12B463246214640460F
:10069000BDE8F04100F093B9000000002D0000001B
:1006A0002B0000002000000030B4002100F12404E1
:1006B00008E002F00705D208303542EA4372DB0851
:1006C0006554491C52EA0305F3D10468002310A2C3
:1006D000250707D5A40600D421B1C46901230DA2C2
:1006E000641EC46130BC00F06AB910B504462146EE
:1006F0001068FFF79CFE02462046BDE8104000232C
:10070000D2E7D21D22F00701D1E90023CCE7000097
:100710000000000030000000F0B40D46018809051B
:1007200002D5214C7C4402E01F4C7C440E34002155
:1007300000F1240608E002F00F071209E75D42EA23
:1007400003721B097754491C52EA0307F3D102785C
:100750000023120704D5702D06D009B102231134ED
:100760002246F0BC00F02BB901231034F8E770B535
:1007700004460D4621461068FFF759FE02462946F9
:100780002046BDE870400023C6E7D21D22F00703D3
:10079000D3E90023C0E70368126843F02003036035
:1007A0000823C3610023B7E7046D00002DE9F05F63
:1007B000894604464FF0000ADFF874B1FB44C0F8E4
:1007C00020A02046E1688847002874D0252806D05C
:1007D000D4E901219047206A401C2062F1E70026FD
:1007E0005F462046E16888472028054607DB312D13
:1007F00005D2781910F8200C08B10643F1E7B007CC
:1008000001D526F00406C4F81CA00027C4F818A0DF
:100810002A2D09D0284604F0BDFA38B304EB870826
:10082000303DC8F8185019E059F8041B204604EB75
:1008300087029161E1688847012F054618D1E06978
:10084000002820DA26F020061DE0D8F8180000EB7A
:10085000800005EB40003038C8F818002046E168F9
:100860008847054604F096FA0028EED1012F0AD0F9
:100870002E2D08D12046E16888477F1C0546022FAF
:1008800046F02006C4DBA069002803DA404246F0A7
:100890000106A061F00701D026F010066C2D0BD0E8
:1008A000682D09D04C2D39D06A2D35D0742D35D016
:1008B0007A2D33D016E038E0E1682F46204688478D
:1008C000B842054609D16C2F26D04FF48060E1680C
:1008D000064320468847054604E06C2F1AD04FF4A3
:1008E000807006430DB3A5F14100192802D82035C8
:1008F00046F400664A462946204626604E46FFF7E3
:1009000075FC80B101280BD0F61D26F0070000F120
:10091000080956E74020E4E78020D8E70020D6E722
:1009200006F104094DE7284652E7206ABDE8F09F2A
:10093000946C000030B5B0F10A024FEA900E71F1EC
:1009400000034EEA817EB0EB0E0061EB91014FEAAD
:10095000101E4EEA017E10EB0E0041EB11114FEA22
:10096000102E4EEA016E10EB0E0041EB11214FEA02
:10097000104E4EEA014E10EB0E0041EB11414018B3
:1009800041F100014FEAD00040EA41704FEAD10145
:1009900010EB80054FEA810444EA907444EB0104B3
:1009A0006D1944EB0404521BA3414FF0000348BFF0
:1009B0000A3200D530BD401C41F1000130BD2DE9A7
:1009C000F0470D4699469246044600F12408016816
:1009D000880604D5E06921F01001216000E00120C3
:1009E000A84201DD471B00E00027A1697A1902EB4C
:1009F0000900081AA0612078C00602D42046FFF73B
:100A0000E6FC002608E0D4E901211AF80600904728
:100A1000206A401C761C20624E45F4DB2078C0061C
:100A20000AD52046FFF7D3FC06E0D4E901213020A7
:100A30009047206A401C2062381EA7F10107F4DCB1
:100A400007E0D4E9012118F805009047206A401C0E
:100A50002062281EA5F10105F3DC2046FFF7CDFC3E
:100A60002078000602D50220BDE8F0870120FBE7D0
:100A700070472DE9FF4F0C461E464FF0FF378BB0F5
:100A8000D2E90001DDF860800A908A46C1F30A5578
:100A900005B93D46002108464FF00000BAF1000FAD
:100AA00000F4400005DA00EB80004FF4400101EA59
:100AB00050004FEA9059B9F1010F00DDB9460A988C
:100AC00050EA4A000ED044F61050A5F2FF354543D7
:100AD0002F14B8F1000F1ED07542291E1EDDC9F17A
:100AE00000021CE0B8F1010F4FF0000001D03021EE
:100AF00003E0F24305E02154401CB042FBDB3046EA
:100B00000022002121540B99C1F80880C1E900207E
:100B10000FB0BDE8F08FBD1B6D1CDEE74A4600DA62
:100B2000694206A800F070FA06AB93E8070003AB31
:100B300083E8070050460A9900F02DFB8DE8070076
:100B4000A0F500501F3800900398002D0ADD42F2F6
:100B50001F014A460844002303A90390684600F099
:100B600096FD09E0A0F500504A461F38002303A96E
:100B70000390684600F0A0FD8DE807000004000C1B
:100B800003D04FF0FF30410800E01046B8F1000FED
:100B900003D00022009215461EE0751E05D4FFF713
:100BA000C9FE303262556D1EF9D5B34601220843A5
:100BB00002D000227F1C04E02078302801D10022DE
:100BC0007F1E002A099784D01DE0112D07DAFFF758
:100BD000B1FE303262556D1C50EA0102F5D1084376
:100BE00002D00098C8B10EE00021681E05E0235C29
:100BF000625C63542254401E491C8142F7DBAB46C1
:100C0000A81B401E0990002004F80B000B98099ABD
:100C1000C0F80880C0E9002B7AE711264FF00008E1
:100C200057E72DE9F04F88460446D21D22F0070110
:100C300091B0D1E90001CDE90A0104F097F802462C
:100C40000B98C00F01D02D2007E02068810701D547
:100C50002B2002E0202101EAC000032A099001D0E4
:100C6000072A05DB03464146204600F08DF90BE1DB
:100C70002078800601D5E06900E00620B8F1650F14
:100C8000814606D0B8F1660F18D0B8F1670F70D161
:100C900031E00020B9F1110F009001DB112301E0D8
:100CA00009F101030AAA01A90CA8FFF7E2FEDDE998
:100CB0000C70002609F10105834647E001204B46F0
:100CC00000904FF000470AAA01A90CA8FFF7D1FE37
:100CD000DDE90DB00C995D46002610B909F101005F
:100CE0000D18B9EB050003D4C0F1FF3609F1010579
:100CF000A5EB09002BE0B9F1010F01DA4FF0010972
:100D00000020B9F1110F0090484601DD112300E0E9
:100D100003460AAA01A90CA8FFF7ABFEDDE90C7097
:100D20004D4600268346207800070AD4AB4500DAFA
:100D30005D4601A8012D04DD411911F8011C30297F
:100D400007D04F4502DA17F1040F04DA012082467A
:100D50000FE06D1EEEE7002F02DCED1B3E4403E0CA
:100D6000781CA84200DD7D1CB81B00F1010A4FF081
:100D700000472078000703D4AA4501DB4FF0FF3A73
:100D80000021B7F1004F0DF143088DF8431024D036
:100D900002202B23002F01DA7F422D230A21021E7D
:100DA000A0F1010000DC5FB197FBF1FC97FBF1F2D1
:100DB00001FB1C7C17460CF1300C08F801CDEEE766
:100DC000A8F1010003702188090501D5452100E043
:100DD0006521A0F1010800F8011C09980FA9A1EBF9
:100DE0000807FF1D00B10120411901EBEA70A1695C
:100DF0003844081A401EA0612078C00602D420465C
:100E0000FFF7E5FA099828B1D4E901219047206A53
:100E1000401C20622078C00622D52046FFF7D7FA72
:100E20001EE0002E04DBB34502DD01A8805D00E07A
:100E30003020D4E901219047206A401C2062761CB2
:100E4000AAF101005FEA000A0AD100F099F8C0682F
:100E50000168405CD4E901219047206A401C20626F
:100E6000281EA5F10105DCDC07E0D4E9012118F812
:100E7000010B9047206A401C2062381EA7F1010731
:100E8000F3DC2046FFF7B9FA032011B041E610B5B4
:100E9000436913B1AFF3008001E0FFF7D1FA0120FD
:100EA00010BD127800F124010A7000224A7001225C
:100EB000EDE711684FF0FF32E9E710B5436913B170
:100EC000AFF3008001E0FFF753FB012010BD128853
:100ED00000F1240182840022C2840122EDE711681E
:100EE0004FF0FF32E9E770B516460C46054600F0B4
:100EF0003FF8036893F80101012806D0FF2C0FD8B2
:100F0000185D68B101202C7070BDD3F8070132461E
:100F1000214603F2071303442846BDE870401847F2
:100F20004FF0FF3070BD754600F0EAF8AE460500A0
:100F30006946534620F00700854618B020B5FFF7F4
:100F4000CDF9BDE820404FF000064FF000074FF00C
:100F500000084FF0000B21F00701AC46ACE8C009D7
:100F6000ACE8C009ACE8C009ACE8C0098D467047E0
:100F700010B500F005F8001D10BD00BF05460000CB
:100F8000004870473C2B00202DE9F0411F460446E5
:100F900003260168072A01F4006004DB08B116A5E6
:100FA00005E016A503E008B115A500E015A521F0A0
:100FB00010002060A069C01EA0610FB1401EA0619A
:100FC0002046FFF704FA4FB1D4E901213846904793
:100FD000206A401C2062C01C206206E0206AFAE7FA
:100FE000D4E9012115F8010B9047761EF8D220466E
:100FF000FFF703FABDE8F0814E414E006E616E00CE
:10100000494E4600696E66002DE9F0478146164656
:101010008AB0354878440DC88DE80D0032487844D0
:10102000801C03AC0DC884E80D0041F69B300844D9
:10103000372190FBF1F290FBF1F5A5F1800501FB62
:1010400012041B3C02D56442012000E00020DFF8BE
:1010500098A080460027FA44AAF1BE0A0EE0E007F5
:101060000AD03246684607EB470101230AEB8101AB
:1010700000F022FB8DE8070064107F1C002CEED1ED
:10108000194F7F44AE3F19E0E80715D007EB041075
:101090000DF1180A90E80E008AE80E00C068F042D0
:1010A00001D1981908903246012306A903A800F03F
:1010B00003FB03AB83E807006D10641C002DE3D134
:1010C0004FF0010332466946B8F1000F03A802D081
:1010D00000F0DDFA01E000F0EFFAC9E90001C9F81B
:1010E00008200AB0BDE8F087CC64000010B50446C3
:1010F000AFF300802046BDE81040FFF7DAB80000EB
:10110000004870471C2B00204FF0013C50F8042B86
:1011100051F8043B9A4221D1A2EB0C03934313EA0A
:10112000CC1317D150F8042B51F8043B9A4215D137
:10113000A2EB0C03934313EACC130BD150F8042B0E
:1011400051F8043B9A4209D1A2EB0C03934313EAF2
:10115000CC13DBD04FF00000704700BFD01A01BAAB
:10116000B1FA81F101F0180122FA01F0CB40C1F18E
:101170002001DBB2C0B2C01A2CFA01F3D11A91439C
:1011800011EAC311E6D1704701491820ABBEFEE752
:101190002600020070475FEA400C08BF91F0000F84
:1011A0004FEA8C234FEAC12243EA51514FEA1C50C7
:1011B00018BF00F5F0404FEA300018BF41F0004181
:1011C0005FEA6C5C00F02980BCF1FF3F08BF40F093
:1011D00080407047130C06BF12044FF0100C4FF004
:1011E000000C130E04BF12020CF1080C130F04BF05
:1011F00012010CF1040C930F04BF92000CF1020CCD
:10120000D30F04BF52000CF1010C11464FF0000245
:10121000A0F11F00A0EB0C00704711F0004F08BFB9
:10122000704731F000413FF4D5AF0B0C06BF090405
:101230004FF0100C4FF0000C0B0E04BF09020CF124
:10124000080C0B0F04BF09010CF1040C8B0F04BF39
:1012500089000CF1020CCB0F04BF49000CF1010C0A
:10126000CCF12003A0EB0C0022FA03F302FA0CF2FB
:1012700041EA030100F10100704720F07F4C80EA51
:10128000030023F07F47ACEB070303F57C5300F02A
:10129000004003F1FF032DE980494FEA154B09B4E3
:1012A0004FEA144325EA0B4E24EA03480FF20426C2
:1012B00006EB132749083E785FEA320203FB066714
:1012C000C7F5000707FB06F64FEA54374FEAD64644
:1012D00006F1020607FB066CCCF1005C4FEA1C47E6
:1012E0002CEA074C07FB06F40CFB06F504EB15464D
:1012F0004FEA961634BF00204FF000404FEAD13736
:1013000006FB07FC4FEA1C4C0CFB0BF7D21B03FB44
:101310000CF761EB07010CFB0EF7B0EB074072EB2B
:1013200017420CFB08F734BFA2EB0742B2EB0742AF
:1013300061EB17414FEA0C444FEA910706FB07FCAB
:101340004FEA1C4C0CFB0BF7B0EBC74072EB57326B
:1013500003FB0CF734BFA2EBC742B2EBC74261EB11
:1013600057310CFB0EF7B0EBC70072EB57720CFB5A
:1013700008F734BFA2EBC702B2EBC70261EB5771AB
:10138000039F4FEA816141EA921104EBCC044FEADA
:10139000D1374FEA826206FB07FC42EA90124FEA1D
:1013A00080604FEA1C4C0CFB0BF7D21B03FB0CF7C5
:1013B00061EB07010CFB0EF7B0EB074072EB174235
:1013C0000CFB08F734BFA2EB0742B2EB074261EB1C
:1013D00017414FEA8C554FEA910704EB9C2406FB1A
:1013E00007FC4FEA1C4C0CFB0BF7B0EBC74072EB51
:1013F000573203FB0CF734BFA2EBC742B2EBC74234
:1014000061EB57310CFB0EF7B0EBC70072EB577274
:101410000CFB08F734BFA2EBC702B2EBC70261EBCB
:10142000577115EB4C254FEA816141EA92114FEA61
:1014300082624FEAD13742EA901206FB07FC44F180
:1014400000044FEA80604FEA1C4C0CFB0BF7D21BE8
:1014500003FB0CF761EB07010CFB0EF7B0EB074049
:1014600072EB17420CFB08F734BFA2EB0742B2EB5A
:10147000074261EB174115EB1C154FEA813141EA38
:1014800092414FEA823242EA90424FEA80304FEA7C
:101490000C7644F1000448EA03434EEA0B484FF04F
:1014A000000EB2EB080C71EB030724BF624639460D
:1014B0004EEB0E0E4FF0000B0018524149414BEB22
:1014C0000B0BB2EB080C71EB03077BF1000B24BF95
:1014D000624639464EEB0E0E4FF0000B001852419B
:1014E00049414BEB0B0BB2EB080C71EB03077BF1A3
:1014F000000B24BF624639464EEB0E0E51EA02073E
:1015000018BF46F0010616EB0E7655F1000254F1B5
:10151000000103D5BDE88901BDE80088BDE8890167
:10152000BDE80048B619524141EB0101A3F10103A6
:10153000704780807F7E7D7C7B7A79787776767540
:101540007473727171706F6E6E6D6C6C6B6A6A69B8
:101550006868676666656464636362616160605F52
:101560005F5E5E5D5D5C5C5B5B5A5A5959585857CB
:101570005756565555555454535352525251515033
:1015800050504F4F4F4E4E4D4D4D4C4C4C4B4B4B86
:101590004A4A4A49494948484847474747464646CC
:1015A0004545454444444443434343424242424107
:1015B0004141002B9C4630D477002BD01CB54FEA1C
:1015C000370703B44FF010004FF01001BAF1000FCD
:1015D00006D0BCF1000FDCBF40F0080040F008016D
:1015E0004FF000000FBCBDE810400BF1010BBBF148
:1015F000010F08BF5FEA170722BF12F1010211F1C4
:1016000001014FF0004143F1000300F0004043EAC4
:1016100000007047F9D35708D0E746EA064613F1B1
:10162000400F4FEA16461FDD13F1200FDFBF1643B0
:101630000A46002120335B42BED0C3F1200746EAB0
:10164000064602FA07F74FEA164646EA0706C3F1CE
:10165000200722FA03F201FA07F721FA03F14FF00B
:10166000000342EA0702A7E746EA020646EA064600
:101670004FEA164646EA0106BCBF46EA0646360C65
:101680004FF000034FF000024FF0000194E72DE906
:10169000804C9A46934670B491E8380007C831EA06
:1016A000400C48BF34EA430C03D5FFF7E6FDFFF7D3
:1016B00080FFF0BCBDE8008C2DE9804C9A46934633
:1016C00070B491E8380007C810F0804F08BF13F0DD
:1016D000804F03D100F005F8FFF76BFFF0BCBDE8C9
:1016E000008C20F07F4780EA030023F07F4C07EB5B
:1016F0000C03A3F57C5300F00040A3F1FE0392F02D
:10170000000F00F0B38095F0000F00F077802DE916
:1017100001494FEA11404FEA144621EA004800FB14
:1017200006FC24EA064708FB06F607FB08F800FB60
:1017300007F718EB06484CEB164C4FEA124B18EB28
:1017400007484FEA15464CEB174022EA0B4E0BFBBD
:1017500006FC25EA06470EFB06F607FB0EFE0BFB12
:1017600007F71EEB064E4CEB164C4FF000061EEB37
:10177000074E4CEB174B18EB0B0840F1000018EB31
:101780000E0B58EB000840F100008F1A4FF00001DB
:101790003CBFC943661B14BFB5EB040C00213CBF22
:1017A000C943F61B4FEA17444EEA8E0E27EA04455A
:1017B0004FEA1C4704FB07622CEA074C05FB07F7BE
:1017C0000CFB05F604FB0CFC16EB074642EB17423C
:1017D00016EB0C4642EB1C421BEB060658EB0202D2
:1017E000414146EA9E0601D5BDE80189B61952413C
:1017F00041EB0101A3F10103BDE801894FEA144562
:101800004FEA114724EA054621EA074C05FB07F495
:1018100006FB07F70CFB06F105FB0CFC11EB07417F
:1018200044EB17444FEA124711EB0C4144EB1C44C4
:1018300022EA074C05FB07F206FB07F70CFB06F64E
:1018400005FB0CFC16EB074642EB174216EB0C4669
:1018500042EB1C456A1854F1000148BF7047B619A5
:10186000524141EB0101A3F10103704795F0000FD4
:1018700037D04FEA11424FEA144721EA024624EAE0
:10188000074C02FB07F106FB07F70CFB06F402FB13
:101890000CFC14EB074441EB17414FEA154714EBDE
:1018A0000C4441EB1C4125EA074C02FB07F506FB03
:1018B00007F70CFB06F602FB0CFC16EB074645EBA4
:1018C000174516EB0C4645EB1C42121951F100016D
:1018D00048BF7047B619524141EB0101A3F1010322
:1018E00070474FEA14454FEA114724EA054621EABA
:1018F000074C05FB07F106FB07F70CFB06F24FF060
:10190000000605FB0CFC12EB074241EB174112EB02
:101910000C4251EB1C4148BF7047921841EB01014A
:10192000A3F101037047000000B591B001214FF40D
:10193000037002F02FF90121084602F0FBF878202D
:10194000ADF8000000208DF8030069464A4800F019
:101950006AFE0320ADF8000000208DF80300694600
:10196000464800F060FE00200C9001208DF8340005
:101970008DF835004FF460200E9000200F90082065
:101980008DF840000CA93E4800F0AAF8012000F0B4
:1019900041F9072301221021394800F0C9F8072333
:1019A00002221121364800F0C3F807230322114612
:1019B000334800F0BDF8072304221146304800F0F8
:1019C000B7F80723052211462D4800F0B1F8072388
:1019D000062211462A4800F0ABF807231A460821D0
:1019E000274800F0A5F8072308220921244800F021
:1019F0009FF80121224800F049F8214800F0F4F84E
:101A000000BF1F4800F062F80028FAD11C4800F01F
:101A1000FBF800BF1A4800F04FF80028FAD1012166
:101A2000174800F0E6F80121154800F03AF815488B
:101A300000F05CF912484C300190134802900020ED
:101A400003905020049000200590802006904000D4
:101A50000790800008902020099000020A90002042
:101A60000B9001A9074800F0F0F90121054800F0AA
:101A700031F911B000BD000000080140000C014028
:101A800000240140080002405C16002021B1826859
:101A900042F00102826003E0826822F0010282606B
:101AA000704721B1826842F48072826003E08268EC
:101AB00022F4807282607047014600208A6802F03A
:101AC00004020AB1012000E0002070470146002016
:101AD0008A6802F008020AB1012000E00020704785
:101AE00030B502460020002350680F4C20400D798D
:101AF0000C6844EA05242043506090680B4C204059
:101B0000D1E902542C434D7944EA450420439060C6
:101B1000D06A20F470000C7C641EE4B2234340EAD7
:101B20000350D06230BD0000FFFEF0FFFDF7F1FF73
:101B3000F0B504460D4600200021092D11DDE068B6
:101B4000A5F10A0606EB4607072606FA07F18843C1
:101B5000A5F10A0606EB460603FA06F10843E06023
:101B60000CE0206905EB4507072606FA07F18843D4
:101B700005EB450603FA06F108432061072A0FDA50
:101B8000606B561E06EB86071F2606FA07F1884390
:101B9000561E06EB860605FA06F10843606322E04E
:101BA0000D2A0FDA206BD61F06EB86071F2606FAD2
:101BB00007F18843D61F06EB860605FA06F10843AF
:101BC000206310E0E06AA2F10D0606EB86071F26EF
:101BD00006FA07F18843A2F10D0606EB860605FA20
:101BE00006F10843E062F0BD816841F008018160C0
:101BF000704721B1826842F4A002826003E08268EB
:101C000022F4A00282607047816841F00401816083
:101C10007047000030B10749096841F40001054AE6
:101C2000116005E00349096821F40001014A1160CF
:101C3000704700000824014000BFFEE738B50446A5
:101C4000012C0DD10620ADF8000018208DF80300FE
:101C500003208DF802006946084800F0E4FC0CE01F
:101C60000620ADF8000010208DF8030003208DF849
:101C700002006946014800F0D6FC38BD000801406A
:101C800070B50025FEF73CFB04460A48007808B909
:101C9000012000E00020074908700846007803F0A2
:101CA000D9FB4FF4003000F007F82046FEF72CFB7C
:101CB00070BD00002A04002000F0805111B10349DA
:101CC000086001E0024948607047000004040240D7
:101CD0000000024021B1026842F00102026004E00B
:101CE00002684FF6FE731A400260704701684FF6B3
:101CF000FE72114001600021016041608160C1609D
:101D00004B49884208D14A490839496841F00F01D6
:101D1000474A083A51608AE045491431884208D15F
:101D200043490839496841F0F001414A083A516095
:101D30007DE03F492831884208D13D49083949684A
:101D400041F470613A4A083A516070E038493C31D8
:101D5000884208D136490839496841F47041344A0B
:101D6000083A516063E032495031884208D1304925
:101D70000839496841F470212D4A083A516056E00B
:101D80002B496431884208D129490839496841F40E
:101D90007001274A083A516049E025497831884264
:101DA00008D123490839496841F07061204A083A4E
:101DB00051603CE01F49884206D1011F096841F08B
:101DC0000F01021F116032E01A491431884208D114
:101DD0001849091F096841F0F001164A121F1160E5
:101DE00025E014492831884208D11249091F0968A1
:101DF00041F470610F4A121F116018E00D493C3127
:101E0000884208D10B49091F096841F47041094A09
:101E1000121F11600BE007495031884207D1054974
:101E2000091F096841F47021024A121F11607047AE
:101E300008000240080402401AB103680B43036023
:101E400002E003688B430360704710B5002202680C
:101E500047F6F0739A430C6A8B6823430C6923435B
:101E60004C6923438C692343CC6923434C6A234345
:101E70008C6A23431A430260CB6843600B6883601B
:101E80004B68C36010BD704708B50121042001F004
:101E900081FE03208DF8020048208DF803004FF4E6
:101EA0000060ADF800006946014800F0BCFB08BDC9
:101EB0000008014070B50646B72413E0204601F043
:101EC000A1FF102001F09EFF002001F09BFF0025E4
:101ED00004E0304601F060FF681CC5B2842DF8DBD9
:101EE000601EC4B2B02CE9DA70BD00002DE9F843E1
:101EF00005460E460024691C88B2694600F008FABF
:101F00000746BDF80000204404046946284600F056
:101F1000FFF90746BDF800000444204604F084F9A8
:101F20008046034904F09EF83060F8B2BDE8F883BB
:101F300000401C462DE9F04704460E4642F2107858
:101F4000404604F089F98246314604F0CDF98146D5
:101F500004F04AF90546AFB23946204600F074FA5B
:101F60004FF6FF7000EA1547611C88B2394600F051
:101F70006BFABDE8F08700000346062106221248EE
:101F8000018812480288ABB1012B1BD13AB94EF639
:101F9000EE60814201D1002070470120FCE739B991
:101FA0004EF6EE60824201D10120F5E70020F3E712
:101FB000AB20F1E709B90020EEE70AB90120EBE711
:101FC000AB20E9E70020E7E700E0000800F00008A8
:101FD00010B504240B4800F09DFA0446042C01D0EF
:101FE000204610BD0021074800F0DEFA0446042C0C
:101FF00001D02046F5E7044800F08CFA044620465C
:10200000EFE7000000E0000800F000082DE9F047CD
:102010004FF0060A062600250027A8464FF0FF3994
:102020007448B0F800A074480688BAF1000075D072
:10203000A0F56E40EE3858B3A0F58850113800284E
:102040006DD146B96B4800F065FA0446042C1ED0E9
:102050002046BDE8F0874EF6EE60864210D1654816
:1020600000F058FA0446042C01D02046F1E7002184
:10207000614800F099FA0446042C08D02046E8E7AD
:10208000FFF7A6FF0446042C01D02046E1E7ADE0AF
:102090007EBB002522E05748C088584931F815100A
:1020A000884201D10FFA85F94D4515D0534931F8D1
:1020B0001500534900F05EF98046B8F1010F0BD0CE
:1020C0004E4931F815004E49098800F085F9074658
:1020D000042F01D03846BCE7681C85B2642DDADBDA
:1020E0000021444800F060FA0446042C02D0204647
:1020F000AFE707E0404800F00DFA0446042C1FD07B
:102100002046A6E74FF6FF70864212D13A4800F00B
:1021100001FA0446042C03D020469AE711E05DE062
:102120000021344800F040FA0446042C08D0204630
:102130008FE7FFF74DFF0446042C01D0204688E7C7
:1021400054E036B9FFF744FF0446042C45D020463E
:102150007FE74FF6FF70864207D1274800F0DAF993
:102160000446042C39D0204673E7002522E022489B
:10217000C088224931F81510884201D10FFA85F93B
:102180004D4515D01D4931F815001D4900F0F2F8F4
:102190008046B8F1010F0BD0184931F815001849E5
:1021A000098800F019F90746042F01D0384650E796
:1021B000681C85B2642DDADB00210F4800F0F4F9C9
:1021C0000446042C01D0204643E70A4800F0A2F957
:1021D0000446042C01D020463BE707E0FFF7F8FE59
:1021E0000446042C01D0204633E700BF00BF042082
:1021F0002FE7000000E0000800F00008BC670008BE
:10220000680400202DE9F84F80468A4604253A48A4
:1022100000903A4E4FF00009002400274FF0000BC9
:102220000020FFF7A9FE8146B9F1010F03D1344820
:102230000090344E09E0B9F1000F03D1314800900D
:102240002F4E02E0AB20BDE8F88F4EF6EE6100980D
:1022500000F0AAF90546042D01D02846F3E75146BF
:10226000404600F0B9F80746042F01D03846EAE7A7
:1022700000241CE0244830F81400404515D02249C1
:1022800031F81400214900F075F88346BBF1010FC5
:102290000BD01D4931F814001C49098800F09CF846
:1022A0000746042F01D03846CDE7601C84B2642C69
:1022B000E0DB304600F02EF9054606F5806000F0C0
:1022C00029F9054606F5006000F024F9054606F5F3
:1022D000406000F01FF90546042D01D02846B2E702
:1022E0000021009800F060F90546042D01D0284631
:1022F000A9E72846A7E70000FF030108000001083E
:1023000000E0000800F00008BC6700086804002036
:102310002DE9F04706460F46002445F255584FF088
:102320000109124DAA460020FFF726FE0446AB2CF9
:1023300001D1BDE8F0870E4800EB043A601C0C495F
:10234000891E01EB00350AE0B5F80080B04505D1E3
:1023500035F8020C38804FF0000904E02D1F0AF117
:1023600002008542F0D800BF4846E2E700000108BD
:1023700000E000082DE9F04706460F46002445F22C
:1023800055584FF00109124DAA460020FFF7F4FD01
:102390000446AB2C01D1BDE8F0870E4800EB043AAF
:1023A000601C0C49891E01EB00350AE0B5F800807D
:1023B000B04505D135F8020C38804FF0000904E033
:1023C0002D1F0AF102008542F0D800BF4846E2E71F
:1023D0000000010800E000082DE9F04706468846A5
:1023E00004270025154CDFF858900120FFF7C4FDA5
:1023F0000546AB2D01D1BDE8F087124800EB05344E
:10240000681C1049891E01EB003913E02068401C4C
:1024100078B94146204600F0C7F80746042F01D09E
:102420003846E8E73146A01C00F0BEF807463846BB
:10243000E1E7241D4C45E9D38020DCE700000108DA
:10244000FF07010800E0000870B505460E460024AD
:1024500031462846FFF7C0FF0446802C04D13146A0
:102460002846FFF7CFFE0446204670BD70B5002415
:10247000FDF746FF05460B480078401C09490870E7
:102480002846FDF741FF4FF4805000F02FF818B1B7
:102490004FF4805000F024F802480078401E0149B3
:1024A000087070BD9D04002010B5FDF729FF04469B
:1024B0000A480078401C094908702046FDF724FFAF
:1024C000082000F013F810B1082000F009F80348C4
:1024D0000078401E0149087010BD00009D040020D6
:1024E00001490860704700001404014001460020C3
:1024F0000022074B1B6803EA0102054B14331B68DB
:102500000B4013B10AB1012000E000207047000029
:102510000004014030B5044604254FF4302000F09B
:102520006FF80546042D17D10C48006940F00200F1
:102530000A49086108464461006940F040000861AA
:102540004FF4302000F05CF805460448006941F67D
:10255000FD71084001490861284630BD0020024055
:1025600004200B49C96801F0010109B101200EE006
:102570000749C96801F0040109B1022007E00449D4
:10258000C96801F0100109B1032000E00420704780
:10259000002002400348006940F0800001490861C2
:1025A000704700000020024070B504460D46042626
:1025B000F00200F025F80646042E11D10948006902
:1025C00040F00100074908612580F00200F018F88A
:1025D00006460448006941F6FE7108400149086159
:1025E000304670BD0020024002480349486003485D
:1025F000486070472301674500200240AB89EFCD5A
:1026000000B502460423FFF7ABFF034603E0FFF7E4
:10261000A7FF0346521E012B01D1002AF7D102B9B0
:102620000523184600BD2DE9F0410246002500268D
:10263000002000230024002791F803C00CF00F05B0
:1026400091F803C00CF0100CBCF1000F03D091F80E
:1026500002C04CEA050591F800C0BCF1000F31D072
:10266000146800202BE04FF0010C0CFA00F3B1F8D5
:1026700000C00CEA03069E4220D183004FF00F0CED
:102680000CFA03F7BC4305FA03FC4CEA040491F886
:1026900003C0BCF1280F06D14FF0010C0CFA00FC6E
:1026A000C2F814C00AE091F803C0BCF1480F05D18C
:1026B0004FF0010C0CFA00FCC2F810C0401C0828B6
:1026C000D1D31460B1F800C0BCF1FF0F34DD546801
:1026D00000202EE000F1080C4FF0010808FA0CF37E
:1026E000B1F800C00CEA03069E4221D183004FF0EE
:1026F0000F0C0CFA03F7BC4305FA03FC4CEA040484
:1027000091F803C0BCF1280F05D100F1080C08FABC
:102710000CF8C2F8148091F803C0BCF1480F07D13F
:1027200000F1080C4FF0010808FA0CF8C2F810800C
:10273000401C0828CED35460BDE8F081F0B50A46AD
:10274000002300240021002500F00046B6F1004FD0
:1027500002D11D4EF16901E01B4E7168C0F30345C3
:1027600083B200F44016B6F5401F08D121F0706125
:10277000154E766826F07066134F7E6012E000F406
:102780008016B6F5801F06D1032606FA05F4A1438C
:1027900041F0706106E0460D360103FA06F6B143DA
:1027A00041F0706122B1460D360103FA06F631435D
:1027B00000F00046B6F1004F02D1034EF16101E096
:1027C000014E7160F0BD0000000001400246002093
:1027D00093680B400BB1012000E00020704741617D
:1027E000704701617047000010B54FF40061024866
:1027F000FFF7ECFF10BD0000000801402DE9F0419B
:1028000000240025002600BF06E00F4800EB04105E
:1028100080880544601C04B20A2CF6DB0A20B5FB54
:10282000F0F500F039F9284603F016FD8046074818
:102830000168404603F058FD0746054903F012FCC5
:1028400006463046BDE8F0815C1600202C040020CE
:1028500079E9263E2DE9F04100240025002600BF3D
:1028600006E00F4800EB041040890544601C04B2E8
:102870000A2CF6DB0A20B5FBF0F500F00DF928462E
:1028800003F0EAFC804607480168404603F02CFD4F
:102890000746054903F0E6FB06463046BDE8F081F1
:1028A0005C1600202C0400201F9AE03B2DE9F84F15
:1028B0000024A146A246A34600BF06E0174800EB4D
:1028C0000410C0888144601C04B20A2CF6DB0A2084
:1028D000B9FBF0F9484603F0BFFC06461048016812
:1028E000304603F001FD05460E480168284603F016
:1028F000F9FD82460C49504603F0B4FB009003F00A
:1029000017FB0746094A0A4B02F036FF054602F05C
:102910004DFE82465046BDE8F88F00005C16002050
:102920002C04002060040020000020417B14AE47EE
:10293000E17A743F2DE9F04F8BB00024A146A24606
:10294000A34600BF06E03A4800EB0410008981442A
:10295000601C04B20A2CF6DB0A20B9FBF0F94846E9
:1029600003F079F802460B46CDE906010020314913
:1029700002F002FF074600222F4B03F0EFF9024658
:102980000B46CDE9080100202C4902F0F5FE054672
:1029900002F00CFE82460FE0294951F8240051460E
:1029A00003F06EFC00D208E0601C04B2772C03D167
:1029B00024480BB0BDE8F08FEEE700BF204A52F884
:1029C0002410621E1E4B53F8220003F08BFD0746B5
:1029D00003F0AEFACDE90401611E194A52F8210054
:1029E000514603F07FFD019003F0A2FA0746002252
:1029F000114B03F07FF8CDE90201DDE9042302F079
:102A0000BBFECDE90801A4F1140003F00DF8CDE9F7
:102A10000601DDE9082302F0FBFD054602F0C6FDD4
:102A20008246504602F030FC82465046C1E7000024
:102A30005C1600200000B0400000F03F0000244081
:102A4000DC6500080000C8422DE9F04100240025A3
:102A50000026002700BF06E00C4800EB0410C088E9
:102A60000544601C04B20A2CF6DB0A20B5FBF0F525
:102A7000284603F0F1FB804605480168404603F014
:102A800033FC04490860BDE8F08100005C160020BA
:102A90002C040020600400202DE9F0470024A1460A
:102AA00000BF06E00E4800EB041040888144601C23
:102AB00004B20A2CF6DB0A20B9FBF0FA504602F009
:102AC000CAFF07463A460B464FF03330054902F03D
:102AD00053FE054602F06AFD03490860BDE8F08731
:102AE0005C1600203333F33F2C04002000BFFEE7C8
:102AF00008B50121082001F04DF80121084601F038
:102B000049F801212448FFF719FE0820ADF800001C
:102B100003208DF8020010208DF8030069461F483D
:102B2000FFF781FD1020ADF8000003208DF80200B2
:102B300010208DF8030069461848FFF774FD202027
:102B4000ADF8000003208DF8020010208DF803007E
:102B500069461248FFF767FD4FF48070ADF800003A
:102B600003208DF8020010208DF8030069460B4801
:102B7000FFF759FD4FF40070ADF8000003208DF809
:102B8000020010208DF8030069460448FFF74BFD52
:102B900001F0A4F808BD000000023000000C014064
:102BA00010B504462CB94FF400510548FFF719FE43
:102BB00004E04FF400510248FFF711FE10BD000081
:102BC0000010014008B50121142000F0E3FF0320AC
:102BD0008DF8020010208DF803004002ADF80000CF
:102BE00069461048FFF71FFD4FF48040ADF8000024
:102BF00069460C48FFF717FD4FF40040ADF80000A0
:102C000069460848FFF70FFD4FF400410548FFF7FC
:102C1000E8FD8020ADF8000069460348FFF703FD9A
:102C200008BD0000001001400008014000BFFEE7A1
:102C30007047000070B5002100230F22C47804B350
:102C4000154C246804F4E064C4F5E064210AC1F181
:102C50000403CA40447804FA03F184781440214301
:102C600009010E4C0678A155047804F01F050124D3
:102C7000AC4005786D11AD0005F1E025C5F80041C7
:102C800009E0047804F01F050124AC40044D0678E7
:102C9000761145F8264070BD0CED00E000E400E040
:102CA00080E100E002490143024A116070470000E0
:102CB0000000FA050CED00E010B500F011F800F08E
:102CC00073FC00F09BFC00F0BBFC00F03DFC00F04E
:102CD0000FFC00F0F3FC00F019FD00F002F810BD4D
:102CE0007047704710B500241A480078012830D189
:102CF000FDF706FB04461848007820B11648007816
:102D0000401E1549087014480078F8B91348007837
:102D1000E0B900F067FD12481249097850F8210027
:102D2000114908600F4800781049097888420DD091
:102D30000D480068C06B401C0B490968C8630C480B
:102D40000068401C0A490860FDF7F6FA2046FDF7C6
:102D5000DBFA10BDA70400209D0400209E04002083
:102D600008230020A0040020B80400209F040020B5
:102D70008404002070B5054600261048007808B18C
:102D8000002070BDFDF7BCFA06460D4804680068D7
:102D900020B10B4800684068094908603046FDF7DB
:102DA000B3FA4CB10320207025810020606005A09B
:102DB0002061204600F08EFB2046E2E79D040020C3
:102DC000880400203F00000070B5044600252078EC
:102DD000032801D0012070BDFDF792FA0546A07AC4
:102DE00060B1002301221946204600F0F9FA284676
:102DF000FDF78AFA00F0BCFC0020ECE720894FF6D2
:102E0000FF71884207D22089401C20812846FDF7A7
:102E10007BFA0020DFE72846FDF776FA3320DAE771
:102E200010B50B48007890B900F0DCFC0948007838
:102E30000949087009480749097850F821000849EC
:102E400008600846006807490860FDF760FA10BD91
:102E5000A7040020A00400209F04002008230020D5
:102E6000B8040020B004002010B50024022000F0B7
:102E7000A5F9FDF745FA044600200B4908602046F5
:102E8000FDF742FA142000F099F9FDF739FA0446EB
:102E9000054800680549086001200549087020467A
:102EA000FDF732FA10BD0000AC04002094040020AD
:102EB0009C040020704700002DE9F04F85B081464A
:102EC0008A4693461C46DDE90F78129D0020039048
:102ED000FDF716FA03902348007830B10398FDF708
:102EE00013FA3C2005B0BDE8F08F1F4850F82400CD
:102EF00088BB01201C4941F824000398FDF704FA1F
:102F00002A464146384600F093FD2B465A46514624
:102F1000484600F0AFF804901198CDE90080029582
:102F20003A4620460E9B049900F072FC064636B9DC
:102F30000E48007801280CD100F01AFC09E0FDF7DA
:102F4000DFF903900020084941F824000398FDF7B9
:102F5000DBF93046C6E7FFE70398FDF7D5F92820EF
:102F6000C0E700009D04002008230020A7040020E3
:102F7000704770472DE9F04106460F4614464FF062
:102F800000081548007818B112202070BDE8F081C3
:102F9000FDF7B6F98046FF2E03D11048006890F87F
:102FA00036600F4850F826502DB94046FDF7ACF971
:102FB00043202070EAE7012D05D14046FDF7A4F932
:102FC00043202070E2E72F654046FDF79DF9002081
:102FD000207000BFDAE700009D040020B00400204C
:102FE00008230020704700002DE9F04707460D46F2
:102FF0004FF0000A002028606860FDF781F98246E2
:10300000FF2F03D11948006890F83670184850F81F
:1030100027402CB95046FDF777F94320BDE8F087EB
:10302000012C04D15046FDF76FF94320F6E7207CD0
:1030300000F0010020B95046FDF766F94520EDE7A4
:103040000026D4F80C90D4F808805046FDF75CF9BF
:1030500000E0761C58F8041B0029FAD0B000286064
:10306000A9EB0600800068600020D7E7B0040020CC
:103070000823002070B5044610464FF080750560A7
:10308000051F28462C606FF00106051F28462E609C
:103090004FF01236051F28462E604FF00336051FED
:1030A00028462E604FF00236051F28462E60761007
:1030B000051F28462E60051F284629604FF011364F
:1030C000051F28462E604FF01036051F28462E603B
:1030D0004FF00936051F28462E604FF00836051FB1
:1030E00028462E604FF00736051F28462E604FF009
:1030F0000636051F28462E604FF00536051F284668
:103100002E604FF00436051F28462E6070BD00006B
:103110002DE9F04105464FF00008FDF7F1F8804633
:10312000FF2D05D12048006890F83650012608E0B0
:103130001D48006890F83600A84201D1012600E041
:1031400000261A4850F825402CB94046FDF7DCF817
:103150004820BDE8F081012C04D14046FDF7D4F8A9
:103160004320F6E794F838701148C05D94F83910A0
:1031700088430F49C8550846C05D30B994F83A10E5
:103180000C48007888430B49087094F8340040F0EC
:10319000080084F834004046FDF7B6F8012E01D14E
:1031A00000F0E6FA0020D4E7B00400200823002055
:1031B000A2040020A10400207047000070B505465D
:1031C00000261748007800B170BD1648007800B19D
:1031D000FAE71DB3FDF794F806461348006890F827
:1031E00038401248005D1049096891F83910884349
:1031F0000E4908550846005D40B90B48006890F834
:103200003A100B480078884309490870064800685E
:1032100005633046FDF778F800F0AAFA00BFD3E75F
:103220009D0400209E040020B0040020A204002081
:10323000A10400202DE9F04104460D4616461F4624
:103240001248007810B15520BDE8F0811048007890
:1032500008B13220F8E7B81CC82148434FF47A710E
:10326000B0FBF1F14FF461606043C5EB051200EB78
:103270008200304400EBC00202EB001001EBC008FA
:103280004046FFF79BFF0020DEE700009D04002082
:103290009E04002070B5002600F072F8FDF730F8AB
:1032A000064631480068401C2F4908603046FDF74B
:1032B0002BF82E480078012853D12D48007820B1F2
:1032C000012804D0022809D103E001250BE00025E4
:1032D00009E0012501202649087004E001250020AD
:1032E0002349087000BF00BF05B970BD21480468BC
:1032F00033E0FDF705F80646206B50B3206B401E07
:103300002063206B28BB94F8340000F0370040B1F4
:1033100014F8340F00F0C800207001206070343CB5
:1033200002E0002084F8350094F8340000F0080032
:1033300078B93834A0781049097808430E490870E4
:1033400020780E49085C6178084314F838190B4A54
:10335000505464693046FCF7D7FF94F836002028B3
:10336000C7D100BFC1E70000C4040020A7040020AB
:10337000C0040020BC040020A1040020A2040020FE
:103380007047000010B5FCF7BBFF04460648007804
:10339000401C054908702046FCF7B6FFFFF77AFF8E
:1033A000FFF7A0FC10BD00009D04002010B586B002
:1033B00001A800F00FFCC8210298B0FBF1F4601ED8
:1033C0004FF0E02148610846006940F005000861BF
:1033D0000846006940F00200086106B010BD000018
:1033E0002DE9F04F05460F4690469946A87A1C49AC
:1033F0000E5C05F10B00805D11F800B00BEBC60010
:1034000000F0FF0A174850F82A4000202434E060FA
:103410002760207C20EA0800207484F81190207C2A
:10342000243C00F0080068B994F83A000E49097885
:1034300008430D4908700D48805D94F83910084321
:103440000A4988552946204600F012F8206A20B122
:103450002046216A00F021F8E5615046BDE8F08F72
:103460002473000808230020A1040020A2040020E7
:1034700010B590F8382001F10B039B5C90F83940AF
:10348000A34301F10B04A35423469B5C23B98B7A1D
:1034900090F83A40A3438B7210BDF0B5024612F883
:1034A000384F95785678383A0B4618680FE000F197
:1034B0000B073F5DB74300F10B0C0CF80470674637
:1034C0003F5D17B9877AAF4387721B1D18680028C4
:1034D000EDD1F0BD014600228A72002005E00023F4
:1034E00001F10B021354421CD0B20528F7D37047E8
:1034F0002DE9F041A021114800F030F900250DE040
:10350000681C86B20D4800EB051400EB061700207E
:10351000207067600AA0E060681C85B2092DEFD3B7
:10352000064800EB051400202070606004A0E060F5
:10353000024804490860BDE8F0810000B81D002081
:103540003F0000008C04002070B54FF4C871134890
:1035500000F004F9002411E0601C85B204EB840043
:103560000E4901EB800305EB850001EB800600208E
:1035700018705E600AA01861601C84B2132CEBD333
:1035800004EB8400054901EB8003002018705860AB
:1035900003A0186108460349086070BD281C00207C
:1035A0003F0000008804002000200A4908600A4902
:1035B00008700A4908700A4908700A4908700A49DF
:1035C00008600A4908600A4908600A4908600A490F
:1035D00008707047C40400209D0400209E04002051
:1035E000A8040020A704002084040020AC040020CC
:1035F00098040020940400209C04002000210A4A22
:103600001170002004E00021084A1154411CC8B286
:103610000528F8D30021064A1170064A1170064A9F
:103620001160064A11607047A1040020A204002026
:103630009F040020A0040020B8040020B004002053
:1036400070B54FF4F261184800F088F884211748EB
:1036500000F084F8002413E0601CC5B204EB4400C1
:1036600000EBC400104901EBC00305EB450000EB83
:10367000C50001EBC0065E610DA01865601CC4B2F8
:10368000152CE9D304EB440000EBC400064901EB20
:10369000C0030020586106A0186500200549086095
:1036A00001480549086070BD8C23002008230020D4
:1036B0003F000000BC040020B404002000B587B027
:1036C0000320002196220A4BCDE90132CDE90310F7
:1036D0004FF6FF702023074A00900748FFF7ECFBE6
:1036E00006AA06A12020FFF745FC07B000BD000098
:1036F000B0200020042300204539000875432F4FD7
:10370000532D49492049646C6500000000B587B01D
:103710000320002196220A4BCDE90132CDE90310A6
:103720004FF6FE701F23074A00900748FFF7C4FBBF
:1037300006AA06A11F20FFF71DFC07B000BD000070
:10374000581E0020AC2000206D39000875432F4F13
:10375000532D4949205374617400000004E0002295
:1037600000F8012B4A1E91B20029F8D170470000E1
:1037700010B50024FCF7C4FD044613480078F8B9DE
:1037800012480078E0B900F02DF811481149097885
:1037900050F82100104908600E4800780F49097858
:1037A00088420DD00C480068C06B401C0A4909686B
:1037B000C8630B480068401C09490860FCF7B7FD66
:1037C0002046FCF7A1FD10BD9D0400209E040020B2
:1037D00008230020A0040020B80400209F0400203B
:1037E000840400200649074A1278885C0649095C6F
:1037F000034A515C01EBC001044A1170704700009C
:1038000024730008A1040020A2040020A0040020CA
:103810002DE9F84F05460F4690469946DDE90AAB7B
:1038200000200090FCF76CFD00903F480468002CDD
:1038300075D01C3454F8080C3B4908600098FCF71C
:1038400063FD44F81C7CA5760020207660766061DC
:1038500044F818BC44F810AC44F8148C0C9824F8C4
:103860000C0C24F80A9C0020E077E810207705F083
:103870000700E076217F01208840A077E17E0120CB
:1038800088406077002020606060E060A060206277
:10389000A0626062E062206324A060631C3C00269A
:1038A00006E0002104F1540040F82610701CC6B256
:1038B000002EF6D02046FFF7FDFA2046FFF758FB12
:1038C000FCF71EFD00901A4840F825401948006892
:1038D00060610020A0611748006810B115480068B9
:1038E0008461144804603834A07813490978084387
:1038F0001149087020781149085C6178084314F870
:1039000038190E4A50540E480078401C0C49087073
:103910000098FCF7F9FC0020BDE8F88FFFE700985D
:10392000FCF7F2FC4220F7E7B40400203F0000005F
:1039300008230020BC040020A1040020A2040020D1
:10394000A8040020002400BF00BFFCF7D9FC0446F7
:1039500005480068401C044908602046FCF7D4FC78
:10396000FFF707FBF1E70000AC040020002400BFD4
:1039700002E02820FFF722FC194800780028F8D040
:10398000184800686421B0FBF1F016490860084649
:10399000006828B9002014490870FF20FFF7B8FB21
:1039A00000BFFCF7ADFC04461048006810490860F1
:1039B00000200E4908602046FCF7A6FC0C48006871
:1039C00008490968B0FBF1F0C0F1640006490870CD
:1039D000FFF708FB00F00EF81420FFF7EFFBE0E71D
:1039E0009C0400209404002090040020AC040020DB
:1039F000980400207CB5002514E069462846FFF7AE
:103A0000F3FA064666B9094850F8254044B1012C3E
:103A100006D0D4E9020100EB8100A0640198E064C3
:103A2000681CC5B2202DE8D97CBD00000823002009
:103A300002F0010343B102F002032BB102E0491E80
:103A4000002308C00029FAD17047000010B588B0E3
:103A500004460121084600F07DF80121042000F011
:103A600099F84FF0804000F069FB3048B0FBF4F06B
:103A700080B2ADF818000020ADF814002020ADF899
:103A800016000020ADF81A008DF81C0005A94FF0B3
:103A9000804000F035FD6020ADF804000120ADF855
:103AA00006000020ADF80800ADF80C000820ADF8C5
:103AB0000E000020ADF81000ADF812001B48B0FB5E
:103AC000F4F02B2148436421B0FBF1F080B2ADF853
:103AD0000A0001A94FF0804000F070FC7020ADF8A2
:103AE00004001248B0FBF4F0C0EBC001C1EB801041
:103AF0006421B0FBF1F080B2ADF80A0001A94FF0EB
:103B0000804000F0ADFC0620ADF8000018208DF8D4
:103B1000030003208DF8020069460548FEF783FD87
:103B20000121880700F0E1FA08B010BD005125021C
:103B30000008014029B1064A52690243044B5A6108
:103B400004E0034A52698243014B5A617047000006
:103B50000010024029B1064AD2690243044BDA61DF
:103B600004E0034AD2698243014BDA6170470000E6
:103B70000010024029B1064A12690243044B1A613F
:103B800004E0034A12698243014B1A617047000046
:103B90000010024029B1064A92690243044B9A611F
:103BA00004E0034A92698243014B9A617047000026
:103BB0000010024029B1064AD2680243044BDA6081
:103BC00004E0034AD2688243014BDA607047000088
:103BD0000010024030B500210022002400232D4DAA
:103BE0006D6805F00C0121B1042905D0082923D105
:103BF00005E0294D056022E0274D05601FE0254DB9
:103C00006D6805F47012234D6D6805F4803402254B
:103C100005EB92421CB9214D554305600BE01D4D4B
:103C20006D6805F400351DB11C4D5543056002E07B
:103C3000194D5543056002E0174D056000BF00BFF8
:103C4000144D6D6805F0F0010909154D6B5C0568B0
:103C5000DD4045600F4D6D6805F4E061090A104DC7
:103C60006B5C4568DD4085600A4D6D6805F4605108
:103C7000C90A0B4D6B5C4568DD40C560054D6D683C
:103C800005F44041890B074D6B5CC568B5FBF3F546
:103C9000056130BD0010024000127A0000093D00AD
:103CA0006E0400207E04002010B502490020FEF7BB
:103CB0001DF910BD6004002010B50446012C04D18C
:103CC00001030548FEF78BFD04E04FF480510248E4
:103CD000FEF787FD10BD0000000C014010B500206C
:103CE00000F048F800F0B2F8A22000F08BF8A02015
:103CF00000F088F8C82000F085F8402000F082F835
:103D0000262000F07FF8812000F07CF8052000F0EC
:103D100079F82F2000F076F8F82000F073F80020F2
:103D200000F070F8AF2000F06DF80020FEF7C2F848
:103D300010BD000010B5044624B920210448FEF748
:103D40004EFD03E020210248FEF74BFD10BD0000B0
:103D5000000C014010B5044624B910210448FEF7B8
:103D60003EFD03E010210248FEF73BFD10BD0000C0
:103D7000000C014010B504462CB94FF40071054801
:103D8000FEF72DFD04E04FF400710248FEF729FD17
:103D900010BD0000000C014070B504460020FFF784
:103DA000E9FF0120FFF7C6FF002513E004F08000C3
:103DB00018B9002000F05EF802E0012000F05AF887
:103DC0006006040E0020FFF7C5FF0120FFF7C2FFC9
:103DD000681CC5B2082DE9DB0120FFF7CBFF70BDE1
:103DE00010B504462CB94FF480710548FEF7F7FC76
:103DF00004E04FF480710248FEF7F3FC10BD0000B0
:103E0000000C014070B504460020FFF7B3FF00200E
:103E1000FFF790FF002513E004F0800018B90020A0
:103E200000F028F802E0012000F024F86006040EFB
:103E30000020FFF78FFF0120FFF78CFF681CC5B241
:103E4000082DE9DB0120FFF795FF70BD10B50020BC
:103E5000FFF7C6FF3223002211461046FFF7EAF9AA
:103E60000120FFF7BDFF3223002211461046FFF765
:103E7000E1F910BD10B5044624B908210448FEF745
:103E8000AEFC03E008210248FEF7ABFC10BD0000C9
:103E9000000C01402DE9F04104460D4645F0B0000C
:103EA000FFF7B0FF00BF04F0F006361104F00F0773
:103EB00046F01000FFF7A6FF3846FFF7A3FFBDE866
:103EC000F081704710B5FEF78FFBFEF79FF80448AE
:103ED00001680020FEF72EF8FEF75CFB10BD000025
:103EE0006004002010B500F001F810BD0CB50020F2
:103EF000019000903448006840F4803032490860F6
:103F000000BF3148006800F4003000900198401C68
:103F1000019000980028F4D02B48006800F400308D
:103F200010B10120009001E00020009000980128CD
:103F300049D12648006840F010002449086008462E
:103F4000006820F0030008600846006840F00200A6
:103F500008601D4840681C49486008464068486041
:103F60000846406840F4806048600846406820F495
:103F70007C1048600846406840F4E81048600846F5
:103F8000006840F08070086000BF0F48006800F0D3
:103F900000700028F9D00C48406820F003000A495E
:103FA00048600846406840F00200486000BF06488C
:103FB000406800F00C000828F9D10348406840F43C
:103FC0004040014948600CBD001002400020024002
:103FD00010B51348006840F0010011490860084618
:103FE0004068104908400E494860084600680E497C
:103FF00008400B4908600846006820F480200860EB
:104000000846406820F4FE0048604FF41F008860B6
:10401000FFF768FF4FF000600449086010BD000022
:10402000001002400000FFF8FFFFF6FE08ED00E080
:1040300010B5FCF765F904460C480078401C0B49A4
:1040400008702046FCF760F901200949086009481A
:104050000068FEF7B9FE0121880700F043F8034825
:104060000078401E0149087010BD00009D0400202A
:10407000640400200800002010B5FCF741F9044654
:1040800008480078401C074908702046FCF73CF9B6
:104090000121054800F026F802480078401E014939
:1040A000087010BD9D0400200008004021B1028866
:1040B00042F08002028004E002884FF67F731A40CB
:1040C000028070470A884B881A438B881A43CB8832
:1040D0001A430B891A434B891A438B891A43A0F858
:1040E00044207047CA430282704721B1028842F0DF
:1040F0000102028004E002884FF6FE731A4002803B
:10410000704731B1B0F8442042F40042A0F8442096
:1041100005E0B0F84420C2F30E02A0F84420704736
:104120001AB183890B43838102E083898B438381A6
:10413000704741EA0203A0F84830704710B50446C2
:104140006848844208D10121C014FFF733FD0021E3
:10415000E014FFF72FFDC4E0B4F1804F08D1012136
:104160000846FFF707FD00210120FFF703FDB8E037
:104170005D48844208D101210220FFF7FBFC0021A9
:104180000220FFF7F7FCACE05848844208D1012137
:104190000420FFF7EFFC00210420FFF7EBFCA0E078
:1041A0005348844208D101210820FFF7E3FC002195
:1041B0000820FFF7DFFC94E04E48844208D101213B
:1041C0001020FFF7D7FC00211020FFF7D3FC88E078
:1041D0004948844208D101212020FFF7CBFC00216F
:1041E0002020FFF7C7FC7CE04448844208D101212D
:1041F0004014FFF7DFFC00216014FFF7DBFC70E0E8
:104200003F48844209D10121C804FFF7D3FC0021B3
:104210004FF40020FFF7CEFC63E03A48844209D116
:1042200001210805FFF7C6FC00214FF48010FFF7BD
:10423000C1FC56E03448844209D101214805FFF70A
:10424000B9FC00214FF40010FFF7B4FC49E02F48FF
:10425000844208D101214020FFF78CFC002140203E
:10426000FFF788FC3DE02A48844208D101218020E4
:10427000FFF780FC00218020FFF77CFC31E025481F
:10428000844208D101218015FFF774FC0021A0159C
:10429000FFF770FC25E02048844209D10121080481
:1042A000FFF788FC00214FF48030FFF783FC18E013
:1042B0001A48844209D101214804FFF77BFC002100
:1042C0004FF40030FFF776FC0BE01548844208D12C
:1042D00001218804FFF76EFC00214FF48020FFF7D6
:1042E00069FC10BD002C01400004004000080040A3
:1042F000000C004000100040001400400034014059
:10430000004C0140005001400054014000180040A2
:10431000001C0040002000400040014000440140DB
:104320000048014070B5002400220023058C4FF6A0
:10433000FE7635400584028C8388048B4FF68F759A
:104340002C40B51E2C400D882C43751E2A400D892B
:104350002A434D882A43144DA8420BD0134DA8423E
:1043600008D0134DA84205D0124DA84202D0124DDC
:10437000A84213D14FF6F7752A404D892A434FF6CC
:10438000FB752A408D882A434FF6FF652B404FF678
:10439000FF552B408D892B43CD892B43838004838C
:1043A000CD888586028470BD002C01400034014018
:1043B00000400140004401400048014070B5002425
:1043C00000220023058C4FF6EF7635400584028CE1
:1043D0008388048B48F6FF752C404FF6FF452C4030
:1043E0000D884FF6FF7606EA05252C434FF6DF755C
:1043F0002A400D8906EA05152A434D8806EA051567
:104400002A43154DA84202D0144DA8421DD14FF6A3
:104410007F752A404D894FF6FF7606EA05152A4337
:104420004FF6BF752A408D8806EA05152A434FF6D8
:10443000FF352B404FF2FF752B408D8906EA85052D
:104440002B43CD8906EA85052B4383800483CD88E1
:104450000587028470BD0000002C0140003401403B
:1044600070B5002400220023058C4FF6FF6635400E
:104470000584028C8388848B4FF68F752C404FF611
:10448000FC752C400D882C434FF6FF552A400D89B2
:104490004FF6FF7606EA05252A434D8806EA0525EC
:1044A0002A43154DA84202D0144DA8421DD14FF207
:1044B000FF752A404D894FF6FF7606EA05252A4307
:1044C0004FF6FF352A408D8806EA05252A434EF629
:1044D000FF752B404DF6FF752B408D8906EA0515BB
:1044E0002B43CD8906EA05152B4383808483CD8831
:1044F0008587028470BD0000002C0140003401401B
:10450000002202881D4B98420ED01D4B98420BD0C2
:10451000B0F1804F08D01B4B984205D01A4B9842FF
:1045200002D01A4B984204D14FF68F731A404B8831
:104530001A43174B984207D0164B984204D04FF6B7
:10454000FF431A40CB881A4302808B8883850B88EF
:1045500003850A4B98420BD0094B984208D00E4B6A
:10456000984205D00D4B984202D00D4B984201D194
:104570000B7A03860123838270470000002C0140E0
:10458000003401400004004000080040000C0040DE
:104590000010004000140040004001400044014071
:1045A0000048014000BF00BF00240025FEF7A0FA2C
:1045B000FDF76AFC7DE00120FEF7F2FA4FF4FA7392
:1045C000002211461046FEF735FE0020FEF7E8FAFD
:1045D0004FF4FA73002211461046FEF72BFEFEF749
:1045E0005BFAFEF70BF904460021084600F056FD81
:1045F000204601F09DFC064632460B462DA000F0F9
:10460000DBFBFEF727F904460221002000F046FDFF
:10461000204601F08DFC064632460B4628A000F0ED
:10462000CBFB2146294801F01DFD05460421002051
:1046300000F034FD284601F07BFC064632460B466E
:1046400023A000F0B9FBFEF775F90546062100200E
:1046500000F024FD284601F06BFC064632460B466E
:104660001EA000F0A9FBFEF721F90546284601F03F
:104670005FFC064632460B461BA000F09DFBFEF792
:10468000B3F8B0B90020FDF7D9FA0020FFF714FB0A
:104690004FF4FA73032200210846FEF7CBFDFEF724
:1046A000D3F9FFF70FFC0120FDF7C8FA0120FFF74F
:1046B00003FB80E7766261743D25302E3266200070
:1046C00044433D25302E32662000000000009B430D
:1046D0006B3D25302E3166200000000077656E3D71
:1046E00025302E31660000002025302E3166000076
:1046F00086B00024002500BF0026A14600BFA246C8
:1047000000BFFEF753FEFEF7AFFB032000214FF47E
:10471000FA72694BCDE90132CDE903100520034659
:10472000664A00906648FEF7C7FBFEF74BFA46F272
:10473000A810FFF78BF90120FDF780FAFDF7F4F8D8
:10474000FEF7AAF9FFF7B0FA00230122194618462E
:10475000FEF770FDFEF77EF806460021084600F0E1
:104760009DFC58A000F02AFC3146574801F07AFC25
:104770008146484600F0DAFC81464FF07E514846BB
:1047800001F07EFD04D2484600F09AFC00F00AFBDE
:1047900000F0A4F80120FFF78FFA8BE0322300220B
:1047A00011461046FEF746FDFEF728F8064630464D
:1047B00001F0BEFB07460022444B01F05FF908D32D
:1047C000304601F0B5FB07460022414B01F090FA5C
:1047D00011D2601C84B23C2C0ED10BE00020FEF7FD
:1047E000DFF9002000F0B2FA0020FDF727FA0020E0
:1047F000FFF762FAF2E70024FEF758F882464FF01E
:104800008441504601F03CFE11D2681C85B2282D2F
:104810000ED10BE00020FEF7C3F9002000F096FA5D
:104820000020FDF70BFA0020FFF746FAF2E700251B
:104830002849504601F024FE0DD20BE00020FEF77F
:10484000AFF9002000F082FA0020FDF7F7F9002010
:10485000FFF732FAF2E74FF08041504601F010FEC8
:1048600002D2012000F072FA504601F061FB0746C7
:104870000022194B01F002F902D2002000F066FA82
:10488000FDF7E8FF0646304600F050FC064631468C
:104890000D4801F0E7FB81464FF07E51484601F09C
:1048A000EFFC03D2484600F00BFC03E04FF07E50D3
:1048B00000F006FC72E70000980C00206414002051
:1048C000A54500083132000000009B430000254050
:1048D00000002D4000005C420000F83F30B599B068
:1048E0000024734D012140F60100FFF753F9012127
:1048F0000820FFF74FF96F48FFF720FC4FF43460B2
:10490000ADF85C000020ADF85800ADF85A00ADF8E5
:104910005E008DF8600016A96648FFF7F1FD602083
:10492000ADF848000120ADF84A000420ADF84C0075
:104930000020ADF85000ADF85200ADF85400ADF8CD
:1049400056004FF4B460ADF84E0012A95948FFF775
:10495000E9FC6020ADF848000120ADF84A000420D1
:10496000ADF84C000020ADF85000ADF85200ADF8A5
:104970005400ADF856004FF4B460ADF84E0012A9E3
:104980004C48FFF71BFD0020ADF80800ADF80A0009
:10499000ADF80C001520ADF80E000020ADF81000A9
:1049A0004FF40050ADF8120002A94248FFF78AFB0D
:1049B00001214048FFF77AFB01213E48FFF7A1FBA8
:1049C00001213C48FFF791FB4FF40070ADF8440023
:1049D00018208DF8470003208DF8460011A93648AD
:1049E000FDF721FE4FF48040ADF8440018208DF80B
:1049F000470003208DF8460011A93048FDF713FE4B
:104A00004FF48050ADF8440010208DF8470003208B
:104A10008DF8460011A92948FDF705FE4FF4805195
:104A20002648FDF7DCFE01210846FFF783F8002247
:104A30000E212048FFF77DFB012211021D48FFF7E0
:104A40006FFB1F48FDF752F91A484C300690284674
:104A5000079010200890FA20099000200A908020EA
:104A60000B9040000C9080000D9020200E900002D2
:104A70000F900020109006A91148FDF7E6F90121DA
:104A80000F48FDF727F90F208DF8040000208DF85E
:104A900005008DF8060001208DF8070001A8FEF73B
:104AA000C9F8012202210648FDF7C6F919B030BD48
:104AB00040000020002C014000080140000C014093
:104AC0005800024070B500240025FBF719FC05468C
:104AD00042480078401C414908702846FBF714FC06
:104AE00040F227713E4800F0D6F868B33D48D0F850
:104AF0002C013C49D1F83011884206D1002240F205
:104B00002771374800F0F1F81AE03648D0F82C0148
:104B1000344A115C324800F012F93248D0F82C01C6
:104B2000401C4FF4967190FBF1F201FB12002D49ED
:104B3000C1F82C010846D0F83401401EC1F83401F8
:104B40008021274800F09EF840F22551244800F0CB
:104B5000A2F800283CD0224800F0ECF82249234A71
:104B60001278885421480078401C20490870084673
:104B70000078642801D1002008701C4800780228C1
:104B800022DD1A480078401E1749085C0A281BD10C
:104B900016480078801E085C0D2815D100211348A6
:104BA0000078401E104A115410480078801E11549D
:104BB000002404E000200C490855601CC4B2642C99
:104BC000F8DB0020094908702021054800F05AF858
:104BD00002480078401E0149087070BD9D04002005
:104BE00000380140FC160020601900206C040020F1
:104BF00010B50024FBF784FB04461F480078401CD6
:104C00001D4908702046FBF77FFB40F227711B48C7
:104C100000F041F848B31A48D0F82C011849D1F8EF
:104C20003011884206D1002240F22771134800F06B
:104C30005CF81AE01248D0F82C01114A115C0F48B8
:104C400000F07DF80E48D0F82C01401C4FF496710E
:104C500090FBF1F201FB12000949C1F82C01084652
:104C6000D0F83401401EC1F8340103480078401EDA
:104C70000149087010BD00009D0400200044004060
:104C8000C419002001F40072B2F5007F00D100BF0A
:104C9000CA430280704770B50246002400230025F5
:104CA000002040F66A16B14200D100BFC1F34215A0
:104CB00001F01F03012606FA03F3012D02D19689A4
:104CC000334006E0022D02D1168A334001E0968A75
:104CD00033400C12012606FA04F41688344013B14E
:104CE0000CB1012000E0002070BDF0B503460024A7
:104CF00000260025002040F66A17B94200D100BF07
:104D00001846C1F3421401F01F06012707FA06F501
:104D1000012C01D10C3004E0022C01D1103000E054
:104D200014301AB107682F43076002E00768AF43E9
:104D30000760F0BD01468888C0F308007047C1F3E2
:104D400008028280704700BFFEE7000010B50446ED
:104D5000012C04D180210448FDF743FD03E08021AC
:104D60000148FDF73CFD10BD00080140490050EA34
:104D7000C12018BF04204A0D18BF40F0010040F2C6
:104D8000FF72B2EB515F08BF40F00200012808BF7C
:104D90000520704730380A2801D2012070470020D2
:104DA00070470000002003490988012900D170479D
:104DB00000BFFCE7280400200FB42DE9F04F91B0AC
:104DC0004FF000081BA810906846109A1A99FBF73C
:104DD000E9FA00F0FF0B00201090E2E01DF80860F7
:104DE00008F101001DF800A000F052F9814600F022
:104DF00049F905467E2E65DC202E1DDA082E12D0DC
:104E00000A2E02D00D2E14D100BF08F1010000F0CF
:104E1000FF08082D02DAA81CC5B203E000210846ED
:104E200000F03CF9BDE0B9F1000F01DD681EC5B22C
:104E300001E01F2600BF00BF1F2E23DB2946484686
:104E400000F02CF9002408E0A6F11F0104EB011189
:104E5000584A505CFEF7A0FF641C082CF4DB681C69
:104E6000C1B2484600F01AF9082408E0A6F11F0173
:104E700004EB01114F4A505CFEF78EFF641C102CAE
:104E8000F4DB18E02946484600F008F9002403E066
:104E9000AA20FEF781FF641C082CF9DB681CC1B254
:104EA000484600F0FBF8082403E0AA20FEF774FF50
:104EB000641C102CF9DB082E6AD009F1010000F007
:104EC000FF0965E0002710E007EB07103A4911F8E9
:104ED0001000B04207D107EB071001EB400040780B
:104EE000504500D103E0781CC7B2082FECD300BFB7
:104EF000082F25D22946484600F0D0F8002409E0C2
:104F000007EB07112C4A02EB4101891C085DFEF7F3
:104F100043FF641C102CF3DB681CC1B2484600F050
:104F2000BDF8102409E007EB0711234A02EB410109
:104F3000891C085DFEF730FF641C202CF3DB18E0B1
:104F40002946484600F0AAF8002403E0CA20FEF7EC
:104F500023FF641C102CF9DB681CC1B2484600F02A
:104F60009DF8102403E0AA20FEF716FF641C202CF5
:104F7000F9DB09F1020000F0FF0908F1010000F07F
:104F8000FF08B9F1100F03DB4FF00009A81CC5B2F0
:104F90002946484600F082F808F1010000F0FF08B9
:104FA00000BFD845FFF61AAF584611B0BDE8F00F64
:104FB0005DF814FB84680008846E00080FB42DE9C6
:104FC000F04F91B000261BA810906846109A1A99CD
:104FD000FBF7E8F900F0FF090020109047E01DF80A
:104FE0000680701C1DF800B000F052F8074600F073
:104FF00049F88246002408E004EBC4002049085C1C
:10500000404500D103E0601CC4B2342CF4D300BF8F
:10501000342C11D25146384600F040F8002508E003
:1050200004EBC401164A1144491C485DFEF7B4FE66
:105030006D1C082DF4DB0BE05146384600F02EF8CD
:10504000002503E0AA20FEF7A7FE6D1C082DF9DB62
:10505000781CC7B2701CC6B2102F04DB00270AF1FF
:10506000010000F0FF0A5146384600F017F84E459F
:10507000B5DB484611B0BDE8F00F5DF814FB000049
:105080005071000801480078704700006B04002050
:1050900001480078704700006A04002070B504469B
:1050A0000D46E106080E2946FEF7F4FE024804709C
:1050B0000248057070BD00006A0400206B040020E7
:1050C0002DE9F0410546002401201449088000BF65
:1050D00010E0134931F8140001F0BEF807462946E4
:1050E00001F002F9064601F07FF80E4921F814009C
:1050F000601C84B2FA2CECDB0020084908800024F4
:1051000007E0084830F81400074921F81400601C33
:1051100084B2FA2CF5DBBDE8F08100002804002001
:105120003402002068140020400000202DE9FC5FBC
:10513000824648480068484908604848016848482D
:10514000006800F021FF474908604748016845486A
:10515000006800F019FF834600F0EAFE80464246F0
:105160000B460020414900F007FB06460F463D482C
:10517000006800F0DDFE32463B46CDE9000100F05C
:10518000B9FC044600F012FA394908603948C0F801
:1051900000A0314801683748006801F0A3F90546CE
:1051A00033480168284601F09FF804462A48016800
:1051B000204600F0E9FE304908602D4801684FF0B4
:1051C0007E5001F08FF9044626480168204601F020
:1051D0008BF82A49086028480168504601F082F996
:1051E000834600F0A5FE21F000498046244800686F
:1051F00000F09EFE064642464B4600F009FA044681
:1052000000F0D4F91E4908601A480168504601F0C0
:1052100069F9834600F08CFE21F0004504461948E8
:10522000006800F085FE064622462B4600F0F0F9A5
:10523000804600F0BBF9134908601048006808492F
:1052400008600D480068034908600B480068BDE825
:10525000FC9F00000C00002028000020140000200B
:105260001000002024000020180000200000F03F63
:105270001C000020300000202C0000202000002016
:1052800034000020380000202DE9FC5F82464848A9
:10529000006848490860484801684848006800F0CC
:1052A00073FE47490860474801684548006800F0B8
:1052B0006BFE834600F03CFE804642460B460020D3
:1052C000414900F059FA06460F463D48006800F093
:1052D0002FFE32463B46CDE9000100F00BFC0446B0
:1052E00000F064F9394908603948C0F800A0314835
:1052F00001683748006801F0F5F805463348016851
:10530000284600F0F1FF04462A480168204600F0D4
:105310003BFE304908602D4801684FF07E5001F097
:10532000E1F8044626480168204600F0DDFF2A49DE
:10533000086028480168504601F0D4F8834600F020
:10534000F7FD21F0004980462448006800F0F0FD98
:10535000064642464B4600F05BF9044600F026F94B
:105360001E4908601A480168504601F0BBF88346A0
:1053700000F0DEFD21F0004504461948006800F009
:10538000D7FD064622462B4600F042F9804600F043
:105390000DF91349086010480068084908600D4875
:1053A0000068034908600B480068BDE8FC9F0000E6
:1053B000300400204C040020380400203404002075
:1053C000480400203C0400200000F03F400400207E
:1053D00054040020500400204404002058040020FD
:1053E0005C04002000B585B04FF4E060FDF75AFC86
:1053F000FDF762FC0120FDF7BDFC104908600120AB
:10540000FDF7B8FC0E4908600120FDF7B3FC0D491B
:105410000860032000214FF4FA720B4BCDE90132F2
:10542000CDE9031001200346084A00900848FDF723
:1054300043FDFDF7F5FC002005B000BD0000002095
:105440000400002008000020C8040020940C002064
:10545000F146000838B5044600213B48FEF751FEEE
:10546000FFF7A0FCBCBB4FF48070ADF80000182023
:105470008DF8030003208DF8020069463348FDF7DC
:10548000D2F84FF40050ADF8000069463048FDF7FF
:10549000CAF84FF40070ADF8000010208DF803003A
:1054A00069462A48FDF7BFF84FF48040ADF8000088
:1054B00069462748FDF7B7F84FF400712348FDF718
:1054C0008EF94FF480412248FDF78BF900220D211F
:1054D0001D48FEF72EFE012C31D16002ADF8000010
:1054E00018208DF8030003208DF802006946174844
:1054F000FDF799F8A003ADF8000069461448FDF7E0
:1055000092F82002ADF8000010208DF803006946E3
:105510000E48FDF788F86003ADF8000069460C48B6
:10552000FDF781F821020948FDF759F961030848A0
:10553000FDF757F900220E210348FEF7FAFD01217D
:105540000148FEF7DEFD38BD002C01400008014097
:10555000000C014010B500290AD00878002807D0B7
:1055600005487844FBF7D0FD002801D0002010BD8D
:105570000248784410BD0000BA1F0000B21F0000AE
:1055800010B500290AD00878002807D005487844CB
:10559000FBF7BAFD002801D0002010BD0248784476
:1055A00010BD0000AA1F0000A21F000021F0004251
:1055B000A2F16052B2F5801F01F0004328BFD2F182
:1055C0007F6C0BD95FEA001C43EAC20242EB5070C9
:1055D00018BF704728BF20F001007047B2F5801F48
:1055E000BCBF184670474FEA410C1CF5001F02D2A1
:1055F000084600F040BF70B500F026FB00000089AF
:10560000FFF7F6BF4FF00040A0F5800070470000A4
:1056100010B591EA030F48BF83F0004300F1A68361
:10562000841A71EB030C05D2121943EB0C03001B17
:1056300061EB0C01DFF824E14FEA1154A4EB135C99
:105640001EEA430F18BF9EEA445F73D023EA0E039D
:10565000DCF1200E21EA045143F4801332D322FA04
:105660000CFE10EB0E0023FA0CFE41EB0E01CCF108
:10567000200E03FA0EFE10EB0E0051F10001B1F501
:10568000801FCCF1200E32D201EB045112FA0EF23F
:10569000BDE8104058BF7047401C38BF5FEA420267
:1056A00018BF7047002814BF20F0010041F100012D
:1056B0004FEA410313F5001F38BF7047A1F1C04105
:1056C00000F010BB012A43EB0302ACF1200CDCF12B
:1056D0001F0E32BF4FF0000E23FA0CF310EB030045
:1056E00041EB0451B4EB115FD0D0A1EB045101F5B3
:1056F000801149085FEA300001EB04510ED350F1EC
:10570000000038BF12FA0EFE08D1BDE81040C9E70C
:10571000401C38BF5FEA4202CAD1C3E7BDE810406F
:105720004FEA410313F5001F38BF7047A1F1C04194
:1057300000F0D8BA9EEA445F08D011EA5E0FBDE8D7
:10574000104004BF01F0004100207047BDE8104048
:1057500070B500F079FA00BF64FBBE3E0000E0FFC8
:10576000491058BFC1F140415B1058BFC3F14043DD
:105770008B42EFF3008070472DE9C04130B4DFF871
:10578000A0C23CEA111418BF3CEA131400F0EC80EC
:1057900081EA03051CEA111444EAD57418BF1CEA17
:1057A000131500F0C780A4EB05044FF0004545EA4F
:1057B000C12145EAC32341EA505143EA525304F15F
:1057C0007F74994204F500344FEAC0204FEAC222A8
:1057D00008BF904200F09C804FEA13650FF240161C
:1057E000765D4FEA134506FB05F7C7F1807706FBA8
:1057F00007F74FEAD737A7FB03687642C8F580382A
:10580000A7FB06CE38BFA8F1010807FB08E64FF05A
:10581000000EA6FB028CE6FB03CEDCF1000CCEF101
:10582000004E38BFAEF1010EA6FB0C584FF000073A
:105830004FF00005E6FB0E87A1FB08C6A0FB07CED4
:1058400016EB0E0645F10005E1FB076515F1E04E8C
:105850007EBFA4F580345FEA46066D4116F18007ED
:1058600045F100054FEA17274FEA066647EA056744
:10587000A6F1DE46B6F1805F4FEA15251FD93846FE
:1058800024F0010C05EBC471BCF1FE6F01EB0C11AF
:1058900002D8F0BCBDE8008124425CBF01F5801E47
:1058A0009EEAC47F02D4F0BCBDE80081244238D413
:1058B000F0BCA1F1C041BDE8004100F013BA4FEACD
:1058C000D22242EA43524FEAD323A7FB02864FEA91
:1058D000D02040EA415007FB03661EEA0E0F4FEA54
:1058E000D12105FB026658BFA6EB0056B6EB005669
:1058F0004FEA520E4EEAC37E18EB0E0E56EB530ED5
:10590000BDD518EB02085E417F1C55F10005B6E7D6
:105910004FF480154FF000074FF000064FF00008DD
:10592000ADE7F0BC4FF0000001F1C04101F00041D3
:10593000BDE8008111EA0C1F0CEA131500D00CE041
:1059400013EA0C1F00F025804FF00000F0BC81EA44
:10595000030101F00041BDE80081F0BCBDE8004159
:1059600081EA030100F0BEB9F0BCBDE8004170B5AA
:1059700000F06AF9097EFC3E00F007B881EA0301F5
:105980004FF0000001F00041704781EA030100F090
:10599000A9B9F0BCBDE800414FF0000021497047B3
:1059A000FFFDFBF9F7F5F4F2F0EEEDEBE9E8E6E4E4
:1059B000E3E1E0DEDDDBDAD8D7D5D4D3D1D0CFCD6B
:1059C000CCCBCAC8C7C6C5C4C2C1C0BFBEBDBCBBA4
:1059D000BAB9B8B7B6B5B4B3B2B1B0AFAEADACAB9F
:1059E000AAA9A8A8A7A6A5A4A3A3A2A1A09F9F9E79
:1059F0009D9C9C9B9A99999897979695959493932B
:105A0000929191908F8F8E8E8D8C8C8B8B8A8989C1
:105A10008888878786858584848383828281818044
:105A20000000FF070000F87F10F0004248BF40422E
:105A3000B0FA80F310FA03F10AD0C3F11D0303F5A5
:105A400080634FEA415002EB035202EBD1217047D1
:105A50004FF000007047B0FA80F310FA03F10AD05B
:105A6000C3F11D0303F580634FEA41504FEA03522F
:105A700002EBD12170474FF00000704751EA030C50
:105A800017D41CF5801F58BFBCF5801F00F106809D
:105A9000994218BF704708BF9042704707D711F569
:105AA000801F58BF13F5801F19D49942704789424F
:105AB00070471CF5801F08D5BCF5801FF7D58B42B9
:105AC00018BF704708BF824270474FF4001C1CEBA0
:105AD000410F38BF1CEB430F01D28B42704770B5AA
