:020000040800F2
:10000000B00D002045010008B3230008B523000807
:10001000B9230008BD230008C12300080000000028
:10002000000000000000000000000000C5230008E0
:10003000C723000800000000C9230008CB230008E4
:100040005F0100085F0100085F0100085F01000810
:100050005F0100085F010008CD2300085F01000870
:100060005F0100085F0100085F0100085F010008F0
:100070005F0100085F0100085F0100085F010008E0
:100080005F0100085F0100085F0100085F010008D0
:100090005F0100085F0100085F0100085F010008C0
:1000A0005F0100085F0100085F0100085F010008B0
:1000B0005F0100085F0100085F0100085F010008A0
:1000C0005F0100085F0100085F0100085F01000890
:1000D0005F0100085F0100085F0100085F01000880
:1000E000DF2300085F0100085F0100085F010008CE
:1000F0005F0100085F0100085F0100085F01000860
:100100005F0100085F0100085F0100085F0100084F
:100110005F0100085F0100085F0100085F0100083F
:100120005F0100085F0100085F0100085F0100082F
:10013000DFF80CD003F0C2F900480047952300080F
:10014000B00D00200648804706480047FEE7FEE75E
:10015000FEE7FEE7FEE7FEE7FEE7FEE7FEE7FEE777
:1001600047020008310100080CB500200190009002
:100170006C48006840F480306A49086000BF6948F4
:10018000006800F4003000900198401C0190009835
:1001900018B90198B0F5A06FF1D16248006800F479
:1001A000003010B10120009001E000200090009884
:1001B000012843D15C48006840F010005A490860AB
:1001C0000846006820F0030008600846006840F018
:1001D0000200086053484068524948600846406839
:1001E00048600846406840F48060486008464068BF
:1001F00020F47C1048600846406840F4E8104860ED
:100200000846006840F08070086000BF45480068FC
:1002100000F000700028F9D04248406820F0030048
:10022000404948600846406840F00200486000BF0E
:100230003C48406800F00C000828F9D10CBD10B50E
:10024000FFF792FF10BD10B53648006840F001007E
:1002500034490860084640683449084031494860DC
:1002600008460068324908402E4908600846006880
:1002700020F4802008600846406820F4FE004860B2
:100280004FF41F008860FFF7DAFF4FF00060294944
:10029000086010BD10B5002100200022214B5B68D2
:1002A00003F00C0121B1042906D0082928D107E068
:1002B000214B224C236027E01F4B204C236023E07E
:1002C000184B5B6803F47010164B5B6803F48032C4
:1002D000022303EB904022B9194B4343174C236090
:1002E0000DE0104B5B6803F4003323B1144B434320
:1002F000124C236003E0104B4343104C236003E097
:100300000D4B0E4C236000BF00BF064B5B68C3F370
:1003100003130C4CE15C094B1B68CB40074C23607A
:1003200010BD000000100240002002400000FFF855
:10033000FFFFF6FE08ED00E000127A00000000204A
:1003400000093D0004000020002044490860091D08
:100350000860091D0860091D086041483F491431C3
:100360000860704700213D498279002A3AD00A4648
:10037000126803689A430B461A600A1D12680368E4
:100380009A430B1D1A60027911440A6803681A43E4
:100390000A60324A0832126803689A432F4B0833C6
:1003A0001A601A1D126803689A432C4B0C331A60AA
:1003B0004279102A0ED11A1F126803681A43274B7C
:1003C00008331A601A1D126803681A43234B0C3352
:1003D0001A600DE02149427911440A6803681A4302
:1003E0000A6005E0027911440A6803689A430A60CA
:1003F00070470021016001710C2141710021817160
:1004000070471649103109680143144A10321160CF
:10041000704701460020114A143212680A400AB19E
:10042000012000E0002070470C491431086070473B
:10043000014600200022094B1B6803EA0102074B1A
:1004400014331B680B4013B10AB1012000E00020F7
:1004500070470249143108607047000000040140F1
:10046000FFFF0F0030B943F2DB028100A1F1C04170
:100470000A6005E043F2D2028100A1F1C0410A60A6
:100480006FF07042411C8900A1F1C0410A608100F7
:10049000A1F1C041C1F80421704710280AD11821E8
:1004A0004FF020421166402151664FF0FC319166B9
:1004B000D16610E01821F74A116040214FF0204228
:1004C000C2F884104FF0FC31F24A083211604FF04C
:1004D0002042C2F88C1070471820EE492031086085
:1004E00000200906C1F8A4004FF0FC30E94928318A
:1004F0000860091D0860091D08607047D0E90112F5
:100500001143C26811430269114342691143826970
:100510001143C2691143026A1143426A1143826A5C
:100520001143C26A1143026B114302689200A2F1A7
:10053000C0421160816808290BD101688900A1F1CE
:10054000C041096841F0400201688900A1F1C04141
:100550000A60416B0968426B526841EA0211426BC2
:10056000926841EA0221426B928941EA0241426B60
:10057000128A41EA0251426B127D41EA0261426BEA
:10058000926911430268521C9200A2F1C0421160AC
:10059000C16AB1F5804F1BD1816B0968826B5268CB
:1005A00041EA0211826B926841EA0221826B128A4F
:1005B00041EA0251826B127D41EA0261826B9269CB
:1005C000114302689200A2F1C042C2F8041107E090
:1005D0006FF0704201688900A1F1C041C1F80421A7
:1005E000704730B5002100220023446844F008041D
:1005F00085682C43C5682C4305692C43456944EA4A
:100600004524856944EA4531C4692468C5696D6833
:1006100044EA0524C5692D8944EA0544C5692D7B52
:1006200044EA0562046A2468056A6D6844EA0524A0
:10063000056A2D8944EA0544056A2D7B44EA056371
:100640000468102C05D14FF020442166A266E366B1
:1006500008E0904C21604FF02044C4F888208D4C75
:100660000C34236030BD016841F01001426841EA5A
:100670004221826841EA4231864A20321160C168D3
:100680000968C268526841EA0221C268128941EAD7
:100690000241C268127B41EA02617E4A283211603F
:1006A000016909680269526841EA022102691289F6
:1006B00041EA02410269127B41EA0261754A2C3229
:1006C0001160416909684269526841EA0221426940
:1006D000128941EA02414269127B41EA02614FF00C
:1006E0002042C2F8B0107047002101600221416031
:1006F00000218160C160016141618161C16101626C
:100700004FF480514162490081620021C16201635E
:100710000F21426B1160426B5160FF21426B91606F
:100720000F21426BD160426B1161426B516100211C
:10073000426B91610F21826B1160826B5160FF21CE
:10074000826B91600F21826BD160826B1161826B31
:1007500051610021826B916170471021016000217D
:1007600041608160C160016141618161FC21C269B8
:100770001160C2695160C2699160C269D160026A48
:100780001160026A5160026A9160026AD16070472A
:100790000021016041608160FC21C2681160C26873
:1007A0005160C2689160C268D160026911600269DB
:1007B0005160026991600269D160426911604269C9
:1007C0005160426991604269D160704751B18200C5
:1007D000A2F1C042126842F001038200A2F1C042BD
:1007E000136009E08200A2F1C04212682A4B1A404D
:1007F0008300A3F1C0431A60704799B1102808D153
:100800004FF02042126E42F004024FF020431A666D
:100810001DE0204A126842F004024FF02043C3F862
:10082000802014E0102809D14FF02042126E1A4B9C
:10083000DB1E1A404FF020431A6608E0154A126882
:10084000154BDB1E1A404FF02043C3F88020704741
:1008500048B110492031096841F004014FF02042AD
:10086000C2F8A01009E00B49203109680A4AD21EDB
:1008700011404FF02042C2F8A0107047B9B11028C3
:100880000CD14FF02042126E42F040024FF0204354
:100890001A661FE0800000A0FEFF0F00724A126877
:1008A00042F040024FF02043C3F8802012E01028AD
:1008B00008D14FF02042126E6C4B1A404FF020438B
:1008C0001A6607E0684A1268684B1A404FF02043E6
:1008D000C3F88020704701460020102903D14FF053
:1008E0002042506F02E0604A14321068704710B521
:1008F000F2B1102807D14FF020435B6E0B434FF04D
:100900002044636632E0B0F5807F08D1564B1B1D52
:100910001B680B434FF02044C4F8843026E0524B50
:1009200024331B680B434FF02044C4F8A4301DE06F
:10093000102807D14FF020435B6E8B434FF02044CB
:10094000636613E0B0F5807F08D1474B1B1D1B6821
:100950008B434FF02044C4F8843007E0424B2433EB
:100960001B688B434FF02044C4F8A43010BD10B571
:10097000024600200023102A03D14FF02044636E6A
:1009800009E0B2F5807F03D1374C241D236802E0D3
:10099000354C2434236803EA01040CB1012000E043
:1009A000002010BD102807D14FF02042526E8A431C
:1009B0004FF020435A6613E0B0F5807F08D12A4AF1
:1009C000121D12688A434FF02043C3F8842007E0C9
:1009D000254A243212688A434FF02043C3F8A420EA
:1009E000704770B502460020002300240025102A1D
:1009F00003D14FF02046736E09E0B2F5807F03D13A
:100A0000194E361D336802E0174E2436336803EA68
:100A1000010403EAD10514B10DB1012000E000206A
:100A200070BD102808D14FF02042526E22EAD10248
:100A30004FF020435A6615E0B0F5807F09D10A4A8D
:100A4000121D126822EAD1024FF02043C3F884201D
:100A500008E0054A2432126822EAD1024FF020430E
:100A6000C3F8A42070470000800000A0BFFF0F0063
:100A700010B50446CC48844208D10121042000F07E
:100A80002DFB0021042000F029FB46E0C7488442EA
:100A900008D10121082000F021FB0021082000F0EE
:100AA0001DFB3AE0C248844208D10121102000F029
:100AB00015FB0021102000F011FB2EE0BD48844200
:100AC00008D10121202000F009FB0021202000F0A6
:100AD00005FB22E0B848844208D10121402000F003
:100AE000FDFA0021402000F0F9FA16E0B3488442F4
:100AF00008D10121802000F0F1FA0021802000F0CF
:100B0000EDFA0AE0AE48844207D10121801500F0D9
:100B1000E5FA0021A01500F0E1FA10BD10B50121A1
:100B2000084600F0DBFA0021012000F0D7FA10BDE2
:100B30002DE9F04102460025002600200023002474
:100B4000002791F803C00CF00F0591F803C00CF0DA
:100B5000100CBCF1000F03D091F802C04CEA05055F
:100B600091F800C0BCF1000F31D0146800202BE0D8
:100B70004FF0010C0CFA00F3B1F800C00CEA0306C8
:100B80009E4220D183004FF00F0C0CFA03F7BC43B8
:100B900005FA03FC4CEA040491F803C0BCF1280FE9
:100BA00006D14FF0010C0CFA00FCC2F814C00AE0A8
:100BB00091F803C0BCF1480F05D14FF0010C0CFABD
:100BC00000FCC2F810C0401C0828D1D31460B1F852
:100BD00000C0BCF1FF0F34DD546800202EE000F1AE
:100BE000080C4FF0010808FA0CF3B1F800C00CEA49
:100BF00003069E4221D183004FF00F0C0CFA03F73D
:100C0000BC4305FA03FC4CEA040491F803C0BCF1B0
:100C1000280F05D100F1080C08FA0CF8C2F814806E
:100C200091F803C0BCF1480F07D100F1080C4FF058
:100C3000010808FA0CF8C2F81080401C0828CED32E
:100C40005460BDE8F0814FF6FF7101800221817090
:100C50000421C17070470246002093680B400BB11D
:100C6000012000E0002070470146886880B270478C
:100C700002460020D3680B400BB1012000E00020A9
:100C800070470146C86880B2704701617047416192
:100C900070470AB1016100E041617047C16070476F
:100CA0004FF480320A438261816182618269826984
:100CB000704702460020434B18684FF68073184077
:100CC00040EA021008433F4B186070473E49C86134
:100CD0007047F0B50A46002300240021002500F0EB
:100CE0000046B6F1004F02D1364EF16901E0354EB3
:100CF0007168C0F3034583B200F44016B6F5401F97
:100D000008D121F070612F4E766826F070662D4F65
:100D10007E6012E000F48016B6F5801F06D103262F
:100D200006FA05F4A14341F0706106E0460D360174
:100D300003FA06F6B14341F0706122B1460D360167
:100D400003FA06F6314300F00046B6F1004F02D137
:100D50001C4EF16101E01B4E7160F0BD30B5002208
:100D60008B071C0F0F2303FA04F2164B08338C1069
:100D700053F824309343134C08348D1044F8253035
:100D800023468C1053F824308C07240F00FA04F407
:100D900023430C4C08348D1044F8253030BD0A49EB
:100DA000DC3108607047000000080140000C014081
:100DB000001001400014014000180140001C0140D7
:100DC000002001400000014000002042DF48006890
:100DD00040F00100DD49086008464068DC490840F1
:100DE000DA49486008460068DA490840D74908608F
:100DF0000846006820F4802008600846406820F417
:100E0000FE0048604FF41F0088607047CF490968B2
:100E100021F48031CD4A11601146096821F4802106
:100E20001160B0F5803F03D0B0F5802F0ED106E001
:100E3000C649096841F48031C44A116007E0C349DA
:100E4000096841F4A021C14A116000E000BF00BF61
:100E5000704710B501460022002300204A11012AE4
:100E600002D1BA4C236806E0022A02D1B74C236AA9
:100E700001E0B64C636A01F01F02012494401C405B
:100E80000CB1012000E0002010BD38B5002000901A
:100E90000024002500BF3120FFF7DBFF0546009846
:100EA000401C00900098B0F5A06F01D0002DF2D04A
:100EB0003120FFF7CEFF08B1012400E000242046D6
:100EC00038BD01460020A14A106820F0F80040EA31
:100ED000C10010607047A0490860704702460020BA
:100EE0009A4B586820F47C1042EA01031843974B50
:100EF0005860704798490866704701460020934A39
:100F0000506820F003000843506070478F484068E5
:100F100000F00C007047014600208C4A506820F019
:100F2000F00008435060704701460020874A50682F
:100F300020F4E06008435060704701460020834A77
:100F4000506820F4605040EAC1005060704729B1F9
:100F50007E4A527A02437D4B5A7204E07B4A527AAF
:100F600082437A4B5A7270477B49D8310860704788
:100F700001460020754A506820F440400843506004
:100F800070470021714A20321170704A82F8201097
:100F9000012802D004280AD104E001216B4A203242
:100FA000117005E00521694A2032117000E000BF90
:100FB00000BF70476949086070476449096A014386
:100FC000624A11627047654944390860704730B51C
:100FD00000210022002400235C4D6D6805F00C0107
:100FE00021B1042905D0082923D105E05C4D056015
:100FF00022E05B4D05601FE0544D6D6805F47012F2
:10100000524D6D6805F48034022505EB92421CB9FF
:10101000544D554305600BE04C4D6D6805F40035AB
:101020001DB1504D5543056002E04D4D55430560DF
:1010300002E04B4D056000BF00BF444D6D6805F0F8
:10104000F0010909484D6B5C0568DD4045603F4D86
:101050006D6805F4E061090A434D6B5C4568DD404D
:1010600085603A4D6D6805F46051C90A3E4D6B5C70
:101070004568DD40C560354D6D6805F44041890B1C
:101080003A4D6B5CC568B5FBF3F5056130BD29B120
:101090002E4A526902432D4B5A6104E02B4A526991
:1010A00082432A4B5A61704729B1284A9269024308
:1010B000264B9A6104E0254A92698243234B9A6148
:1010C000704729B1214AD2690243204BDA6104E01A
:1010D0001E4AD26982431D4BDA61704729B11B4A0F
:1010E000D2680243194BDA6004E0184AD26882439E
:1010F000164BDA60704729B1144A12690243134B48
:101100001A6104E0114A12698243104B1A61704758
:1011100012494039086070470F49C86470470B494D
:10112000C87170470948406A40F0807007494862BA
:10113000704701460020054A92680A400AB1012022
:1011400000E000207047014988727047001002409B
:101150000000FFF8FFFFF6FE00004242800442421A
:1011600000127A0000093D00140000202400002035
:1011700010B50446FE48844208D10121C014FFF78F
:10118000ADFF0021E014FFF7A9FFC4E0B4F1804FE8
:1011900008D101210846FFF7AEFF00210120FFF72B
:1011A000AAFFB8E0F348844208D101210220FFF7EA
:1011B000A2FF00210220FFF79EFFACE0EE48844230
:1011C00008D101210420FFF796FF00210420FFF73A
:1011D00092FFA0E0E948844208D101210820FFF7EE
:1011E0008AFF00210820FFF786FF94E0E44884424C
:1011F00008D101211020FFF77EFF00211020FFF70A
:101200007AFF88E0DF48844208D101212020FFF7DF
:1012100072FF00212020FFF76EFF7CE0DA48844255
:1012200008D101214014FFF759FF00216014FFF796
:1012300055FF70E0D548844209D10121C804FFF769
:101240004DFF00214FF40020FFF748FF63E0D04836
:10125000844209D101210805FFF740FF00214FF426
:101260008010FFF73BFF56E0CA48844209D10121B4
:101270004805FFF733FF00214FF40010FFF72EFF62
:1012800049E0C548844208D101214020FFF733FFDF
:1012900000214020FFF72FFF3DE0C048844208D1E5
:1012A00001218020FFF727FF00218020FFF723FF87
:1012B00031E0BB48844208D101218015FFF71BFFB4
:1012C0000021A015FFF717FF25E0B648844209D199
:1012D00001210804FFF702FF00214FF48030FFF7DF
:1012E000FDFE18E0B048844209D101214804FFF70F
:1012F000F5FE00214FF40030FFF7F0FE0BE0AB48A5
:10130000844208D101218804FFF7E8FE00214FF450
:101310008020FFF7E3FE10BD00220288944B984224
:101320000ED0994B98420BD0B0F1804F08D0914B22
:10133000984205D0904B984202D0904B984204D1ED
:101340004FF68F731A404B881A438D4B984207D043
:101350008C4B984204D04FF6FF431A40CB881A4377
:1013600002808B8883850B880385814B98420BD044
:10137000854B984208D08B4B984205D08A4B9842B7
:1013800002D08A4B984201D10B7A038601238382D3
:10139000704770B5002400220023058C4FF6FE76BE
:1013A00035400584028C8388048B4FF68F752C4062
:1013B000B51E2C400D882C43751E2A400D892A43EA
:1013C0004D882A436A4DA8420BD06F4DA84208D0E1
:1013D000744DA84205D0744DA84202D0734DA84266
:1013E00013D14FF6F7752A404D892A434FF6FB7506
:1013F0002A408D882A434FF6FF652B404FF6FF5554
:101400002B408D892B43CD892B4383800483CD884A
:101410008586028470BD70B5002400220023058CEF
:101420004FF6EF7635400584028C8388048B48F6AE
:10143000FF752C404FF6FF452C400D884FF6FF7688
:1014400006EA05252C434FF6DF752A400D8906EA8A
:1014500005152A434D8806EA05152A43444DA8423E
:1014600002D0494DA8421DD14FF67F752A404D89C3
:101470004FF6FF7606EA05152A434FF6BF752A4058
:101480008D8806EA05152A434FF6FF352B404FF2AB
:10149000FF752B408D8906EA85052B43CD8906EA29
:1014A00085052B4383800483CD880587028470BD26
:1014B00070B5002400220023058C4FF6FF663540EE
:1014C0000584028C8388848B4FF68F752C404FF6F1
:1014D000FC752C400D882C434FF6FF552A400D8992
:1014E0004FF6FF7606EA05252A434D8806EA0525CC
:1014F0002A431F4DA84202D0234DA8421DD14FF2CE
:10150000FF752A404D894FF6FF7606EA05252A43E6
:101510004FF6FF352A408D8806EA05252A434EF608
:10152000FF752B404DF6FF752B408D8906EA05159A
:101530002B43CD8906EA05152B4383808483CD8810
:101540008587028470BD70B5002200230024058CBD
:101550004EF6FF7635400584038C8488828B48F6EE
:10156000FF752A404FF6FF452A400D8820E0000015
:10157000002C01400004004000080040000C004026
:10158000001000400014004000340140004C0140B5
:10159000005001400054014000180040001C004071
:1015A000002000400040014000440140004801404C
:1015B0004FF6FF7606EA05252A434DF6FF752B40C8
:1015C0000D8906EA05352B434D8806EA05352B4380
:1015D000FA4DA84202D0FA4DA84208D14BF6FF7549
:1015E0002C408D894FF6FF7606EA85152C438480C2
:1015F0008283CD88A0F84050038470BD828B4FF267
:10160000FF331A408283828B4FF6FF7303EA012374
:101610001A4382837047F0B50C461546002200211C
:101620000026078C4EF6FF7C07EA0C070784828BA6
:10163000018C4FF6FF7707EA043640F6FF473A4041
:101640004FF6FF7707EA05273A434FF6FF7707EA99
:1016500003373A43D94FB8420ED0D94FB8420BD0D6
:10166000B0F1804F08D0D74FB84205D0D64FB8421E
:1016700002D0D64FB84206D14DF6FF77394046F436
:101680008057394305E047F6FF57394044F4805707
:10169000394382830184F0BD828B4FF6F3731A4085
:1016A0008283828B0A4382837047F0B50C461546CD
:1016B000002200210026078C4FF6FF6C07EA0C077A
:1016C0000784828B018C4FF6FF7707EA04264FF6DA
:1016D0000C773A404FF6FF7707EA03172F433A4358
:1016E000B64FB8420ED0B64FB8420BD0B0F1804FD3
:1016F00008D0B44FB84205D0B34FB84202D0B34F70
:10170000B84206D14FF6FF57394046F48077394347
:1017100005E04FF2FF57394044F480773943828324
:101720000184F0BD028B4FF2FF331A400283028B1B
:101730004FF6FF7303EA01231A4302837047F0B5A3
:101740000C461546002200210026078C4FF6EF7C40
:1017500007EA0C070784028B018C4FF6FF7707EA34
:10176000041640F6FF473A404FF6FF7707EA033783
:101770003A434FF6FF7707EA05273A438F4FB842BF
:101780000ED08F4FB8420BD0B0F1804F08D08D4FA4
:10179000B84205D08C4FB84202D08C4FB84206D127
:1017A0004FF6DF77394046F01007394305E04FF632
:1017B0005F77394044F01007394302830184F0BD5C
:1017C000028B4FF6F3731A400283028B0A430283A3
:1017D0007047F0B50C46154600220021068C4FF6E6
:1017E000FE773E400684028B018C4FF60C76324029
:1017F0007E1C06EA03162E433243704EB0420ED0D2
:101800006F4EB0420BD0B0F1804F08D06D4EB04259
:1018100005D06D4EB04202D06C4EB04206D14FF6AC
:10182000FD76314044F00106314305E04FF6F57690
:10183000314044F00106314302830184F0BD70B5AC
:1018400005460C465D4885420ED05D4885420BD06A
:10185000B5F1804F08D05B48854205D05A48854293
:1018600002D05A48854200D100E000BF208850B91C
:101870002389A28861882846FFF7ABFFE1882846C4
:10188000FFF79EFF25E0208804280AD12389A2883B
:1018900061882846FFF753FFE1882846FFF742FF9B
:1018A00017E0208808280AD12389A2886188284661
:1018B000FFF7FBFEE1882846FFF7EEFE09E02389EB
:1018C000A28861882846FFF7A6FEE1882846FFF730
:1018D00095FE70BD2DE9F04105460C460026012716
:1018E000608808B9022600E00026A088012801D1FE
:1018F000022700E001272088A0B92389A2886188F7
:101900002846FFF766FFE1882846FFF759FF23893D
:101910003A4631462846FFF712FFE1882846FFF78E
:1019200001FF13E02389A28861882846FFF707FF9B
:10193000E1882846FFF7F6FE23893A4631462846D5
:10194000FFF747FFE1882846FFF73AFFBDE8F0813F
:101950000A884B881A438B881A43CB881A430B8911
:101960001A434B891A438B891A43A0F844207047C5
:101970004FF6FF71818000210180C180418001729A
:1019800070470021018041808180C18001814181B7
:101990008181C181704700210180418001218180C6
:1019A0000021C18001817047002101804180818038
:1019B000C18001814181818170470000002C01407C
:1019C000003401400004004000080040000C0040CA
:1019D00021B1028842F00102028004E002884FF641
:1019E000FE731A400280704731B1B0F8442042F4CF
:1019F0000042A0F8442005E0B0F84420C2F30E02F3
:101A0000A0F8442070471AB183890B43838102E018
:101A100083898B43838170478182704741EA020347
:101A2000A0F8483070471AB183890B43838102E0E4
:101A300083898B438381704701894FF6F872114087
:101A4000018170470A46002101894FF68F731940C2
:101A500011430181704730B504460D4629462046A2
:101A6000FFF7F0FF208940F00700208130BD2DE90D
:101A7000F04104460D4616461F46602D06D13B46F2
:101A8000012231462046FFF75AFE05E03B4601227F
:101A900031462046FFF79DFE29462046FFF7D2FF3C
:101AA000208940F007002081BDE8F08130B50C4668
:101AB00000210189C9B24FF6FF7505EA03251543D8
:101AC00025432943018130BD2DE9F04105460E46ED
:101AD00017469846002443463A4631462846FFF7C3
:101AE000E5FF2C894FF6F870044044F007044FF6E8
:101AF0008F70044044F070042C81BDE8F081F0B593
:101B000004460D4616461F463B46324629462046A9
:101B1000FFF7CCFF208940F480402081F0BD018593
:101B2000828270470A46002101884FF68F73194060
:101B3000114301807047F0B50C4615461E46002142
:101B4000002200230189028B038C4FF6F87739407D
:101B500021434FF6FC473A4040F201173A434FF613
:101B6000DD773B404FF6FF7707EA06172F433B43ED
:101B7000018102830384F0BD0A460021018B4FF6E8
:101B80008F7319401143018370470A460021018B6E
:101B900048F6FF7319404FF6FF7303EA0223194317
:101BA000018370470A460021818B4FF68F731940DD
:101BB0001143818370470A460021818B48F6FF73E9
:101BC00019404FF6FF7303EA0223194381837047DC
:101BD00021B1028842F08002028004E002884FF6C0
:101BE0007F731A400280704721B1828842F004025C
:101BF000828004E082884FF6FB731A40828070472F
:101C000021B1828842F00802828004E082884FF687
:101C1000F7731A408280704721B1828842F0010236
:101C2000828004E082884FF6FE731A4082807047FB
:101C30000A460021018B4FF6F773194011430183C7
:101C400070470A460021018B4FF2FF7319404FF68F
:101C5000FF7303EA02231943018370470A460021F8
:101C6000818B4FF6F77319401143818370470A4601
:101C70000021818B4FF2FF7319404FF6FF7303EA87
:101C800002231943818370470A460021018B4FF6D6
:101C9000FB7319401143018370470A460021018BF1
:101CA0004FF6FF3319404FF6FF7303EA022319433F
:101CB000018370470A460021818B4FF6FB73194060
:101CC0001143818370470A460021818B4FF6FF3311
:101CD00019404FF6FF7303EA0223194381837047CB
:101CE0000A460021018B4FF67F731940114301838F
:101CF00070470A460021018BC1F30E014FF6FF73B6
:101D000003EA02231943018370470A460021818BAD
:101D10004FF67F7319401143818370470A460021B3
:101D2000818BC1F30E014FF6FF7303EA02231943BF
:101D3000818370470A460021018C4FF6FD731940DC
:101D40001143018470470A460021018C4FF6F77356
:101D500019401143018470470A460021018C4FF657
:101D6000DF7319404FF6FF7303EA0213194301842E
:101D700070470A460021018C4FF67F7319404FF6D9
:101D8000FF7303EA02131943018470470A460021D6
:101D9000018C4FF6FF5319404FF6FF7303EA0223FD
:101DA0001943018470470A460021018C4FF2FF73EA
:101DB00019404FF6FF7303EA022319430184704769
:101DC0000A460021018C4DF6FF7319404FF6FF7350
:101DD00003EA023319430184704730B5002301241C
:101DE0008C40A3B2048C9C430484048C02FA01F559
:101DF000ADB22C43048430BD30B5002304248C40A4
:101E0000A3B2048C9C430484048C02FA01F5ADB2A5
:101E10002C43048430BD70B50346002000241846CE
:101E2000183001258D40ACB21D8CA5431D8409B12D
:101E3000082909D100EB6100056825F070050560EF
:101E40000568154305600EE00D1FC5F34E052844D7
:101E5000056825F4E045056005684FF6FF7606EA5B
:101E600002263543056070BD21B1028842F00202AE
:101E7000028004E002884FF6FD731A40028070472A
:101E800021B1028842F00402028004E002884FF689
:101E9000FB731A400280704721B1828842F08002B1
:101EA000828004E082884FF67F731A4082807047F8
:101EB00002884FF6F7731A40028002880A430280B4
:101EC000704782884FF68F731A40828082880A4357
:101ED0008280704702894FF6F8731A4002810289A6
:101EE0000A430281704702894FF67F731A400281CC
:101EF00002890A4302817047818470478185704757
:101F0000818670470187704781877047A0F840102D
:101F1000704702884FF6FF431A40028002880A4346
:101F2000028070470146888E70470146088F7047CF
:101F30000146888F70470146B1F84000704701465E
:101F4000888C70470146088D704702460020138A2E
:101F50000B400BB1012000E000207047CA43028211
:101F6000704730B50246002000230024158A05EA98
:101F70000103958905EA010413B10CB1012000E0C9
:101F8000002030BDCA4302827047000010B50446ED
:101F9000FB48844209D101218803FFF79FF8002103
:101FA0004FF48040FFF79AF832E0F648844209D1B6
:101FB00001214804FFF79FF800214FF40030FFF79C
:101FC0009AF825E0F048844209D101218804FFF7FE
:101FD00092F800214FF48020FFF78DF818E0EB48CD
:101FE000844209D10121C804FFF785F800214FF48C
:101FF0000020FFF780F80BE0E548844208D101217A
:102000000805FFF778F800214FF48010FFF773F808
:1020100010BD2DE9F04786B005460E460024A246C5
:1020200000BFA1460027B08900B100BF2F462C8A0F
:102030004CF6FF700440F08804432C82AC894EF6C5
:10204000F3100440B0883189084371890843044380
:10205000AC81AC8A4FF6FF400440B0890443AC82A7
:1020600001A8FEF7B4FFC648874202D1DDF810A0F0
:1020700001E0DDF80CA0A88900F4004040B10AEBB3
:10208000CA0000EB0A1031684900B0FBF1F807E024
:102090000AEBCA0000EB0A1031688900B0FBF1F8C6
:1020A0006420B8FBF0F004012009642101FB1089D1
:1020B000A88900F4004040B1322000EBC900B0FB19
:1020C000F1F000F00700044308E0322000EB0910B3
:1020D0006421B0FBF1F000F00F0004432C8106B046
:1020E000BDE8F0874FF41651016000218180C18066
:1020F00001810C21418100218181704710B5024688
:102100000020108A4FF2FF0318400B884C882343AD
:102110008C882343CC8823431843108210BD0021B0
:10212000018041808180C180704721B1828942F461
:102130000052828104E082894DF6FF731A40828149
:102140007047F0B50346002400260025002040F625
:102150006A17B94200D100BF1846C1F3421401F01A
:102160001F06012707FA06F5012C01D10C3004E007
:10217000022C01D1103000E014301AB107682F434F
:10218000076002E00768AF430760F0BD1AB1838AB9
:102190000B43838202E0838A8B4383827047028AE7
:1021A0004FF6F0731A400282028A0A430282704795
:1021B00082894FF2FF731A40828182890A438281A9
:1021C000704721B1828942F00202828104E0828953
:1021D0004FF6FD731A4082817047028A4FF6DF7313
:1021E0001A400282028A0A430282704721B1028A9F
:1021F00042F48042028204E0028A4BF6FF731A40E6
:1022000002827047C1F308028280704701468888C5
:10221000C0F308007047818941F001018181704756
:10222000028BD2B20283028B42EA01220283704700
:10223000028B02F47F420283028B0A4302837047BF
:1022400021B1828A42F02002828204E0828A4FF623
:10225000DF731A408282704721B1828A42F01002F5
:10226000828204E0828A4FF6EF731A4082827047BE
:1022700021B1828A42F00802828204E0828A4FF60B
:10228000F7731A408282704721B1828942F400427A
:10229000828103E08289C2F30E028281704721B1FC
:1022A000828A42F40062828204E0828A4FF2FF73E3
:1022B0001A4082827047828A4FF6FB731A408282EC
:1022C000828A0A438282704721B1828A42F00202E6
:1022D000828204E0828A4FF6FD731A408282704740
:1022E00002460020B1F5007F00D100BF13880B40EB
:1022F0000BB1012000E00020704701F40072B2F53C
:10230000007F00D100BFCA430280704770B502460B
:10231000002400230025002040F66A16B14200D1B7
:1023200000BFC1F3421501F01F03012606FA03F3B3
:10233000012D02D19689334006E0022D02D1168A82
:10234000334001E0968A33400C12012606FA04F469
:102350001688344013B10CB1012000E0002070BD9C
:1023600010B50022002340F66A14A14200D100BF3C
:102370000A1201249440A3B2DC43048010BD000083
:10238000003801400044004000480040004C00403C
:102390000050004010B500F09CFC00F071FB00F014
:1023A00027F900F0CCF800F019FA00F02CFA002020
:1023B00010BD704700BFFEE700BFFEE700BFFEE7AD
:1023C00000BFFEE7704770477047704710B50120A7
:1023D000FEF72EF810B10120FEF73BF810BD10B546
:1023E0004FF40050FEF724F818B14FF40050FEF7F8
:1023F00030F810BD08B501214FF4B070FEF754FE5F
:1024000018208DF8030003208DF802004FF480405F
:10241000ADF8000069467348FEF78AFB4FF40040B0
:10242000ADF8000069466F48FEF782FB0120ADF869
:10243000000069466B48FEF77BFB0220ADF8000008
:1024400069466848FEF774FB8020ADF800006946D5
:102450006548FEF76DFB4FF48070ADF800006946EB
:102460006148FEF765FB4FF40070ADF80000694667
:102470005D48FEF75DFB4FF48060ADF800006946F3
:102480005948FEF755FB4FF40060ADF8000069466F
:102490005548FEF74DFB4FF48050ADF800006946FB
:1024A0005148FEF745FB4FF40050ADF80000694677
:1024B0004D48FEF73DFB4FF48040ADF80000694603
:1024C0004948FEF735FB4FF40040ADF8000069467F
:1024D0004548FEF72DFB4FF48070ADF800006946CB
:1024E0004048FEF725FB4FF40070ADF80000694648
:1024F0003C48FEF71DFB4FF48060ADF800006946D4
:102500003848FEF715FB1020ADF800006946354845
:10251000FEF70EFB10208DF803000120ADF800003F
:1025200069463248FEF704FB10208DF803000002D4
:10253000ADF8000069462D48FEF7FAFA08BD00B56F
:1025400097B0FFF757FF01210802FEF7A0FD032017
:1025500001900020029006200390012004900020AA
:1025600005900690079004200890002009900A909A
:1025700010200B9000200C900D900E900F9010905A
:102580004FF480501190002012901390149001A8E5
:102590001590169008A8FDF7B1FF01210420FEF761
:1025A00015F917B000BD10B501211048FEF76FFBFB
:1025B00001210E48FEF769FB01210C48FEF765FB7F
:1025C00001210A48FEF761FB01210848FEF75DFB87
:1025D00001210648FEF759FB01210448FEF757FB8D
:1025E00010BD00000014014000180140002001400F
:1025F00000B585B001210420FEF756FD01218803B6
:10260000FEF752FD4FF40070ADF8100018208DF861
:10261000130003208DF8120004A92248FEF788FA5F
:102620004FF48060ADF8100004208DF8130004A969
:102630001C48FEF77DFA4FF4E13000900020ADF821
:102640000400ADF80600ADF80800ADF80C000C2051
:10265000ADF80A0069461448FFF7DBFC0121124877
:10266000FFF763FD05B000BD70B504460D46E1B24D
:102670000D48FFF7C7FD00BF80210B48FFF730FE74
:102680000028F9D0204670BD10B5044600BF2021B7
:102690000548FFF725FE0028F9D00348FFF7B6FDEF
:1026A00010BD0000000801400038014008B50121BC
:1026B0000420FEF7F9FC4020ADF8000018208DF84A
:1026C000030003208DF8020069464748FEF730FA00
:1026D00001210420FEF7E8FC8020ADF8000018205E
:1026E0008DF8030003208DF8020069463E48FEF78E
:1026F0001FFA01210820FEF7D7FC0120ADF80000E9
:1027000018208DF8030003208DF802006946374831
:10271000FEF70EFA01210820FEF7C6FC0220ADF8F4
:10272000000018208DF8030003208DF80200694690
:102730002E48FEF7FDF908BDF0B587B00121022053
:10274000FEF7BFFC41F61F40ADF814000020ADF8C5
:102750001000ADF81600ADF812008DF8180004A9AD
:102760002348FEF7D9FD1424322532263227602073
:10277000ADF800000120ADF802000020ADF808001F
:10278000ADF8064069461A48FEF703FE08211848CE
:10279000FFF74EFAADF8065069461548FEF73BFEC6
:1027A00008211348FFF74DFAADF806606946104856
:1027B000FEF77EFE08210E48FFF750FAADF80670CE
:1027C00069460B48FEF7BFFE08210948FFF74FFA9C
:1027D00001210748FFF7FCF807B0F0BD10B5FFF77F
:1027E00065FFFFF7A9FF10BD00080140000C014084
:1027F0000004004001B502E00098401E00900098DF
:102800000028F9D108BD4FF480514A48FEF73FFA3D
:10281000FFF7C9FE8CE04FF480514648FEF737FAC7
:10282000FFF7C1FE4FF6FF70FFF7E4FF4FF0D04116
:10283000088800F0CDFB404908604FF08E413E48CB
:10284000006800F087FB05463C4900F051FB044658
:102850003B4900F04DFB3B4908604FF4805135483F
:10286000FEF713FA38493748006800F03BFB05468D
:10287000364900F03DFB044635480168204600F02B
:1028800034FB3349086033493148006800F0D6FB17
:1028900003D230482E49086008E02F492C480068D0
:1028A00000F0C2FB02D22C48294908602848006881
:1028B00000F093FB84B221462848FFF725FB284807
:1028C0000068401C2649086008460068EE282BD99D
:1028D00000F0D6F80020224908601A48006800F08D
:1028E00090FB044622460B461EA1214800F0C6FE7E
:1028F0001F4A0021084600F065F91248006800F000
:1029000080FB044622460B461AA000F0A7FE1048A2
:10291000006800F076FB044622460B4619A000F042
:102920009DFE1DA000F09AFE40F6FF70FFF762FFCB
:1029300071E7000000200140280000200000A040B6
:10294000000030412C0000200000204100004842DF
:1029500030000020000061450000B4430004004046
:102960003400002056203D2025662056000000003F
:102970007C090020B5E7D1B9A3BA256620560D0A17
:1029800000000000D5BCBFD5B1C8A3BA2025662081
:102990002525200D0A0000000D0A000070B5044630
:1029A0000E462EB14FF48061FE48FEF76EF904E04A
:1029B0004FF48061FB48FEF76AF94FF48051F94803
:1029C000FEF765F900251BE04FF40051F548FEF7CE
:1029D0005EF904F0800028B14FF40041F148FEF7A1
:1029E00054F904E04FF40041EE48FEF750F94FF47B
:1029F0000051EC48FEF749F96006040E681CC5B2A8
:102A0000082DE1DB4FF48051E648FEF73EF94FF424
:102A10008061E448FEF739F970BD70B504460D4693
:102A200005F1B001C8B20021FFF7B8FF102141EA5B
:102A300014100021FFF7B2FF04F00F0141F0010074
:102A40000021FFF7ABFF70BD10B500218D20FFF70F
:102A5000A5FF00211420FFF7A1FF0021AF20FFF701
:102A60009DFF10BD10B500218D20FFF797FF0021BD
:102A70001020FFF793FF0021AE20FFF78FFF10BD5E
:102A800070B5002419E004F1B001C8B20021FFF7CD
:102A900085FF00210846FFF781FF00211020FFF786
:102AA0007DFF002505E001210020FFF777FF681C6E
:102AB000C5B2802DF7DB601CC4B2082CE3DB70BD0F
:102AC0002DE9F04107460E46904600250024A8F166
:102AD0002000C5B27F2F02DD0027B01CC6B23146F0
:102AE0003846FFF79AFF002408E004EB0511AE4AD0
:102AF000505C0121FFF752FF601CC4B2082CF4DBCC
:102B0000701CC1B23846FFF788FF002409E004EBCF
:102B100005110831A44A505C0121FFF73FFF601CFA
:102B2000C4B2082CF3DBBDE8F08110B502460120E9
:102B300000E050430B1EA1F10104E1B2F9D110BD38
:102B40002DE9FF5F074691461D460E9E4FF0000A95
:102B5000002433E0281B401EC1B20A20FFF7E5FF26
:102B6000B9FBF0F00A21B0FBF1F201FB1208BAF157
:102B7000000F13D1681EA04210DDB8F1000F0BD179
:102B8000B34606EBDB71491001FB0471C8B2202289
:102B90000199FFF795FF0FE04FF0010AB34606EBEE
:102BA000DB71491001FB0471C8B208F13001CAB2EF
:102BB0000199FFF785FF00BF601CC4B2AC42C9DBBE
:102BC000BDE8FF9F2DE9F04104460F46154600265B
:102BD0000EE0AA5D39462046FFF772FF04F10800B7
:102BE000C4B2782C02DD0024B81CC7B2701CC6B277
:102BF000A85D0028EDD1BDE8F0812DE9F0418046C7
:102C00000E461546002731464046FFF706FF0024D2
:102C10000AE0664A02EB8511085D0121FFF7BEFE5E
:102C2000781CC7B2601CC4B2102CF2DB701CC1B29D
:102C30004046FFF7F2FE00240CE06900491C5B4AA5
:102C400002EB4111085D0121FFF7A8FE781CC7B215
:102C5000601CC4B2102CF0DBBDE8F0812DE9F05F00
:102C600006460F4690461C46DDF828A04FF0000BA4
:102C7000E11704EB5171C910A4EBC10131B9204631
:102C8000E11704EB5171C1F3C70506E02046E117D7
:102C900004EB5171C910491CCDB23D4615E02946DF
:102CA0003046FFF7BAFEB1460BE059460BF1010B77
:102CB0001AF801000121FFF771FE09F1010000F08F
:102CC000FF09C145F1DB681CC5B2A542E7DBBDE8E1
:102CD000F09F08B501210820FEF7E6F94FF42C40DB
:102CE000ADF8000010208DF8030003208DF80200DD
:102CF00069462C48FDF71CFF4BF602412948FDF7B9
:102D0000C4FF4FF400612748FDF7BFFF002000E03B
:102D1000401C27498842FBDB4FF400612148FDF746
:102D2000B6FF002000E0401C21498842FBDB4FF445
:102D300000611C48FDF7A9FF0021AE20FFF72EFE21
:102D400000210846FFF72AFE00211020FFF726FE8B
:102D500000214020FFF722FE00218120FFF71EFE08
:102D60000021CF20FFF71AFE0021A120FFF716FE59
:102D70000021C820FFF712FE0021A620FFF70EFE5B
:102D80000021A820FFF70AFE00213F20FFF706FEE2
:102D90000021D320FFF702FE00210846FFF7FEFDC9
:102DA000002107E0000C0140A84100083800002085
:102DB000FFFF0F00D520FFF7F1FD00218020FFF776
:102DC000EDFD0021D920FFF7E9FD0021F120FFF7FB
:102DD000E5FD0021DA20FFF7E1FD00211220FFF7D9
:102DE000DDFD0021DB20FFF7D9FD00214020FFF7AA
:102DF000D5FD00212020FFF7D1FD00210220FFF7A3
:102E0000CDFD00218D20FFF7C9FD00211420FFF723
:102E1000C5FD0021A420FFF7C1FD0021A620FFF77A
:102E2000BDFD0021AF20FFF7B9FD0021AF20FFF766
:102E3000B5FDFFF725FE00210846FFF7EEFD08BDB2
:102E4000F0B480EA0102D40F4200B2EB410F02D28B
:102E50000246084611464A0042D0C30DDDB2C1F316
:102E6000C752AD1A202D35DAC1F3160141F4000224
:102E700004B15242C5F1200602FA06F12A4110447B
:102E8000B3EBD05F23D0C4B1012DA0EBC35009DC5C
:102E9000F0BC4FF0004202EAC352DBB200F5000082
:102EA00000F026B9400000F1807000EBC350A0F1A3
:102EB000807040EAD170490009E0490841EAC071D8
:102EC000A0EBC35000F50000400800EBC350F0BC7D
:102ED00000F005B96142012202EB4101001BF6E757
:102EE000F0BC704781F00041AAE780F00040A7E7FE
:102EF00080EA010210B502F00043400022D04A00EF
:102F00001FD0010E01EB1261C0F35600C2F356024E
:102F100040F4000042F40002A0FB022000047F39CC
:102F2000140400D0401C50EA124001D44000491E55
:102F3000C2B20C0604EBD010401C4008802A02D01C
:102F400003E0002010BD20F00100002900DA00207D
:102F5000184310BD30B480EA010202F0004530F0A1
:102F6000004221F0004013D090B1C30DD40DC2F344
:102F70001601C0F31600E41A41F4000140F4000207
:102F80007D34914201D3641C00E04900002C02DA38
:102F900030BC002070474FF400000023914201D361
:102FA000891A034340084FEA4101F7D151B19142D8
:102FB00002D14FF0004105E002D24FF0010101E0E3
:102FC0006FF0010103EBC450284430BC00F087B817
:102FD00096230022114600F08BB820F00040C10D6E
:102FE000C0F3160040F400007F2901DA002070478A
:102FF000962903DCC1F19601C84070479639884094
:10300000704700F0004230F000400AD0C10D01F5D9
:103010006071C0F3160042EA0151C2084007114333
:103020007047002001467047002801DBC0F10040D6
:10303000002901DBC1F1004181427047002801DB1A
:10304000C0F10040002901DBC1F100418842704716
:1030500030B50B46014600202022012409E021FA68
:1030600002F59D4205D303FA02F5491B04FA02F565
:103070002844151EA2F10102F1DC30BD2DE9F05FFC
:103080000546002092469B468846064681464024D7
:103090001BE0284641464746224600F030FA534698
:1030A0005A46C01A914110D311461846224600F0E4
:1030B00017FA2D1A67EB01084F462246012000211E
:1030C00000F00EFA17EB00094E41201EA4F1010496
:1030D000DFDC484631462A464346BDE8F09F0029DA
:1030E000A8BF7047401C490008BF20F0010070478E
:1030F00010B4B0FA80FC00FA0CF050EA010404BFEE
:1031000010BC704749B1CCF1200421FA04F411FA43
:103110000CF118BF012121430843A3EB0C01CB1D87
:103120004FEA00614FEA102042BF002010BC7047F8
:1031300000EBC35010440029A4BF10BC7047401CD2
:10314000490008BF20F0010010BC70472DE9FE4F78
:10315000804681EA0300C00F0C46009021F0004138
:1031600023F00045B8EB0200A94105D240462146B4
:1031700090461C460B46024623F00040104347D0C1
:10318000270DC7F30A00C3F30A510290401A0190B9
:1031900040286BDAC3F3130040F4801B009892467A
:1031A00020B10023D2EB030A63EB0B0B01985946C5
:1031B000C0F14002504600F093F906460D465046D5
:1031C0005946019A00F0ABF910EB08006141002468
:1031D00087EA115284EAE7731A4340D0009A62B337
:1031E000019A012A4FEA075215DC001B61EB02012C
:1031F0004FF0004202EA0752CDE90042001C41F5BF
:10320000801132462B4600F0ABF903B0BDE8F08FD9
:1032100040462146F9E7001B61EB0201001C41F525
:10322000801300185B412018A2F5001747EB03013B
:1032300040EAD570B6196D4111E06D084FEA3606C7
:1032400045EAC0754FEA0752001B61EB0201001C02
:1032500041F5801149084FEA3000001951413246CA
:103260002B4603B0BDE8F04F00F06BB90098012287
:1032700040000023D0EB020263EBE073009821468C
:103280004FEAE074B8EB000061EB0401E9E783F07A
:1032900000435BE781F0004158E72DE9FE4F81EAEA
:1032A000030404F0004421F0004100944FF0000BAF
:1032B00023F0004350EA01045ED052EA03045BD0DD
:1032C000C3F30A54C1F30A552C44A4F2F334019415
:1032D000A0FB0254C1F3130141F48011C3F31303A3
:1032E00043F4801301FB024400FB034E840A970A57
:1032F00044EA815447EA8357A4FB076802958D0A84
:1033000005FB07854FEA932C04FB0C542705029D0F
:103310004FEA065847EA1637B5EB08056EEB070C7F
:10332000870E920E47EA811742EA8312A7FB020139
:10333000B6EB0B0164EB00042B0D43EA0C335E1873
:1033400044EB1C50DA465146E7FB0201C5F3130477
:103350004FEA0B3343EA14534FEA0432019C43EA29
:103360000603A4F10C040294009CCDE900B400F023
:10337000F7F803B0BDE8F08F00200146F9E72DE92A
:10338000F04D81EA030404F0004B21F0004514469F
:103390004FF0000A23F0004150EA050220D054EA21
:1033A00001021DD0C5F30A570246C5F31303C1F34A
:1033B0001300C1F30A5640F4801543F48013A7EBC1
:1033C0000608101BD64608F2FD3873EB050002D341
:1033D00008F1010801E092185B41B8F1000F03DA2F
:1033E00000200146BDE8F08D00204FF48011064614
:1033F00084460EE0171B73EB050705D3121B63EB26
:10340000050306434CEA010C49084FEA30009218C4
:103410005B4150EA0107EDD152EA030012D082EA83
:10342000040083EA0501084305D0101BAB4106D216
:103430000122002306E000224FF0004302E06FF07B
:10344000010253101AEB06004CEB085110EB0A0076
:1034500041EB0B01BDE8F04D00F073B8C1F30A5227
:10346000C1F3130140F2FF3341F480119A4202DAB2
:1034700000200146704740F233439A42A2F23342A1
:1034800002DC524200F03BB800F02AB830B5041E0E
:1034900071F1000404DB4FF00044404264EB010191
:1034A000141E73F1000405DB1C464FF0004352422A
:1034B00063EB0403994208BF904230BD064C074DB0
:1034C00006E0E06840F0010394E8070098471034F4
:1034D000AC42F6D3FCF730FE98470008B847000826
:1034E000202A04DB203A00FA02F1002070479140C4
:1034F000C2F1200320FA03F3194390407047202AB9
:1035000004DB203A21FA02F00021704721FA02F38D
:10351000D040C2F120029140084319467047202A4A
:1035200006DBCB17203A41FA02F043EAE07306E0EB
:1035300041FA02F3D040C2F12002914008431946FB
:10354000704710B5141E73F1000408DA401C41F1F5
:10355000000192185B411A4301D120F0010010BD17
:103560002DE9F04D92469B4611B1B1FA81F202E08D
:10357000B0FA80F220329046FFF7B2FF04460F46C1
:1035800040EA0A0041EA0B0153465A46084313D069
:10359000114653EA010019D0C8F140025046FFF726
:1035A000AEFF05460E46504659464246FFF798FF85
:1035B000084305D0012004E020463946BDE8F08DDF
:1035C0000020054346EAE0762C4337430A9863051A
:1035D000E40AA0EB08000022FD0A44EA47540A303E
:1035E00002D500200146E9E7010510196941DDE92E
:1035F000084500196941BDE8F04DA2E770B58D1886
:1036000010F8014B14F0030201D110F8012B231123
:1036100006D110F8013B03E010F8016B01F8016BD3
:10362000521EF9D1ABB110F8012B04F00C048A1A28
:103630000C2C03D0A2EB84129B1C08E010F8014B69
:10364000A2EB0422F8E712F8014B01F8014B5B1ED4
:10365000F9D5A942D4D3002070BD00000FB4054BAA
:1036600010B503A9044A029800F0EEF810BC5DF80A
:1036700014FB000069260008780900200FB4084BED
:1036800010B504A902AA039800F0DEF8044602A9C6
:10369000002000F070FC204610BC5DF814FB000018
:1036A000773F000802E008C8121F08C1002AFAD1BB
:1036B00070477047002001E001C1121F002AFBD1B2
:1036C000704700002DE9FF5F82B00021DDE9043082
:1036D000020DDDF840B0034318D044F61050A2F2BA
:1036E000FF3242431514119801281FD0A5EB0B009F
:1036F000401C5FEA000A4FF000064E4FDFF8389199
:10370000B046504615D5CAF1000413E011980124C3
:103710004AA3012801D16FEA0B010298119AC0E96E
:103720000031C0E9024206B0BDE8F09FCBF10000D5
:10373000DFE704460021404A491842EB0450CDE936
:10374000001012E0E00707D032463B4640464946AB
:10375000FFF7A3FD8046894632463B461046194690
:10376000FFF79BFD06460F466410002CEAD1DDE909
:103770000401DDE90023BAF1000F06DAFFF78DFD41
:1037800042464B46FFF789FD05E0FFF7F8FD42464C
:103790004B46FFF7F4FD04460E460022284BFFF788
:1037A00075FE03D84FF0FF30014607E00022254B9D
:1037B00020463146FFF7CAFCFFF750FE102409E00F
:1037C000002C0ADB0A220023FFF758FC039B30324F
:1037D0001A55641E50EA0102F2D1641C039AC4F126
:1037E00011031444119A012A03D0012208430DD178
:1037F0000AE0084304D000204FF0110B119072E74B
:10380000A3EB0B056D1E0DE05B4504DD4FF00002E0
:1038100005F1010504E003DA4FF00002A5F101050E
:10382000002AECD002981199C0E90231C0E90045A4
:1038300079E70000000014400000F03F3000000075
:103840000000F0430000E03F2DE9FF4F95B09B469C
:103850008946064600250FE2252877D10024274611
:10386000F84A0121059400E0044316F8013F203B8B
:1038700001FA03F01042F7D130782A2811D06FF006
:103880002F033078A0F13002092A16D8059A44F0A7
:10389000020402EB820203EB42021044761C059004
:1038A000EFE759F8042B0592002A03DA504244F45A
:1038B0000054059044F00204761C30782E2816D16E
:1038C00016F8010F44F004042A280DD06FF02F02DF
:1038D0003078A0F13003092B09D807EB870302EBFE
:1038E0004303C718761CF3E759F8047B761C30783D
:1038F0006C280FD006DC4C2817D068280DD06A2819
:1039000014D104E0742810D07A280FD10DE044F4CB
:1039100000140AE044F4801401E044F44014727886
:10392000824202D104F58014761C761C3078662819
:103930000BD013DC582877D009DC002875D0452837
:10394000F6D04628F4D047281AD19DE118E0632824
:1039500035D0642879D0652812D195E1702873D0CC
:1039600008DC6728F1D069286FD06E280DD06F2849
:1039700006D1B5E073282CD0752875D0782874D07E
:103980005A46179990476D1C75E1C4F302500228FE
:1039900009D003280DD0D9F8001004280DD00D60EF
:1039A00009F1040967E1D9F80010EA17C1E90052EA
:1039B000F6E7D9F800100D80F2E70D70F0E719F87E
:1039C000041B8DF8001000208DF80100EA4601204C
:1039D00003E059F804AB4FF0FF3061074FF00001EE
:1039E00002D40DE008F101018846B9420FDA8045A2
:1039F000F8DB1AF808100029F4D108E008F10101F9
:103A000088468142FADB1AF808100029F6D1059899
:103A10005B46A0EB080721463846179A00F094FA57
:103A2000284400EB080507E04DE029E10DE01AF815
:103A3000010B5A4617999047B8F10108F7D25B4637
:103A400021463846179A13E142E00A220092C4F355
:103A500002524FF0000A022A08D059F804CB032A78
:103A60004FEAEC710AD00DE029E02AE009F10701E4
:103A700021F00702F2E802C1914609E00FFA8CFC3E
:103A80004FEAEC71042A03D14FFA8CFC4FEAEC7137
:103A9000002907DA0A460021DCF1000C61EB020183
:103AA0002D2202E0220504D52B228DF804200122CC
:103AB00003E0E20701D02022F7E7904659E00A210F
:103AC00002E010220DE010214FF0000A00910BE0FF
:103AD00010224FF0000A44F004040827009203E08B
:103AE00008224FF0000A0092C4F30252022A05D0C5
:103AF00059F804CB0021032A08D009E009F1070195
:103B000021F00702F2E802C1914605E01FFA8CFCA1
:103B1000042A01D10CF0FF0C4FF00008220728D531
:103B2000702806D0009B83F0100353EA0A0305D0E7
:103B30000EE040228DF80420012208E05CEA010238
:103B400006D030228DF804208DF805000222904620
:103B5000009B83F0080353EA0A030AD15CEA0102DE
:103B600001D1620705D530228DF804204FF00108FD
:103B70007F1E582804D034A003900EA802900DE0B8
:103B800036A0F9E753466046009AFFF777FA844675
:103B90000398825C0298401E029002705CEA010069
:103BA000F0D1029806A9081A00F1200A600702D590
:103BB00024F4803400E00127574502DDA7EB0A001A
:103BC00000E0002000EB0A01009005984144401AF3
:103BD0000590E00306D45B462146179A059800F04D
:103BE000B3F90544002706E001A85A46C05D1799BD
:103BF00090476D1C7F1C4745F6DBE0030CD55B4608
:103C00002146179A059800F09FF9054404E03020FA
:103C10005A46179990476D1C0099481E009000293C
:103C2000F5DC08E0029802995A460078491C029196
:103C3000179990476D1CBAF10001AAF1010AF1DC55
:103C400065E1000009280100303132333435363760
:103C500038396162636465660000000030313233D8
:103C60003435363738394142434445460000000078
:103C700000F058F90544761C307800287FF4ECAD4C
:103C800019B02846BDE8F08F620700D4062709F175
:103C9000070222F0070CFCE80223E14603F000488B
:103CA0005FEA080C02D00FF2702C0DE05FEA045CB2
:103CB00002D50FF2682C07E05FEAC47C02D00FF255
:103CC000602C01E0AFF2700C4FF0FF3823F000439E
:103CD000CDF850C065280CD006DC452809D0462810
:103CE0001DD047283DD13DE0662818D067287ED1F9
:103CF00038E00021112F01DB112000E0781CCDE914
:103D0000000106A90EA8FFF7DDFCDDE90F010E9A00
:103D100003910021009207F1010A04914DE04FF058
:103D200000400097CDE9011006A90EA8FFF7CAFCD4
:103D3000DDE90F0203920E9B11990022DDF80CA021
:103D40000093049211B9791C00EB010AB7EB0A0049
:103D500004D4C0F1FF3007F1010A0490AAEB070078
:103D6000019044E0012F00DA01270021112F01DD2D
:103D7000112000E03846CDE9000106A90EA8FFF7A2
:103D8000A1FCDDE90F010E9A03910021049100923C
:103D9000BA4621070CD40399514500DA8A46BAF194
:103DA000010F05DD009AAAF10101515C302908D00C
:103DB000B84202DA10F1040F06DA0121CDE9011050
:103DC00015E0AAF10101E9E7002805DC04990144A6
:103DD0000491AAEB000102E0411C514500DD8A4636
:103DE0000499401A401C01904FF0004002902007B7
:103DF00004D40198504501DBCDF8048000208DF8F3
:103E00004F0002980DF14F07B0F1004F25D02B2045
:103E10000E9002984FF0020800280CDA40420290FF
:103E20002D200E9007E00A210298FFF711F930319A
:103E3000029007F8011DB8F10001A8F10108F2DCB9
:103E400002980028EFD1791E0E980870307800F0A3
:103E5000200040F0450007F8020D12A8C01B00F139
:103E600007081498007800B1012000EB0A010198BE
:103E700001EBE07105984144401A401E0590E003B3
:103E800006D45B462146179A059800F05DF8054474
:103E90001498007818B15A46179990476D1CE003A2
:103EA00024D55B462146179A059800F04DF8054445
:103EB0001CE00498002807DBDDE90301884203DDEC
:103EC0000098405C179901E0179930205A469047B6
:103ED000049805F10105401C04900198401E0190D2
:103EE00004D12E205A46179990476D1CBAF1000153
:103EF000AAF1010ADDDC05E017F8010B5A46179913
:103F000090476D1CB8F10001A8F10108F4DC5B4694
:103F10002146179A0598ABE62D0000002B00000003
:103F2000200000002DE9F041044600251E461746FA
:103F3000880404D405E039462020B0476D1C641E77
:103F4000F9D52846BDE8F0812DE9F0410446002569
:103F50001E469046C80301D5302700E0202788047C
:103F600004D505E041463846B0476D1C641EF9D5BE
:103F70002846BDE8F0810A68531C0B60107070473A
:103F80000000000000000000002F000000000700FB
:103F9000070000147F147F1400242A7F2A12006275
:103FA0006408132300364955225000000503000021
:103FB00000001C224100000041221C000014083EA9
:103FC00008140008083E0808000000A0600000086F
:103FD00008080808000060600000002010080402C3
:103FE000003E5149453E0000427F40000042615181
:103FF0004946002141454B31001814127F1000271B
:1040000045454539003C4A494930000171090503DD
:1040100000364949493600064949291E000036360E
:104020000000000056360000000814224100001471
:10403000141414140000412214080002015109064E
:1040400000324959513E007C1211127C007F4949CF
:104050004936003E41414122007F4141221C007F00
:1040600049494941007F09090901003E4149497A0E
:10407000007F0808087F0000417F41000020404188
:104080003F01007F08142241007F40404040007FF4
:10409000020C027F007F0408107F003E4141413E38
:1040A000007F09090906003E4151215E007F091980
:1040B00029460046494949310001017F0101003F7D
:1040C0004040403F001F2040201F003F4038403FFD
:1040D0000063140814630007087008070061514961
:1040E000454300007F41410000552A552A550000F4
:1040F00041417F0000040201020400404040404072
:10410000000001020400002054545478007F484409
:10411000443800384444442000384444487F003840
:104120005454541800087E0901020018A4A4A47C69
:10413000007F080404780000447D40000040808433
:104140007D00007F102844000000417F4000007C7B
:1041500004180478007C0804047800384444443887
:1041600000FC242424180018242418FC007C0804D3
:10417000040800485454542000043F444020003CAC
:104180004040207C001C2040201C003C4030403C33
:10419000004428102844001CA0A0A07C00446454C3
:1041A0004C44141414141414000000000000000007
:1041B0000000000000000000000000F80000000007
:1041C000000000333000000000100C06100C060048
:1041D000000000000000000040C07840C0784000AF
:1041E000043F04043F040400007088FC0830000011
:1041F000001820FF211E0000F008F000E018000069
:1042000000211C031E211E0000F008887000000021
:104210001E2123241927211010160E000000000073
:104220000000000000000000000000E01804020090
:10423000000000071820400000020418E000000001
:104240000040201807000000404080F080404000FF
:104250000202010F01020200000000F00000000055
:104260000101011F01010100000000000000000029
:1042700080B070000000000000000000000000009E
:104280000001010101010101000000000000000027
:1042900000303000000000000000000080601804C2
:1042A000006018060100000000E010080810E0009F
:1042B000000F102020100F00001010F80000000068
:1042C0000020203F202000000070080808887000AF
:1042D000003028242221300000300888884830002F
:1042E0000018202020110E000000C02010F800004F
:1042F00000070424243F240000F8088888080800E8
:104300000019212020110E0000E0108888180000FC
:10431000000F112020110E0000380808C8380800CE
:104320000000003F0000000000708808088870004E
:10433000001C222121221C0000E010080810E000CF
:104340000000312222110F00000000C0C000000058
:10435000000000303000000000000080000000007D
:104360000000806000000000000080402010080075
:10437000000102040810200040404040404040003E
:104380000404040404040400000810204080000019
:104390000020100804020100007048080808F0001E
:1043A0000000003036010000C030C828E810E000EE
:1043B0000718272423140B000000C038E000000079
:1043C000203C23020227382008F8888888700000E3
:1043D000203F202020110E00C030080808083800B7
:1043E000071820202010080008F808080810E0002E
:1043F000203F202020100F0008F88888E8081000CF
:10440000203F20202320180008F88888E8081000A2
:10441000203F200003000000C030080808380000DA
:1044200007182020221E020008F808000008F808DB
:10443000203F210101213F20000808F80808000062
:104440000020203F2020000000000808F808080095
:10445000C08080807F00000008F888C0281808000D
:10446000203F20012638200008F808000000000046
:10447000203F20202020300008F8F800F8F808003D
:10448000203F003F003F200008F830C00008F80837
:10449000203F200007183F00E01008080810E00047
:1044A0000F10202020100F0008F808080808F0005E
:1044B000203F210101010000E01008080810E00081
:1044C0000F18242438504F0008F888888888700016
:1044D000203F2000030C30200070880808083800B6
:1044E0000038202121221C00180808F808081800AC
:1044F0000000203F2000000008F808000008F8082D
:10450000001F202020201F000878880000C83808DD
:10451000000007380E010000F80800F80008F80055
:10452000033C0700073C03000818688080681808EF
:1045300020302C03032C30200838C800C83808006D
:104540000000203F2000000010080808C8380800BC
:104550002038262120201800000000FE0202020060
:104560000000007F40404000000C30C00000000010
:10457000000000010638C00000020202FE00000038
:10458000004040407F0000000000040202020400DE
:10459000000000000000000000000000000000001B
:1045A0008080808080808080000202040000000003
:1045B00000000000000000000000808080800000FB
:1045C0000019242222223F2008F8008080000000E9
:1045D000003F112020110E000000008080800000AC
:1045E000000E112020201100000000808088F800BB
:1045F000000E112020103F200000808080800000ED
:10460000001F222222221300008080F08888881850
:104610000020203F2020000000008080808080005B
:10462000006B94949493600008F8008080800000F0
:10463000203F210000203F200080989800000000CB
:104640000020203F202000000000008098980000FB
:1046500000C08080807F000008F80000808080001B
:10466000203F24022D302000000808F80000000040
:104670000020203F202000008080808080808000FB
:10468000203F20003F20003F80800080808000008D
:10469000203F210000203F2000008080808000001B
:1046A000001F202020201F0080800080800000004C
:1046B00080FFA12020110E0000000080808080007B
:1046C000000E112020A0FF8080808000808080006C
:1046D00020203F2120000100000080808080800099
:1046E0000033242424241900008080E0808000000E
:1046F0000000001F2020000080800000008080005B
:10470000001F202020103F208080800000808080BB
:1047100000010E300806010080800080008080804B
:104720000F300C030C300F00008080008080800070
:104730000020312E0E31200080808000008080809B
:1047400080818E701806010000808080808080004B
:104750000021302C2221300000000000807C020269
:1047600000000000003F404000000000FF0000008B
:1047700000000000FF0000000002027C800000003A
:104780000040403F00000000000601010202040456
:104790000000000000000000B847000800000020F2
:1047A0007C090000FC350008644A00087C090020F0
:1047B00034040000B4360008500600A24A04000188
:1047C000600901020304060708090C611060050274
:1047D0000406082420050000FA4406700F1010D0CB
:1047E000FF9014E42424E40404FC04437126F00E36
:1047F000040300FF00010F04040F40807F1E1140DE
:10480000130C24012325E606F00424140C40220294
:1048100001300442827F08F3020240200C08494E16
:10482000F84C4B081222FE0004F16010058242325F
:104830000F4200071144827F0442818110094040E9
:10484000C05F5555D55501F0055F40404020001030
:104850001020603F251515FF904729112D438080BA
:104860006113FC00E100091100F01010FF1010F0BE
:10487000E110088740300F00001F260404110810C3
:104880000F01501003050911FF118905C300E00055
:10489000F000F8B700083A4428FF11AA4400015478
:1048A0000B830138448292927401830B20087C446C
:1048B000FF017D7D7D04410554047D01FFF19102DE
:1048C0007905023B017E81419149F20101011BC240
:1048D00030083F3F0303F3131101100601F111618A
:1048E00081402005816111F14733414107200401D6
:1048F000C12120A321C11431193137040736D33324
:1049000003033F3F426006E0E000007FA8193C40FF
:1049100005010618060A29383A7F2E1B1F2036A0EB
:104920000440201F143300600E6004300C03460561
:1049300034C21004070706017009040404844444C7
:1049400044840780050484C4041501120A711121EE
:1049500040073D0707C91DE503380A181412110066
:10496000000F1010C32C04101F107A03600C1012DB
:10497000120D00001800000D120A51295130015E7D
:1049800001528001013B4514047F030CA915DE1C74
:1049900005385454582503080A2004047800003CC4
:1049A00040407C2000092CFFAAAAAA280800FF6822
:1049B00010062649494932100C0671020408107F7E
:1049C00000049D01040D9D00041D650643F80801C7
:1049D0002C0500F818607D052404806018235720FA
:1049E000202923E01021A310E0145D1906211908E5
:1049F000043C886818630D15FF037DEA039DFF03DF
:104A000071144DFF031D06043D2E040942E91C06E6
:104A100040202020C04A04110721EA3E405204529F
:104A2000600E8118712951070D4769031C050C0A96
:104A30000A099B07160F6B2D00042F080F0708109B
:104A4000060C0809090E071D180430050909090F8D
:104A50000A512951070DFF00040D22000400040033
:044A60000000000052
:0400000508000131BD
:00000001FF
